:020000040800F2
:10000000380B0020D500000801010008030100089A
:1000100000000000000000000000000000000000E0
:1000200000000000000000000000000005010008C2
:100030000000000000000000070100087122000815
:100040000B0100080B0100080B0100080B01000860
:100050000B0100080B0100080B0100080B01000850
:100060000B0100080B0100080B0100080B01000840
:100070000B0100080B0100080B010008E522000835
:100080003D23000800000000000000000B010008F4
:10009000000000000B0100080B0100080B01000824
:1000A000000000000B0100080B0100086925000892
:1000B0000B010008000000002507000800000000F8
:1000C0000348854600F0E0F800480047492B000847
:1000D000380B00200D4880F308880D480D49016059
:1000E0000D480168090E0D4A914205D10C48094995
:1000F00001600C480C4901600C4880470C480047DF
:10010000FEE7FEE7FEE7FEE7FEE7FEE7380B00202E
:100110006020024001000000040000001F000000F9
:100120001810024000000140000000007922000881
:10013000C100000830B50B460146002020220124F2
:1001400009E00D46D5409D4205D31D469540491B0B
:100150002546954040191546521E002DF1DC30BD54
:10016000D2B201E00270401C491EFBD2704700224F
:10017000F6E710B513460A4604461946FFF7F0FFA6
:10018000204610BD0EB505490291002100910A4696
:100190000B46019100F025F803B000BD33040000C8
:1001A00010B5002904DB0124E40740428C412146BC
:1001B000002B04DB1C460123DB075242A34199427A
:1001C00000D1904210BD000010B5002B08DA0024C9
:1001D000401C614192185B411A4301D14008400024
:1001E00010BDF0B51FB482B005460C0003D0084620
:1001F00002F0FCFB02E002F0F9FB20300246009026
:100200002146284600F052F8049B059A04460F4602
:1002100018431143084314D0184610431BD00098CC
:1002200040210A1A1846059900F050F805460E4676
:10023000009A0599049800F039F8084305D0012088
:1002400004E02046394607B0F0BD0020C117054341
:100250000E432C43374300990E986305401A7905E5
:10026000E40A00220C43FD0A0A3002D500200146B0
:10027000E9E70105101969410C9C0D9D00196941C0
:10028000FFF7A2FFDFE70000064C0125064E05E060
:10029000E36807CC2B430C3C98471034B442F7D3A7
:1002A000FFF712FFE02C0008002D000810B5202AEF
:1002B00004DB0146203A9140002010BD91402023EC
:1002C0009C1A0346E3401943904010BD10B5202A04
:1002D00004DB0846203AD040002110BD0B46D34035
:1002E000D0402024A21A91400843194610BD70B591
:1002F0008C180578401C6B075B0F01D10378401CFC
:100300002A1106D10278401C03E006780E70401CCA
:10031000491C5B1EF9D12B0705D40023521E0DD4B6
:100320000B70491CFAE70378401CCB1A921C03E0BF
:100330001D780D70491C5B1C521EF9D5A142D8D303
:10034000002070BDFFB583B00C46029400200190E0
:10035000002726E000261CE0721C03995143084642
:10036000791CFFF7E7FE0546A54201D9281B00E0EE
:10037000601B05460298A84204D9029505980670AC
:10038000069807700298002802D10120019002E02F
:10039000761C402EE0D300BF0198002800D002E078
:1003A0007F1C042FD6D300BF029807B0F0BDF7B56D
:1003B00084B0054616460396012002900020019065
:1003C000002700BF002EFDD005980028FAD0314646
:1003D0000598FFF7AFFE07467F08192413E0214672
:1003E0003846FFF7A7FE6043381A019001980028AD
:1003F00001D1029409E003990198884202D2019840
:1004000003900294641E032CE9D800BF00202870DA
:1004100038460299FFF78EFE401E68700299C81E8A
:100420000321FFF787FEE8700298C01EE978401AA2
:10043000287107B0F0BD4168082211434160704740
:10044000002100BFC1687047416804221143416028
:1004500070470000FFB586B007460020019038467F
:1004600000F018FF0446022107980840002801D038
:1004700001200190002F36D03846F917490F09188E
:100480004905090E0391F917490F0918C910C90048
:10049000791AC9B20291039988005849401800900E
:1004A0000198002808D000980068012202998A402B
:1004B00010430099086007E0009801680122029843
:1004C0008240914300980160039880004B490C31B1
:1004D0004018009000980068012202998A40104359
:1004E0000099086013E00198002808D0434880383C
:1004F00000680821084341498039086007E03F4807
:1005000080380068082188433C4980390860019898
:1005100001282AD10798C007C00F002808D00898E2
:100520000068C60009980068C5000720054307E079
:100530000898008846050998008845053048054315
:10054000300E20603002000E60603004000EA060AB
:10055000F0B2E060280E20612802000E60612804DD
:10056000000EA061E8B2E06145E0089806680998CD
:10057000056808980068401C059009980068401CB0
:1005800004900798C007C00F00280ED0F600ED00B9
:100590000598C00005900498C000049019480543D0
:1005A00018490498084304900DE076056D050598F8
:1005B00040050590049840050490114805431049F2
:1005C000049808430490300E20603002000E6060F2
:1005D000280E20612802000E60610598000EA060C0
:1005E00005980002000EE0600498000EA0610498D7
:1005F0000002000EE0610AB0F0BD0000806400401F
:10060000FFFF1F00FFFF000010B58EB0044600F092
:100610003FF801211C4800F0EFF980211A4800F052
:10062000C7F805A801F064F90AA800F081F922468C
:100630000AA80799FFF7BBFE002108A88172817301
:1006400041730AA800F0C8F8002003900F480190F9
:1006500001AB03AA02210020FFF7FCFE012108469E
:1006600000F0AAF80121802000F0A6F8012108205E
:1006700000F0A2F80121402000F09EF8002102487D
:1006800000F0BAF90EB010BD00640040FFFF00009A
:100690001CB50121480601F00BF90121084601F0C3
:1006A00017F90121480401F0F3F801A800F0EAFD70
:1006B0000121C90268468180012181710421C17133
:1006C00001A90920C00600F06FFD01210903684659
:1006D0008180012181711821C17101A90920C00601
:1006E00000F062FD04220C210920C00600F0A9FDE3
:1006F00004220B210920C00600F0A3FD1E2168463C
:100700000170002141700121817001F063F81CBD6E
:10071000024690680840884201D1012070470020BD
:10072000FCE7000070B51E48C46885688020204042
:10073000002807D140202040002803D10820204075
:10074000002802D01648FFF77BFE02202840002830
:1007500005D01348FFF76FFE1148FFF771FEE00761
:10076000C00F00280AD00F4800F07CF80E480D4951
:1007700082690E48904700200C4908700121084604
:1007800000F01AF80121802000F016F8012108205D
:1007900000F012F80121402000F00EF870BD0000BA
:1007A00000640040FC060020540500205400002096
:1007B000C26F0A43C2677047002905D0054A126913
:1007C0000243044B1A6104E0024A12698243014B5E
:1007D0001A61704700640040017889014278114332
:1007E0001F4A91618178C901C278120111430279CF
:1007F00011431B4AD1614179012906D1114609688B
:1008000002221143164A116005E0154909680222C7
:100810009143134A11608179012906D11049096871
:10082000042211430E4A116005E00D4909680422B3
:1008300091430B4A1160C179012906D10849096821
:1008400010221143064A116005E00549096810228B
:100850009143034A1160024AC16851637047000026
:100860000064004010B50346304800684004000EA4
:1008700018712E4800684006C00F58712B48006858
:100880000007000F98711879012820D02748806848
:10089000440926484068C00004431C602348C068DF
:1008A000D8712248006918722048406958721F4860
:1008B000806998721D48C069D8721C48006A187314
:1008C0001A48406A58731948806A987329E0174893
:1008D0000069F8210840C4081448C0684001044376
:1008E00012488068400304431048406840050443B0
:1008F0001C600E484069D8710C48806918720B481A
:10090000C06958720948006A98720848406AD872EB
:100910000648806A18730548C06A58730348006B1C
:10092000987302484038FFF78FFD10BD40640040C7
:100930000021417001700171C1708170417181713C
:10094000C17101729621C160704700000179C9012F
:1009500042799201114382791143264A116001794B
:1009600001291AD0C17851608178E0221140214AD2
:100970009160417901292CD0C179D160017A11614E
:10098000417A5161817A9161C17AD161017B1162B1
:10099000417B5162817B91621BE0C178154A5160B5
:1009A000817891604178D1600178116141790129A4
:1009B0000FD0C1795161017A9161417AD161817A17
:1009C0001162C17A5162017B9162417BD162817B6C
:1009D000116308494039096804221140002904D0F4
:1009E0001221044A403A516003E00321014A403A8F
:1009F0005160704740640040012904D1026801231E
:100A00001A43026003E00268520852000260704715
:100A100010B50346002B03D0002904D0012902D0D1
:100A20000020C04310BD002A04D100249868801C17
:100A3000445416E0012A03D100209C68605410E061
:100A4000032A0BD100205C68605400245868001D04
:100A500044545868801C44540120E3E70020C043FC
:100A6000E0E70020DEE7000010B504465AE02E481B
:100A7000808C002808D12C48808C2B494039095C97
:100A80002948808C21543EE02748808C642802D17C
:100A900000212548818425480078322807DB64211D
:100AA0002348FFF764FB00202049087010BD1E4852
:100AB000808C1D494039085C002800D1F6E71A48AF
:100AC000808C19494039085C0A2814D11648808C5A
:100AD000095C1548808C21541348808C401C81B2DD
:100AE00011488184818C4038FFF741FB00200F4979
:100AF00008700120DAE70C48808C0B494039095C0A
:100B00000948808C21540848808C401C81B20648DA
:100B10008184818C4038FFF72AFB04480078401C10
:100B200002490870A3E7000070060020280000209A
:100B30009806002010B57D21C90010480068FFF715
:100B4000F9FA0446601E0E49884201D901200CE0E2
:100B5000601E0C4948610321081F01F05FFF00205F
:100B600008498861072008610020002801D000BFE3
:100B7000FEE70021481E01F051FF10BD00000020DB
:100B8000FFFFFF0000E000E001B5044900980860A5
:100B900000BF024800680028FBD108BD24000020E7
:100BA00010B50446002C01D1401E10BD2078F0285D
:100BB00012D16078B349896B88420DD16078B2490F
:100BC0000870A0780871E0788870AE49098F88B203
:100BD000032100F0BFFA15E02078F02812D16178E7
:100BE000A848C06B81420DD16078A7494870A178B0
:100BF000A5484171E178C170A249898F88B203216B
:100C000000F0A8FA2078F02812D160789F49896B0B
:100C100088420DD160789E490870A0780871E0780C
:100C200088709A49098F88B2032100F093FA27E16E
:100C30002078F02813D161789448C06B81420ED19E
:100C4000607893494870A17891484171E178C1700A
:100C50008E49898F88B2032100F07CFA10E1207858
:100C6000712823D160788749896B88421ED1207909
:100C70008849886008468068617909020843854987
:100C8000886008468068A179090408438149886022
:100C900008468068E179090608437E498860E07863
:100CA0002021084040117B490871E9E02078712833
:100CB00022D161787348C06B81421DD1217975487A
:100CC000C160C0686179090208437249C86008467A
:100CD000C068A179090408436E49C8600846C06825
:100CE000E179090608436B49C860E0782021084093
:100CF000411168484171C3E02078712823D16078A0
:100D00006249896B88421ED1207963498860084610
:100D100080686179090208435F49886008468068F5
:100D2000A179090408435C49886008468068E17934
:100D30000906084358498860E0782021084040119E
:100D4000554908719CE02078712822D161784F487C
:100D5000C06B81421DD121794F48C160C068617963
:100D6000090208434C49C8600846C068A1790904D3
:100D700008434949C8600846C068E1790906084344
:100D80004549C860E078202108404111424841713E
:100D900076E02078152808D160783A49896B884236
:100DA00003D101203B4988706AE02078152808D1DA
:100DB00061783448C06B814203D101213548C1704C
:100DC0005EE02078152808D160783049896B884228
:100DD00003D101203049887052E02078152808D1CD
:100DE00061782A48C06B814203D101212A48C17031
:100DF00046E0207878280ED160782249896B8842B5
:100E000009D1A078012806D1E078002803D101207B
:100E10002049087034E0207878280ED1617819488C
:100E2000C06B814209D1A078012806D1E078002862
:100E300003D101201749487022E0207878280ED18C
:100E400060781249896B884209D1A078012806D1BF
:100E5000E078002803D101200F49087010E02078C5
:100E600078280DD161780948C06B814208D1A078FB
:100E7000012805D1E078002802D1012006494870F8
:100E8000012092E67C05002070050020BC050020B2
:100E9000760500200C0700202007002070B50446CE
:100EA0000D46204600F06CFA002801D0002070BDED
:100EB000E0680101204610300B180FCB2E460FC6FC
:100EC000E168481C5021FFF735F9E1600120EEE7A9
:100ED000F0B585B00446192676018E4F7010039048
:100EE000F520800002900025002C02D1601E05B084
:100EF000F0BD89480078002806D1204601F0D9FDD0
:100F000001208549087002E183480078012826D134
:100F1000204601F0B5FC0546012D12D12068C068BD
:100F200021684968401A21680978BBB232460091AD
:100F300001900021204600F0C1FB02207649087094
:100F4000E5E0681C0028DED1204600F08DFD20463B
:100F500001F0AFFD002070490870401EC7E7A0688F
:100F6000007800280CD06C480078022808D10022B4
:100F70001146204600F028FA032067490870C6E0B1
:100F80006548007803280BD12068406B0023314668
:100F9000C26B204600F054FB04205F490870B6E0A5
:100FA0005D48007804281CD1A0688078002818D1FA
:100FB000A068008A5949884213DD2168098F88B2E8
:100FC000002100F0C7F82168098F88B2032100F0E2
:100FD000C1F8204601F06DFD00204F490870401E09
:100FE00085E7A0688078002816D04B480078042850
:100FF00012D17D20C000FFF7C7FD2068406B00685C
:1010000021684968421800233146204600F018FB49
:101010000520414908707AE03F48007805281CD136
:10102000A0688078002818D1A068008A3B498842CF
:1010300013DD2168098F88B2002100F08BF8216848
:10104000098F88B2032100F085F8204601F031FDB8
:10105000002031490870401E49E72F4800780528D4
:101060000AD1A0688078002806D0204601F021FD32
:101070000620294908704AE02748007806281ED132
:101080002046039A029901F07DFB0546012D0BD104
:101090000720214908702068406B00233146026810
:1010A000204600F0CDFA32E0681C00282FD12046FF
:1010B00001F0FFFC002018490870401E17E7164891
:1010C0000078072812D1A068807800280ED020462A
:1010D00001F0EFFCA0680079002803D10E490870E8
:1010E000012004E709200C49087010E00A48007844
:1010F00009280CD1204600F073FF002807D02046B5
:1011000001F0D7FC0020044908700120EFE6002020
:10111000EDE60000A20300001A060020B80B000054
:1011200070B504460D46204600F033F9002801D082
:10113000002070BDA0680101204610300818294623
:101140004EC94EC0A168481C5021FEF7F3FFA160B4
:101150000120EEE77CB505460C460020009001908A
:10116000104881786846017045708470032C0AD15C
:101170000C48817A684601700021817001220821A3
:1011800000F0EAF90CE0002C01D0012C05D101227D
:101190000821684600F0E0F902E00020C0437CBD71
:1011A0000020FCE72C000020F8B50246CD782F0780
:1011B0003F0FCD7810263540002D01D08D782F437C
:1011C0001446002011E085062B0E0D88012686406E
:1011D0003540002D07D025680F269E40B5433E467A
:1011E0009E4035432560451CE8B20828EBDB141D02
:1011F0000D882D120095002011E085062B0E01258B
:101200008540009E3540002D07D025680F269E4062
:10121000B5433E469E4035432560451CE8B208284C
:10122000EBDBCD78282D04D155690E883543556107
:1012300006E0CD78482D03D115690E883543156138
:10124000F8BD70B54D07EB0E082902DA05462035CA
:1012500001E0054624352C460F269E402568B543FF
:1012600016469E403543256070BD0246D068084052
:10127000002801D0012070470020FCE74161704741
:10128000016170470021C94301800221817004215E
:10129000C17070470146002901D1044804E04A1E8C
:1012A0005201024B5833D018704700004064004090
:1012B0001CB504460020009001900748417A68461A
:1012C0000170447004484179684601700122082188
:1012D00000F042F900201CBD2C00002008B50121BF
:1012E0000320400400F0D4FA6846FFF7CBFFF82152
:1012F000684601802821C17069460748FFF754FFFE
:101300000121C903684601802821C170694609206E
:10131000C006FFF749FF08BD0004004808B50121D9
:10132000880400F0B5FA0121480400F0B1FA6846DB
:10133000FFF7A8FF01214902684601800121817061
:101340001021C17069460D48FFF72EFF082168463D
:101350000180012181701021C17069460920C006F9
:10136000FFF722FF012149020448FFF789FF082106
:101370000920C006FFF784FF08BD000000040048F4
:101380000146CA688868904201D101207047002058
:10139000FCE710B50446A168481C5021FEF7CAFEC0
:1013A000E068814201D1012010BD0020FCE710B5AA
:1013B0000446E268A168891A084650305021FEF7B9
:1013C000B9FE084610BD00007CB506460D46144621
:1013D000002000900190002E03D0002D04D0012D9C
:1013E00002D00020C0437CBD11484178684601709E
:1013F00030683830A900415C684641700D4801787A
:10140000684681700B48008801126846C1700471FB
:101410002004010E684641712002010E6846817168
:10142000210EC1710122082100F096F80020DAE7B0
:101430002C0000203A0000207CB5044600200090DB
:10144000019043484078694608700025002C01D17E
:1014500000207CBD002577E0062100A80230FEF7C1
:1014600086FE20683830A900415C684641703948E2
:101470008178684681703748408801126846C1709B
:1014800020681030A900415C6846017101220821E2
:1014900000F062F82F48017A684681702D48008973
:1014A00001126846C17020681830A900415C684686
:1014B00001710122082100F04FF82648817A684620
:1014C00081702448408901126846C170206820302C
:1014D000A900415C684601710122082100F03CF836
:1014E0001C48817D684681701A48C08A011268468E
:1014F000C17020682830A900415C684601712068ED
:101500002830A900405A0004010E68464171206845
:101510002830A90040580002010E684681712068F9
:101520002830A9004058010E6846C17101220821E7
:1015300000F012F821683831AA00895A88B20321D4
:10154000FFF708FE681CC5B2022D85DB012080E78D
:101550002C0000203A000020F0B585B006460D466C
:101560001746002E01D0002D03D10020C04305B046
:10157000F0BD00BF20211548FFF7CAF80028F9D1B7
:1015800000BF10211148FFF7C3F80028F9D100BFB0
:1015900008210E48FFF7BCF80028F9D000976846EC
:1015A000457200200190002168460172002405E088
:1015B000315D02A802300155601CC4B2AC42F7D3C1
:1015C000684600F053FD0020D1E7000000640040B1
:1015D000FEB506460F4614461D46002000900190B9
:1015E000002E03D0002D04D0012D02D00020C043D6
:1015F000FEBD0021B06810306A0081520F48417B67
:101600006846017030683830A900415C6846417016
:1016100087703804010E6846C17004712004010E01
:10162000684641712002010E68468171210EC17128
:1016300001220821FFF790FF0020D9E72C000020AD
:10164000FEB506460F4615461C4600200090019048
:10165000002E03D0002C04D0012C02D00020C04367
:10166000FEBD0021B068103062008152A1B200229C
:101670003046FFF7CDF910480179684601703068AF
:101680003830A100415C6846417087703804010E13
:101690006846C17005712804010E68464171280230
:1016A000010E68468171290EC17101220821FFF7E0
:1016B00053FF00BFD4E700002C000020FFB583B02B
:1016C00005460C4617460D9E002D03D0002C05D074
:1016D000012C03D00020C04307B0F0BD01222146F9
:1016E0002846FFF795F90020019002900021A86894
:1016F0001030620081522E48417868460171286896
:101700003830A100415C684641712A4881786846BA
:1017100081712848408801126846C1710C99817214
:101720000122082101A8FFF717FF22480179684626
:1017300081712048808801126846C17106723004A8
:10174000010E684641723002010E68468172310E08
:10175000C1720122082101A8FFF7FEFE144801789A
:101760006846017187713804010E6846C171069898
:10177000C1B26846017206980112684641720021A2
:101780008172C1720122082101A8FFF7E5FE084815
:10179000C17A68460171012181710021C171017214
:1017A00041720122082101A8FFF7D6FE012093E72C
:1017B0002C0000203A000020F8B504460D461646DD
:1017C00068460470457086700121C17001F088F987
:1017D000F8BD00008178002925D0174903221202A4
:1017E0008918027892109200895802789207D30ED5
:1017F000FF229A40914342789207120E03789B078A
:10180000DB0E9A4011430C4A03231B02D2180378C3
:101810009B109B00D1500178CA06D20E0121914045
:10182000054A116007E00178CA06D20E01219140F5
:10183000014A80321160704700E100E010B50849AC
:10184000886BFFF735FD0649C86BFFF731FD054989
:10185000886BFFF72DFD0349C86BFFF729FD10BD0D
:101860007C050020BC05002010B500210648C1847D
:10187000818464210548FEF77AFC642102484038DF
:10188000FEF775FC10BD00007006002098060020D1
:10189000002905D0054A52690243044B5A6104E00D
:1018A000024A52698243014B5A617047001002405C
:1018B000002905D0054AD2690243044BDA6104E0ED
:1018C000024AD2698243014BDA617047001002403C
:1018D000002905D0054A92690243044B9A6104E04D
:1018E000024A92698243014B9A617047001002409C
:1018F00038B504460DA00068009000F051F8206053
:1019000000F01AF8606000F027F8A06000F036F8E8
:10191000E060074A5268074B1A4012096B46995C0F
:10192000E068FEF707FC206138BD000002040608ED
:10193000001002407040000010B500F031F804497A
:101940004968F02211400909024A515CC84010BDA3
:10195000001002401400002010B5FFF7EDFF05490C
:101960004968072212021140090A034A515CC84023
:1019700010BD0000001002401400002010B5FFF759
:10198000DBFF054949680722D2021140C90A034A10
:10199000515CC84010BD000000100240140000203F
:1019A000F8B51B4840680C210840042802D00828DC
:1019B00028D101E0174C27E01548406801210904AF
:1019C0000840002809D01248406849000840002813
:1019D00001D0114802E00F4800E0104807460C48CB
:1019E0000068800E451C0A48006807210905084068
:1019F000000D461C3946694308463146FEF79AFBFE
:101A0000044601E0034C00BF00BF2046F8BD0000C3
:101A10000010024000127A0000093D00001BB700D0
:101A20001FB50446002C02D1401E04B010BD052095
:101A300000022018016920468847002812D005209E
:101A4000000220186946426920469047684680791E
:101A5000042807DB01A80330FFF7A2F8002801D013
:101A60000120E2E70020E0E710B504462168098F75
:101A700088B20021FFF76EFB2168098F88B203212D
:101A8000FFF768FB2168898F88B20021FFF762FBAE
:101A90002168898F88B20321FFF75CFB002010BD0D
:101AA000FEB504460D4616461F46002C05D0002DF7
:101AB00003D0002E01D0002F02D10020C043FEBD74
:101AC0002878002809D109984242012320460A9922
:101AD000FFF77EFD0120287066E02878012831D1CB
:101AE000A168488AFEF74EFB0022304B019100901E
:101AF000FEF756FB26D80123002220460A99FFF75D
:101B000067FD30780F280DD12068406B317889004F
:101B1000405821684968421A002320460899FFF777
:101B20008FFD0CE02068406B3178890040582168B7
:101B300049684218002320460899FFF781FD0220DA
:101B4000287031E0287802280ED1A068807800281B
:101B50000AD020680123FF21563182682046FFF712
:101B60006FFD032028701FE02878032810D1A0689B
:101B7000C07800280CD02068406B3178890042582A
:101B8000002320460899FFF75BFD042028700BE036
:101B90002878042808D1A0688078002804D0002084
:101BA0002870012038708AE7002088E700C0624072
:101BB000FEB504460D4616461F46002C05D0002DE6
:101BC00003D0002E01D0002F02D10020C043FEBD63
:101BD0002878002808D101232046099A0A99FFF79E
:101BE000F7FC0120287092E02878012853D1A168E1
:101BF000488AFEF7C7FA0022464B01910090FEF793
:101C0000CFFA48D80123002220460A99FFF7E0FCCA
:101C100030780F2803D0A068007900282BD13078C5
:101C2000002811D1A068007900280DD12068406BF0
:101C300031788900405821684968421800232046BD
:101C40000899FFF7FDFC0CE02068406B31788900B3
:101C5000405821684968421A002320460899FFF736
:101C6000EFFC206801232C4982682046FFF7E8FC3E
:101C7000042028704BE02068406B31788900405880
:101C8000216849684218002320460899FFF7D8FCCC
:101C9000022028703BE0287802280DD1A0688078C7
:101CA000002809D0206801231B4982682046FFF7DD
:101CB000C7FC032028702AE02878042811D1A068E6
:101CC000C07800280DD0A168488AFEF75BFA002290
:101CD000104B01910090FEF763FA02D80320387090
:101CE00015E02878032812D1A068C07800280ED00B
:101CF000A168488AFEF746FA0022084B019100903D
:101D0000FEF74EFA03D80020287002203870002019
:101D10005DE7000000C062405502000000406040E6
:101D2000F8B504460D4616461F46002C05D0002D7A
:101D300003D0002E01D0002F02D10020C043F8BDF7
:101D40002878002810D12068416B3078401C800032
:101D50000A58002320460699FFF772FC3078401C91
:101D600030700120287025E02878012822D1A06851
:101D70008078002805D1A068408A7D210901884229
:101D800018DBA068408A7D21090188420FDBA0682A
:101D9000C07800280BD12168898F88B20021FFF715
:101DA000D9F92168898F88B20321FFF7D3F9002080
:101DB000287038700020C2E77FB505460C46012127
:101DC0000803FFF785FD684600F0FAF8042168462D
:101DD000017000214180082101710221417100211F
:101DE00081710181448101736946284600F0A2F89F
:101DF0000021284600F066F80121284600F062F82C
:101E00000121284600F08AF87FBD08B50121480469
:101E1000FFF73EFD002207210920C006FFF711FA57
:101E2000002204210920C006FFF70BFA0022062138
:101E30000920C006FFF705FA002205210920C00687
:101E4000FFF7FFF900F096FC6846FFF71BFA102138
:101E500068460180012181701821C17069460920FE
:101E6000C006FFF7A1F92021684601800121817099
:101E70001821C17069460920C006FFF795F9802135
:101E800068460180012181701821C17069460920CE
:101E9000C006FFF789F94021684601800121817061
:101EA0004821C17069460920C006FFF77DF908BDC9
:101EB00070B504460D46FFF7A8FF29462046FFF7F8
:101EC0007BFF70BD002906D0012909D002290CD062
:101ED000032914D10EE0826910231A4382610FE0B6
:101EE000826908231A4382610AE0826910239A43B7
:101EF000826105E0826908239A43826100E000BFA5
:101F000000BF7047002904D0826A520852008262E2
:101F100003E0826A01231A4382627047002904D0D9
:101F2000826901231A43826103E0826952085200E8
:101F3000826170474A880123DB029A4203D1826999
:101F40001A43826104E082690123DB029A438261C1
:101F5000826901239B029A430B891A438261826939
:101F600004239A430B781A438261C26904239A437B
:101F70000B7B1A43C261C26902239A434B791A430D
:101F8000C261C269520852008B791A43C261C269A8
:101F900008231A43C261026A120C12044B891A43C5
:101FA00002620A79202A04DBC26A52095201C26223
:101FB00005E0C26A520952010B791A43C2627047A6
:101FC000002101704180082101710021417101212E
:101FD000817100210181022141810021017370473B
:101FE000FEB506467D242401A510E127BF001C484C
:101FF0000078002806D001280ED0022816D0032829
:102000002AD11CE0164B174A174930460297019512
:102010000094FFF745FD1FE0114B124A124930466C
:10202000029701950094FFF7C3FD15E00C4B0D4A94
:102030000D49304601950094FFF772FE0CE0B06840
:102040000079002807D1064908700649087006493A
:1020500008700120FEBD00BF00BF0020FAE70000AD
:102060001706002018060020190600207FB5044638
:1020700000256068002811D02068C500012168464D
:10208000017105702804010E684641702802010E96
:1020900068468170280E6946C8700BE020884505A7
:1020A0000021684601712802010E68468170280EE1
:1020B0006946C870617A68468171217A417100264B
:1020C00006E020460A30815D01A803308155761C68
:1020D000082EF6D36846FEF739FC7FBD10B500F038
:1020E00001F810BD7FB500200390029059480068A8
:1020F0000121090408435749086000BF554800689A
:1021000001214904084002900398401C0390029862
:10211000002804D10521090203988842EED14D48D8
:102120000068012149040840002809D001200290DC
:102130007D252D0100BF28466D1E0028FBD101E042
:1021400000200290029801287ED14348434908604C
:102150004348006810210843414908600846006868
:10216000C008C00008603D490968481E3D49FDF7A8
:10217000E1FF04463A480068204339490860354881
:102180004068344948600846406848603348006801
:102190003549884207D92F48406801218902084300
:1021A0002C49486006E02B48406801218902084319
:1021B0002849486027484068032109048843254985
:1021C0004860084600680003000B08600846406845
:1021D0000121090408431F4948606B4601AA1F48B2
:1021E00001682248FEF7AEF81A4800680003000BA9
:1021F0001849086069460879800609780905084386
:102200001449096808431349086008460068012119
:10221000090608430F49086000BF0E480068012105
:10222000490608400028F8D00A4840688008800025
:10223000084948600846406802210843054948604B
:1022400000BF0448406800E003E00C210840082873
:10225000F7D17FBD0010024000D8B8050000002073
:102260000020024000366E010051250200127A0063
:1022700010B500F06DF910BD10B5164800680121C9
:10228000084314490860084640681349084011494A
:10229000486008460068114908400E490860084631
:1022A00000680121890488430A490860084640689B
:1022B000C321090488430749486008460068084963
:1022C0000840044908609F2000048860FFF706FF6B
:1022D00010BD0000001002400CC0FFF8FFFFF6FE2A
:1022E000FFFF8F0010B50121880700F0D9F8002802
:1022F00021D00121880700F0C3F802210E48FEF723
:10230000B4FF002804D002210B48FEF7B7FF03E01A
:1023100002210948FEF7B4FF01210748FEF7A5FF97
:10232000002804D001210448FEF7A8FF03E00121A2
:102330000148FEF7A5FF10BD0004004810B50121BB
:10234000204800F0ADF8002830D001211D4800F0F1
:1023500097F8012149021C48FEF787FF002805D0A5
:10236000012149021848FEF789FF04E001214902D2
:102370001548FEF785FF15484068401C1349486022
:102380001348008A401C124908820846408A401CB3
:1023900081B20F4841820F48008A401C0D490882D3
:1023A0000846408A401C81B20A48418210210A48EE
:1023B000FEF7AEF9002804D104480078401C034918
:1023C000087010BD000400400004004854000020C4
:1023D0000C07002020070020006400403EB50446A2
:1023E0000D4601210220FFF763FA684600F0A6F8C7
:1023F00001946846058000210181817281706946DF
:102400000A4800F065F80121084800F029F8012188
:10241000064800F031F801221146044800F04DF85A
:102420000121024800F030F83EBD000000040040E9
:1024300010B5084908480068FDF77CFE401E84B2CC
:1024400021460648FFF7CAFF012200211020FFF7AE
:10245000B3F910BD40420F0000000020E703000068
:10246000002904D0026880231A43026003E0026856
:1024700080239A430260704702698A430261704771
:1024800002698A4302617047002904D0026801236F
:102490001A43026003E0026852085200026070476B
:1024A000024610690840002805D0D068084000287E
:1024B00001D0012070470020FCE7002A03D0C36848
:1024C0000B43C36002E0C3688B43C36070470000E6
:1024D000026803231B029A430B891A430260134AC2
:1024E000904206D001229207904202D0104A9042B8
:1024F00005D1026870239A438B781A4302600B4A15
:10250000904205D00B4A904202D00B4A904205D12E
:10251000026B120A12028B7A1A4302634A68C26281
:102520000A8882620122426170470000002C01404B
:102530000004004000440140004801400021C9431C
:10254000416000210180018181708172704700002B
:1025500004480068002804D002480068401E014971
:10256000086070472400002010B50221184800F0D0
:10257000A0F800282AD00221154800F089F8154853
:10258000C08C642802D100211248C18418E011488F
:10259000C08C642802D100210E48C1840C4800F090
:1025A000D7F8C1B20B48C08C0A4A403A11540948C6
:1025B000C08C401C81B20748C1840748FEF754FA1A
:1025C0000221034800F06CF80028E0D110BD0000A3
:1025D00000380140700600209806002010B586B033
:1025E00004461B216846017003214170012181705E
:1025F000FFF7F0F801218803FFF76AF90121480489
:10260000FFF746F901220921C806FEF71AFE01224A
:102610000A210920C006FEF714FE01A800F09CF86C
:10262000019430216846018100214181818101822C
:102630001821C18101A9154800F04EF8012202219C
:10264000124800F03FF80121104800F023F805A8D7
:10265000FEF718FE01214902684681820121817539
:102660001821C17505A90920C006FEF79DFD0121AD
:102670008902684681820421C17505A90920C00626
:10268000FEF792FDFFF7F0F806B010BD00380140EC
:10269000416170478269520852000A438261704763
:1026A000024690680840002801D0012070470020B1
:1026B000FCE70246D0680840002801D0012070479E
:1026C0000020FCE7002A03D003690B43036102E00A
:1026D00003698B430361704770B504460D460026BD
:1026E000E0693021884329790843E061E0694421A9
:1026F0008843A9790843E061E06980088000297A6D
:102700000843E061A0691821884369890843A061F2
:10271000A06904218843297B0843A0610B488442B7
:1027200003D1FFF72BF9064602E0FFF715F906463D
:1027300030462968FDF7FEFC000920623046296812
:10274000FDF7F8FC0007000F606270BD0038014023
:1027500001464868C0B270474B21C9010160302171
:1027600001710021817101721821418100210173E1
:102770007047000010B500210148FFF7C3FB10BDF2
:102780000030014070B504460D46164639480078C1
:10279000002811D10123324629462046FEF718FFB2
:1027A000A0684079002803D00120324908705FE01A
:1027B0000320304908705BE02E480078012803D0E0
:1027C0002C480078022819D1A0684079002815D13A
:1027D0000123002229462046FEF7FAFE00220121AD
:1027E0002046FEF7F1FD2068012323498268204638
:1027F000FEF726FF04201F49087039E01D480078C5
:10280000042808D1A068C078002804D00020194905
:102810000870012070BD17480078032807D1A06810
:102820004079002824D002201249087020E0114885
:102830000021415600291BDDA068408A0F498842CB
:1028400016DB0123002229462046FEF7C1FE21683F
:10285000898F88B20021FEF77DFC2168898F88B2BC
:102860000321FEF777FC002002490870401ED1E7E3
:102870000020CFE71406002055020000B80B00002E
:10288000FEB50446FF262D36F527BF00192040016E
:1028900002903546002C01D1601EFEBD51480078E3
:1028A0000C2806D10020504908704E490870401E7F
:1028B000F3E74D48007800280FD12068C0682168F0
:1028C0000978ABB20091019000212046029AFEF7F0
:1028D000F5FE02204449087081E043480078022850
:1028E0001AD1A0680078002816D1A068008A7D213E
:1028F0000901884210DD2168098F88B20021FEF7A6
:1029000029FC2168098F88B20321FEF723FC0020EF
:10291000C0433549087062E033480078022811D17D
:10292000A068007800280DD0324639462046FFF7CF
:1029300029FF2D4908700846007800284FD1022051
:1029400008704CE0284900200856401C00280FD190
:102950000521C90120680078ABB2019100900021E7
:102960002046029AFEF7AAFE03201F49087036E0AF
:102970001D48007803280DD1A0680078002809D0F0
:1029800001239022D9022046FEF722FE0420164998
:10299000087024E014480078042815D1A068408A03
:1029A000FF21913188420FDD01230022D902204608
:1029B000FEF70EFE0B480078401C40B20949087033
:1029C0000020094908700AE007480078012806D16C
:1029D0000020054908700349087001205DE70020C8
:1029E0005BE7000016060020150600202021020CDF
:1029F00001D010211046020A01D010460839020900
:102A000001D01046091F820801D01046891E4208D5
:102A100001D0881E7047081A7047000010B50028C2
:102A200019DB1A4A03231B02D21883089B00D258D1
:102A30008307DC0EFF23A3409A438B071B0E8407FA
:102A4000E40EA3401A43114B032424021B198408EB
:102A5000A4001A5118E00E4A03071B0F083B9B08FD
:102A60009B00D2588307DC0EFF23A3409A438B07B9
:102A70001B0E8407E40EA3401A43054B0407240FE2
:102A8000083CA408A4001A5110BD000000E100E0B9
:102A90001CED00E002E008C8121F08C1002AFAD1AC
:102AA00070477047002001E001C1121F002AFBD1CE
:102AB000704710B50446012200212046FDF7A8FF0B
:102AC000012211462046FDF7A3FF002211462046B1
:102AD000FDF79EFF002201212046FDF799FF10BD62
:102AE000C178002925D017490322120289180278DB
:102AF00092109200895802789207D30EFF229A40D2
:102B0000914382789207120E03789B07DB0E9A405E
:102B100011430C4A03231B02D21803789B109B001D
:102B2000D1500178CA06D20E01219140054A1160A8
:102B300007E00178CA06D20E01219140014A803295
:102B40001160704700E100E0FDF7F4FFFEF7E6FBDF
:102B5000FEF7C4FBE1204002FFF740FDFFF768FCF1
:102B600020211848FFF7A4F91748FDF74DFD174835
:102B7000FEF762FC1648FEF75FFC21E0154800688E
:102B8000002804D11148FEF7A3F912490860114842
:102B90000068002808D010480088002804D10C489C
:102BA000FEF796F90C4908800C48FEF739FF0B48F0
:102BB00040681E2804D3FEF741FE00200749486004
:102BC000DCE700000030014040420F00FC0500201F
:102BD000080600202C0600202806002054000020B3
:102BE0006F110000421100003A1100009211000024
:102BF000BC1100007C11000083110000CB1100000B
:102C0000C1110000B9110000B41100009A110000B8
:102C10009C1100009111000077110000A811000024
:102C20000A000000780F0000CC1F0000E72F000012
:102C3000D73F0000C04F0000F05F0000BF6F0000F2
:102C4000B97F0000CA8F0000FD9F000025B0000082
:102C50001FC000005DD00000A9DF0000EAEF000007
:102C60006F110000421100003A11000092110000A3
:102C7000BC1100007C11000083110000CB1100008A
:102C8000C1110000B9110000B41100009A11000038
:102C90009C1100009111000077110000A8110000A4
:102CA0000A000000780F0000CC1F0000E72F000092
:102CB000D73F0000C04F0000F05F0000BF6F000072
:102CC000B97F0000CA8F0000FD9F000025B0000002
:102CD0001FC000005DD00000A9DF0000EAEF000087
:102CE000002D00080000002030060000EE02000861
:102CF000A42D00083006002008050000A42A0008C2
:102D00001184D8B805680901020304060708090CF4
:102D1000A91049140027FF070A8A717212767508F4
:102D200078730B018002800380048009800B800887
:102D3000800C8040804180010205800E8001FF01EF
:102D4000FF01FF01FF011513AF1314089D0E1408B6
:102D5000211102100823D007331201220C29072960
:102D600004815AFF04112C1068010413E02B14088D
:102D7000202C2A08249A02402DDDFFFFFF4001107D
:102D8000E9401A603C1AA00432033204137C051B8C
:102D9000207004130C071B20BC081A76041A200CA0
:042DA000011C000012
:04000005080000C12E
:00000001FF
