:020000040800F2
:10000000480B0020D900000805010008070100087E
:1000100000000000000000000000000000000000E0
:1000200000000000000000000000000009010008BE
:1000300000000000000000000B0100084527000838
:100040000F0100080F0100080F0100080F01000850
:100050000F0100080F0100080F0100080F01000840
:100060000F0100080F0100080F0100080F01000830
:100070000F0100080F0100080F010008B927000850
:100080001128000800000000000000000F01000817
:10009000000000000F0100080F0100080F01000818
:1000A000000000000F0100080F0100083D2A0008B1
:1000B0000F010008000000002907000800000000F0
:1000C0000448854600F0E2F8004800474530000843
:1000D000C046C046480B00200D4880F308880D48F4
:1000E0000D4901600D480168090E0D4A914205D184
:1000F0000C48094901600C480C4901600C488047D4
:100100000C480047FEE7FEE7FEE7FEE7FEE7FEE7F6
:10011000480B0020602002400100000004000000A5
:100120001F00000018100240000001400000000005
:100130004D270008C100000830B50B4601460020DD
:100140002022012409E00D46D5409D4205D31D46DD
:100150009540491B2546954040191546521E002DD5
:10016000F1DC30BDD2B201E00270401C491EFBD26E
:1001700070470022F6E710B513460A4604461946B2
:10018000FFF7F0FF204610BD0EB505490291002192
:1001900000910A460B46019100F025F803B000BD1E
:1001A0003304000010B5002904DB0124E4074042B9
:1001B0008C412146002B04DB1C460123DB07524205
:1001C000A341994200D1904210BD000010B5002B10
:1001D00008DA0024401C614192185B411A4301D1A6
:1001E0004008400010BDF0B51FB482B005460C00B9
:1001F00003D0084602F078FE02E002F075FE2030DF
:10020000024600902146284600F052F8049B059AC9
:1002100004460F4618431143084314D018461043B0
:100220001BD0009840210A1A1846059900F050F892
:1002300005460E46009A0599049800F039F80843DF
:1002400005D0012004E02046394607B0F0BD00206B
:10025000C11705430E432C43374300990E9863059D
:10026000401A7905E40A00220C43FD0A0A3002D53F
:1002700000200146E9E70105101969410C9C0D9D1C
:1002800000196941FFF7A2FFDFE70000064C0125D6
:10029000064E05E0E36807CC2B430C3C984710342E
:1002A000B442F7D3FFF710FFA4320008C4320008AD
:1002B00010B5202A04DB0146203A9140002010BDF1
:1002C000914020239C1A0346E3401943904010BDFF
:1002D00010B5202A04DB0846203AD040002110BD8A
:1002E0000B46D340D0402024A21A9140084319461F
:1002F00010BD70B58C180578401C6B075B0F01D1E1
:100300000378401C2A1106D10278401C03E00678CD
:100310000E70401C491C5B1EF9D12B0705D400232D
:10032000521E0DD40B70491CFAE70378401CCB1AFF
:10033000921C03E01D780D70491C5B1C521EF9D500
:10034000A142D8D3002070BDFFB583B00C46029403
:1003500000200190002726E000261CE0721C039973
:1003600051430846791CFFF7E7FE0546A54201D92F
:10037000281B00E0601B05460298A84204D902959C
:1003800005980670069807700298002802D101208F
:10039000019002E0761C402EE0D300BF01980028B7
:1003A00000D002E07F1C042FD6D300BF029807B014
:1003B000F0BDF7B584B005461646039601200290BD
:1003C00000200190002700BF002EFDD005980028D6
:1003D000FAD031460598FFF7AFFE07467F0819248B
:1003E00013E021463846FFF7A7FE6043381A019014
:1003F0000198002801D1029409E0039901988842EC
:1004000002D2019803900294641E032CE9D800BF25
:100410000020287038460299FFF78EFE401E687053
:100420000299C81E0321FFF787FEE8700298C01EDC
:10043000E978401A287107B0F0BD416808221143DD
:1004400041607047002100BFC168704741680422C5
:100450001143416070470000FFB586B00746002099
:100460000190384601F072F80446022107980840CE
:10047000002801D001200190002F36D03846F9170E
:10048000490F09184905090E0391F917490F091871
:10049000C910C900791AC9B2029103998800584954
:1004A000401800900198002808D0009800680122A8
:1004B00002998A4010430099086007E0009801689B
:1004C00001220298824091430098016003988000C5
:1004D0004B490C31401800900098006801220299A5
:1004E0008A4010430099086013E00198002808D062
:1004F0004348803800680821084341498039086032
:1005000007E03F4880380068082188433C4980392B
:100510000860019801282AD10798C007C00F002859
:1005200008D008980068C60009980068C500072030
:10053000054307E0089800884605099800884505A6
:1005400030480543300E20603002000E60603004F9
:10055000000EA060F0B2E060280E20612802000EBC
:1005600060612804000EA061E8B2E06145E00898EF
:1005700006680998056808980068401C0590099865
:100580000068401C04900798C007C00F00280ED0D8
:10059000F600ED000598C00005900498C000049096
:1005A0001948054318490498084304900DE076055E
:1005B0006D05059840050590049840050490114884
:1005C00005431049049808430490300E206030021F
:1005D000000E6060280E20612802000E6061059800
:1005E000000EA06005980002000EE0600498000E66
:1005F000A06104980002000EE0610AB0F0BD0000A6
:1006000080640040FFFF1F00FFFF000010B58EB0A8
:10061000044600F03FF801211C4800F0EFF980216A
:100620001A4800F0C7F805A801F0B8FB0AA800F0C6
:1006300081F922460AA80799FFF7BBFE002108A806
:100640008172817341730AA800F0C8F800200390FA
:100650000F48019001AB03AA02210020FFF7FCFE26
:100660000121084600F0AAF80121802000F0A6F838
:100670000121082000F0A2F80121402000F09EF89E
:100680000021024800F0BAF90EB010BD006400402D
:10069000FFFF00001CB50121480601F05FFB0121AE
:1006A000084601F06BFB0121480401F047FB01A85B
:1006B00000F044FF0121C902684681800121817157
:1006C0000421C17101A90920C00600F0C9FE012161
:1006D000090368468180012181711821C17101A936
:1006E0000920C00600F0BCFE04220C210920C0062F
:1006F00000F003FF04220B210920C00600F0FDFEDC
:100700001E2168460170002141700121817001F0B5
:10071000BFFA1CBD024690680840884201D1012002
:1007200070470020FCE7000070B51E48C46885686B
:1007300080202040002807D140202040002803D1FD
:1007400008202040002802D01648FFF77BFE022038
:100750002840002805D01348FFF76FFE1148FFF727
:1007600071FEE007C00F00280AD00F4800F07CF8A7
:100770000E480D4982690E48904700200C490870C8
:100780000121084600F01AF80121802000F016F837
:100790000121082000F012F80121402000F00EF89D
:1007A00070BD0000006400400007002054050020D8
:1007B00054000020C26F0A43C2677047002905D069
:1007C000054A12690243044B1A6104E0024A1269A5
:1007D0008243014B1A61704700640040017889012F
:1007E000427811431F4A91618178C901C278120190
:1007F0001143027911431B4AD1614179012906D184
:100800001146096802221143164A116005E0154994
:10081000096802229143134A11608179012906D1A6
:1008200010490968042211430E4A116005E00D4980
:100830000968042291430B4A1160C179012906D14C
:100840000849096810221143064A116005E005496C
:10085000096810229143034A1160024AC16851633A
:10086000704700000064004010B50346304800683F
:100870004004000E18712E4800684006C00F5871E1
:100880002B4800680007000F98711879012820D0C4
:1008900027488068440926484068C00004431C601B
:1008A0002348C068D87122480069187220484069FE
:1008B00058721F48806998721D48C069D8721C48D8
:1008C000006A18731A48406A58731948806A987306
:1008D00029E017480069F8210840C4081448C06896
:1008E00040010443124880684003044310484068B4
:1008F000400504431C600E484069D8710C4880696B
:1009000018720B48C06958720948006A9872084802
:10091000406AD8720648806A18730548C06A5873DE
:100920000348006B987302484038FFF78FFD10BDF5
:10093000406400400021417001700171C1708170FC
:1009400041718171C17101729621C16070470000CF
:100950000179C90142799201114382791143264AF2
:100960001160017901291AD0C17851608178E022A3
:100970001140214A9160417901292CD0C179D1607F
:10098000017A1161417A5161817A9161C17AD161B3
:10099000017B1162417B5162817B91621BE0C178D6
:1009A000154A5160817891604178D1600178116178
:1009B000417901290FD0C1795161017A9161417A60
:1009C000D161817A1162C17A5162017B9162417B6E
:1009D000D162817B116308494039096804221140C2
:1009E000002904D01221044A403A516003E0032157
:1009F000014A403A5160704740640040012904D1E7
:100A0000026801231A43026003E0026852085200A0
:100A10000260704710B50346002B03D0002904D0B4
:100A2000012902D00020C04310BD002A04D10024B7
:100A300098680B30445417E0012A04D100249868C8
:100A40000930445410E0032A0BD100205C68605444
:100A500000245868001D44545868801C44540120E8
:100A6000E2E70020C043DFE70020DDE7FEB50446F3
:100A70000D464B26360119277F017D20C0000290CC
:100A8000002D03DD102D01DC002C02D10020C0431D
:100A9000FEBDA068007A002820D1012D0DD120686C
:100AA000C16B681E800008582168496842180023FD
:100AB0003146204601F01CF80CE02068C16B681E2E
:100AC0008000085821684968421A002331462046B0
:100AD00001F00EF80120A168087216E1A068007A02
:100AE00001281DD1A068C07A002819D1A068008B08
:100AF0008749884214DD2168096C88B2002100F022
:100B000085FC2168096C88B2032100F07FFC00207D
:100B1000A1680872204602F04AFA0020C043B7E7F5
:100B2000A068007A012810D1A068C07A00280CD0F3
:100B30002068816840690A1801237649204600F040
:100B4000D7FF0220A1680872DFE0A068007A0228BF
:100B50001CD1A068007B002818D0A168488BFFF743
:100B600013FB00226C4B01910090FFF71BFB0DD88B
:100B70002068C16B681E80000A5800233146204659
:100B800000F0B6FF0320A1680872BEE0A068007AFA
:100B900003281DD1A068C07A002819D1A068008B55
:100BA0005B49884214DD2168096C88B2002100F09D
:100BB0002DFC2168096C88B2032100F027FC00207D
:100BC000A1680872204602F0F2F90020C0435FE7F6
:100BD000A068007A03280DD1A068C07A002809D047
:100BE00001233A462046029900F04AFF0420A168FA
:100BF00008728AE0A068007A042822D1A168488B94
:100C0000FFF7C2FA0022454B01910090FFF7CAFAA4
:100C100017D20520A16808720123002220460299FC
:100C200000F02EFF21684031898888B2002100F051
:100C3000EDFB21684031898888B2032100F0E6FB92
:100C400063E0A068007A052824D1012D0FD1206827
:100C5000C16B681E8000085821684968421800234B
:100C60003046C83001B2204600F042FF0EE0206856
:100C7000C16B681E8000085821684968421A002329
:100C80003046C83001B2204600F032FF0620A1688D
:100C900008723AE0A068007A06281BD1A068C07AE2
:100CA000002817D0A168088BFFF76EFA00221C4BB2
:100CB00001910090FFF776FA0CD8206881684069AE
:100CC0000A1801231349204600F012FF0720A168EB
:100CD00008721AE0A068007A072816D1A068007B85
:100CE000002812D0A168488BFFF74EFA00220C4B67
:100CF00001910090FFF756FA07D80020A16808720A
:100D0000204602F054F90120C2E60020C0E60000AF
:100D100070170000550200000000594000C07240EA
:100D20000000694010B504465AE02E48808C002827
:100D300008D12C48808C2B494039095C2948808C8B
:100D400021543EE02748808C642802D100212548A8
:100D5000818425480078322807DB64212348FFF787
:100D600008FA00202049087010BD1E48808C1D49DB
:100D70004039085C002800D1F6E71A48808C1949F0
:100D80004039085C0A2814D11648808C095C154843
:100D9000808C21541348808C401C81B2114881847E
:100DA000818C4038FFF7E5F900200F4908700120D9
:100DB000DAE70C48808C0B494039095C0948808C83
:100DC00021540848808C401C81B206488184818C63
:100DD0004038FFF7CEF904480078401C02490870FB
:100DE000A3E7000074060020280000209C060020D5
:100DF00010B57D21C90010480068FFF79DF9044631
:100E0000601E0E49884201D901200CE0601E0C4989
:100E100048610321081F02F07FF80020084988611B
:100E2000072008610020002801D000BFFEE7002154
:100E3000481E02F071F810BD00000020FFFFFF0007
:100E400000E000E010B50446002C01D1401E10BDAA
:100E50002078F02812D16078B449096C88420DD10D
:100E60006078B3490870A0780871E0788870AF495D
:100E7000096C88B2032100F0C9FA16E02078F02846
:100E800013D16178A948406C81420ED16078A8499D
:100E90004870A178A6484171E178C170A3494031FA
:100EA000898888B2032100F0B1FA2078F02812D1A5
:100EB0006078A049096C88420DD160789E4908701D
:100EC000A0780871E07888709A49096C88B203218B
:100ED00000F09CFA28E12078F02814D16178954838
:100EE000406C81420FD1607893494870A178924854
:100EF0004171E178C1708F494031898888B20321FE
:100F000000F084FA10E12078712823D160788749B5
:100F1000096C88421ED12079884908610846006919
:100F20006179090208438549086108460069A17989
:100F3000090408438149086108460069E179090606
:100F400008437E490861E0782021084040117B4930
:100F50004873E9E02078712822D161787348406CA9
:100F600081421DD121797548416140696179090249
:100F700008437249486108464069A1790904084359
:100F80006E49486108464069E179090608436B49A2
:100F90004861E07820210840411168488173C3E02E
:100FA0002078712823D160786249096C88421ED16B
:100FB000207963490861084600696179090208439C
:100FC0005F49086108460069A179090408435C4942
:100FD000086108460069E179090608435849086133
:100FE000E078202108404011554948739CE0207862
:100FF000712822D161784F48406C81421DD12179FE
:101000004F48416140696179090208434C49486190
:1010100008464069A17909040843494948610846DE
:101020004069E1790906084345494861E078202193
:10103000084041114248817376E02078152808D194
:1010400060783A49096C884203D101203B49C87253
:101050006AE02078152808D161783448406C8142D4
:1010600003D10121354801735EE02078152808D1AD
:1010700060783049096C884203D101203049C87238
:1010800052E02078152808D161782A48406C8142C6
:1010900003D101212A48017346E0207878280ED137
:1010A00060782249096C884209D1A078012806D1CC
:1010B000E078002803D101202049487234E02078EC
:1010C00078280ED161781948406C814209D1A07806
:1010D000012806D1E078002803D101211748817248
:1010E00022E0207878280ED160781249096C884275
:1010F00009D1A078012806D1E078002803D1012089
:101100000F49487210E0207878280DD1617809489D
:10111000406C814208D1A078012805D1E0780028F0
:1011200002D1012106488172012090E67C05002051
:1011300070050020C405002076050020100700205F
:101140002C07002070B504460D46204600F060FBD9
:10115000002801D0002070BDE06801012046103059
:101160000B180FCB2E460FC6E168481C5021FEF726
:10117000E3FFE1600120EEE7F0B585B004461926F3
:1011800076019348049070100390F520800002903F
:1011900000250027002C02D1601E05B0F0BDA0681C
:1011A0000078002806D1204601F001FF0120A16847
:1011B00008700BE1A0680078012827D1204601F0D3
:1011C000E3FD0546012D13D12068C06821684968F8
:1011D000401A2168097800910190049883B2324640
:1011E0000021204600F0C2FC0220A1680870EDE05A
:1011F000681C0028DDD1204600F08CFE204601F05E
:10120000D6FE0020A1680870401EC6E7A068407A9C
:1012100000280CD0A0680078022808D100221146CE
:10122000204600F019FB0320A1680870CEE0A068FA
:10123000007803280BD12068C06B00233146C26BB5
:10124000204600F055FC0420A1680870BEE0A068AC
:10125000007804281CD1A068C07A002818D1A068A2
:10126000008B5C49884213DD2168096C88B200213B
:1012700000F0CCF82168096C88B2032100F0C6F8B0
:10128000204601F094FE0020A1680870401E84E70B
:10129000A068C07A002812D0A068007804280ED177
:1012A0002068C06B006821684968421800233146F5
:1012B000204600F01DFC0520A168087086E0A068AB
:1012C000007805281CD1A068C07A002818D1A06831
:1012D000008B4049884213DD2168096C88B20021E7
:1012E00000F094F82168096C88B2032100F08EF8B0
:1012F000204601F05CFE0020A1680870401E4CE70B
:10130000A068007805280AD1A068C07A002806D015
:10131000204601F04CFE0620A168087056E0A06847
:10132000007806281ED12046039A029901F094FC09
:101330000546012D0BD10720A16808702068C06BFD
:10134000002331460268204600F0D2FB3EE0681CD4
:1013500000283BD1204601F02AFE0020A168087039
:10136000401E1AE7A0680078072812D1A068C07A4A
:1013700000280ED0204601F01AFEA068407B00280D
:1013800003D1A1680870012007E70920A16808704F
:101390001CE0A0680078092818D1204601F096F8D2
:1013A0000746012F07D1204601F001FE0020A16869
:1013B00008700120F1E6781C002807D1204601F0D2
:1013C000F6FD0020A1680870401EE6E60020E4E675
:1013D000A2030000B80B000070B504460D4620467D
:1013E00000F01FFA002801D0002070BDA0680101A4
:1013F00020461030081829464EC94EC0A168481C26
:101400005021FEF799FEA1600120EEE77CB505466C
:101410000C460020009001901048817868460170C9
:1014200045708470032C0AD10C48817A684601709B
:10143000002181700122082100F0E6FA0CE0002C66
:1014400001D0012C05D101220821684600F0DCFA08
:1014500002E00020C0437CBD0020FCE72C000020FF
:10146000F8B50246CD782F073F0FCD7810263540CE
:10147000002D01D08D782F431446002011E0850601
:101480002B0E0D88012686403540002D07D025689B
:101490000F269E40B5433E469E4035432560451C81
:1014A000E8B20828EBDB141D0D882D1200950020F2
:1014B00011E085062B0E01258540009E3540002D4C
:1014C00007D025680F269E40B5433E469E403543D3
:1014D0002560451CE8B20828EBDBCD78282D04D127
:1014E00055690E883543556106E0CD78482D03D106
:1014F00015690E8835431561F8BD70B54D07EB0EC3
:10150000082902DA0546203501E0054624352C4637
:101510000F269E402568B54316469E4035432560FC
:1015200070BD0246D0680840002801D001207047F5
:101530000020FCE741617047016170470021C94309
:101540000180022181700421C17070470146002989
:1015500001D1044804E04A1E5201024B5833D0180E
:1015600070470000406400401CB504460020009015
:1015700001900748417A68460170447004484179F7
:10158000684601700122082100F03EFA00201CBDCF
:101590002C00002008B501210320400400F0CEFB00
:1015A0006846FFF7CBFFF821684601802821C1700B
:1015B00069460748FFF754FF0121C90368460180C7
:1015C0002821C17069460920C006FFF749FF08BD00
:1015D00000040048FEB504460D4619267601771032
:1015E000E12080000290002D03DD102D01DC002C95
:1015F00002D10020C043FEBDA068C07900280DD1F3
:101600002068C16B681E80000A58002331462046BE
:1016100000F06EFA0120A168C871BCE0A068C07932
:10162000012812D1A068C07A00280ED0A068008BD3
:101630005A49884209DA7A4201232046029900F089
:101640001FFA0220A168C871A5E0A068C07901282E
:101650001DD1A068C07A002819D1A068008B4F491D
:10166000884214DD2168096C88B20021FFF7CEFEA4
:101670002168096C88B20321FFF7C8FE0020A16829
:10168000C871204601F093FC0020C043B3E7A06876
:10169000C079022822D1A168488BFEF775FD00228F
:1016A0003F4B01910090FEF77DFD17D201230022F0
:1016B0002046029900F0E4F921684031898888B217
:1016C0000021FFF7A3FE21684031898888B20321F9
:1016D000FFF79CFE0320A168C8715CE0A068C07998
:1016E000032824D1012D0FD12068C16B681E800012
:1016F000085821684968421800233046C83001B2B2
:10170000204600F0F5F90EE02068C16B681E8000ED
:10171000085821684968421A00233046C83001B28F
:10172000204600F0E5F90420A168C87133E0A06804
:10173000C079042817D1A168088BFEF725FD002287
:10174000184B01910090FEF72DFD0CD220688168A6
:1017500040690A1801231449204600F0C9F9052000
:10176000A168C87117E0A068C079052813D1A068E6
:10177000007B00280FD0A168488BFEF705FD0022F2
:10178000084B01910090FEF70DFD04D20020A168E6
:10179000C87101202FE700202DE70000701700001E
:1017A00000C07240000059405502000008B50121F8
:1017B000880400F0C3FA0121480400F0BFFA68462B
:1017C000FFF7BCFE012149026846018001218170BA
:1017D0001021C17069460D48FFF742FE0821684696
:1017E0000180012181701021C17069460920C00665
:1017F000FFF736FE012149020448FFF79DFE08214C
:101800000920C006FFF798FE08BD0000000400484C
:101810000146CA688868904201D1012070470020C3
:10182000FCE710B50446A168481C5021FEF784FC73
:10183000E068814201D1012010BD0020FCE710B515
:101840000446E268A168891A084650305021FEF724
:1018500073FC084610BD00007CB506460D461446D4
:10186000002000900190002E03D0002D04D0012D07
:1018700002D00020C0437CBD114841786846017009
:1018800030684030A900415C684641700D480178DD
:10189000684681700B48008801126846C170047167
:1018A0002004010E684641712002010E68468171D4
:1018B000210EC1710122082100F0A6F80020DAE70C
:1018C0002C0000203A0000207CB504460020009047
:1018D00001904B484078694608700025002C01D1E2
:1018E00000207CBD002586E0062100A80230FEF71E
:1018F00040FC20684030A900415C68464170414886
:10190000017E684681703F48008B01126846C170B5
:10191000022101710122082100F076F8394881780E
:10192000684681703748408801126846C170206857
:101930001830A900415C684601710122082100F0BD
:1019400063F83048017A684681702E480089011298
:101950006846C17020682030A900415C684601716A
:101960000122082100F050F82648817A68468170EB
:101970002448408901126846C17020682830A900B7
:10198000415C684601710122082100F03DF81D48C4
:10199000817D684681701B48C08A01126846C1700B
:1019A00020683030A900415C684601712068303001
:1019B000A900405A0004010E684641712068303089
:1019C000A90040580002010E68468171206830303D
:1019D000A9004058010E6846C1710122082100F09B
:1019E00013F821684031AA00895A88B20321FFF711
:1019F0000DFD681CC5B2022D00DA75E7012070E705
:101A00002C0000203A000020F0B585B006460D46B7
:101A10001746002E01D0002D03D10020C04305B091
:101A2000F0BD00BF20211548FEF774FE0028F9D153
:101A300000BF10211148FEF76DFE0028F9D100BF4C
:101A400008210E48FEF766FE0028F9D00097684688
:101A5000457200200190002168460172002405E0D3
:101A6000315D02A802300155601CC4B2AC42F7D30C
:101A7000684600F065FD0020D1E7000000640040EA
:101A8000FEB506460F4614461D4600200090019004
:101A9000002E03D0002D04D0012D02D00020C04321
:101AA000FEBD0021B06818306A0081520F48417BAA
:101AB0006846017030684030A900415C684641705A
:101AC00087703804010E6846C17004712004010E4D
:101AD000684641712002010E68468171210EC17174
:101AE00001220821FFF790FF0020D9E72C000020F9
:101AF000FEB506460F4615461C4600200090019094
:101B0000002E03D0002C04D0012C02D00020C043B2
:101B1000FEBD0021B068183062008152A1B20022DF
:101B20003046FEF777FF104801796846017030684B
:101B30004030A100415C6846417087703804010E56
:101B40006846C17005712804010E6846417128027B
:101B5000010E68468171290EC17101220821FFF72B
:101B600053FF00BFD4E700002C000020FFB583B076
:101B700005460C4617460D9E002D03D0002C05D0BF
:101B8000012C03D00020C04307B0F0BD0122214644
:101B90002846FEF73FFF0020019002900021A86830
:101BA00018306200815231484178684601712868D6
:101BB0004030A100415C684641712D4881786846FB
:101BC00081712B48408801126846C171286818301D
:101BD000A100415C684601720C99817201220821C2
:101BE00001A8FFF711FF224801796846817120485A
:101BF000808801126846C17106723004010E684681
:101C000041723002010E68468172310EC1720122AA
:101C1000082101A8FFF7F8FE144801786846017111
:101C200087713804010E6846C1710698C1B26846D2
:101C30000172069801126846417200218172C172D8
:101C40000122082101A8FFF7DFFE0848C17A684693
:101C50000171012181710021C17101724172012262
:101C6000082101A8FFF7D0FE01208DE72C000020FD
:101C70003A000020F8B504460D4616466846047042
:101C8000457086700121C17001F0A8F9F8BD00000F
:101C90008178002925D01749032212028918027879
:101CA00092109200895802789207D30EFF229A4030
:101CB000914342789207120E03789B07DB0E9A40FD
:101CC00011430C4A03231B02D21803789B109B007C
:101CD000D1500178CA06D20E01219140054A116007
:101CE00007E00178CA06D20E01219140014A8032F4
:101CF0001160704700E100E010B50449086CFFF77F
:101D000033FC0349086CFFF72FFC10BD7C05002055
:101D1000C405002010B500210648C18481846421D7
:101D20000548FEF726FA642102484038FEF721FAFA
:101D300010BD0000740600209C060020002905D07C
:101D4000054A52690243044B5A6104E0024A52694F
:101D50008243014B5A61704700100240002905D0B0
:101D6000054AD2690243044BDA6104E0024AD269AF
:101D70008243014BDA61704700100240002905D010
:101D8000054A92690243044B9A6104E0024A92694F
:101D90008243014B9A6170470010024038B50446F7
:101DA0000DA00068009000F051F8206000F01AF8D3
:101DB000606000F027F8A06000F036F8E060074AA5
:101DC0005268074B1A4012096B46995CE068FEF7AF
:101DD000B3F9206138BD000002040608001002407B
:101DE0007040000010B500F031F804494968F02255
:101DF00011400909024A515CC84010BD0010024060
:101E00001400002010B5FFF7EDFF054949680722CF
:101E100012021140090A034A515CC84010BD00007B
:101E2000001002401400002010B5FFF7DBFF054949
:101E300049680722D2021140C90A034A515CC840CE
:101E400010BD00000010024014000020F8B51B482F
:101E500040680C210840042802D0082828D101E05D
:101E6000174C27E015484068012109040840002864
:101E700009D01248406849000840002801D01148A4
:101E800002E00F4800E0104807460C480068800E4A
:101E9000451C0A480068072109050840000D461C3A
:101EA0003946694308463146FEF746F9044601E0E3
:101EB000034C00BF00BF2046F8BD000000100240E8
:101EC00000127A0000093D00001BB7001FB5044650
:101ED000002C02D1401E04B010BD052000022018C5
:101EE000016920468847002812D0052000022018EA
:101EF000694642692046904768468079042807DB96
:101F000001A80330FEF79EFF002801D00120E2E780
:101F10000020E0E710B504462168096C88B2002172
:101F2000FFF774FA2168096C88B20321FFF76EFA93
:101F300021684031898888B20021FFF767FA21685B
:101F40004031898888B20321FFF760FA002010BD74
:101F5000FEB504460F4615461E46002C01D1401E14
:101F6000FEBDA0688079002809D16A42012331466C
:101F70002046FFF785FD0120A168887178E0A06800
:101F80008079012837D1A168488BFEF7FDF800223F
:101F9000384B01910090FEF705F92CD8012300225F
:101FA00031462046FFF76CFDA06840790F280FD11D
:101FB0002068C06B0523A168CB5699004058216862
:101FC0004968421A002339462046FFF791FD0EE08A
:101FD0002068C06B0523A168CB5699004058216842
:101FE00049684218002339462046FFF781FD022048
:101FF000A16888713CE0A0688079022811D1A068AE
:10200000C07A00280DD02068816840690A18012331
:10201000FF2156312046FFF76BFD0320A168887130
:1020200026E0A0688079032813D1A068007B0028EF
:102030000FD02068C06B0523A168CB569900425889
:10204000002339462046FFF753FD0420A16888711C
:102050000EE0A068807904280AD1A068C07A002820
:1020600006D00020A16888710120A168087177E777
:10207000002075E700806640FFB581B004461F462A
:10208000002C02D1401E05B0F0BDA0688079002868
:1020900009D1012339462046039AFFF7F1FC0120BC
:1020A000A1688871A5E0A068807901285ED1A16847
:1020B000488BFEF769F8054600224F4BFEF772F891
:1020C00054D80123002239462046FFF7D9FCA068E6
:1020D00040790F2803D0A068407B002833D1A06846
:1020E0004079002813D1A068407B00280FD12068D8
:1020F000C06B0523A168CB569900405821684968F8
:102100004218002320460299FFF7F2FC0EE02068F7
:10211000C06B0523A168CB569900405821684968D7
:10212000421A002320460299FFF7E2FC20688168EA
:1021300040690A18012331492046FFF7D9FC0420E1
:10214000A168887155E02068C06B0523A168CB5653
:102150009900405821684968421800232046029996
:10216000FFF7C6FC0220A168887142E0A068807970
:10217000022810D1A068C07A00280CD0206881689D
:1021800040690A1801231D492046FFF7B1FC0320CE
:10219000A16888712DE0A0688079042811D1A06819
:1021A000007B00280DD0A168488BFDF7EDFF0546A8
:1021B0000022114BFDF7F6FF03D80320A168087138
:1021C00017E0A0688079032813D1A068007B00285D
:1021D0000FD0A168488BFDF7D7FF05460022084BBA
:1021E000FDF7E0FF05D80020A16888710220A168F2
:1021F0000871002047E7000000806640550200009B
:1022000000C0624070B504460D461646002C01D150
:10221000401E70BDA0688079002816D12068C16B6F
:102220000520A3681856401C80000A580023294640
:102230002046FFF75DFCA0684079401C40B2A168D1
:1022400048710120A16888712AE0A068807901287E
:1022500026D1A068C07A002805D1A068408B7D21D6
:10226000090188421CDBA068408B7D21090188425E
:1022700011DBA068007B00280DD1216840318988DE
:1022800088B20021FFF7C2F821684031898888B2FE
:102290000321FFF7BBF80020A1688871A1680871CD
:1022A0000020B6E77FB505460C4601210803FFF77D
:1022B00065FD684600F0FAF80421684601700021C7
:1022C0004180082101710221417100218171018148
:1022D000448101736946284600F0A2F8002128468F
:1022E00000F066F80121284600F062F80121284636
:1022F00000F08AF87FBD08B501214804FFF71EFDF4
:10230000002207210920C006FFF7F7F80022042168
:102310000920C006FFF7F1F8002206210920C006B7
:10232000FFF7EBF8002205210920C006FFF7E5F8CA
:1023300000F08AFC6846FFF701F910216846018029
:10234000012181701821C17069460920C006FFF77C
:1023500087F8202168460180012181701821C17011
:1023600069460920C006FFF77BF880216846018096
:10237000012181701821C17069460920C006FFF74C
:102380006FF8402168460180012181704821C170A9
:1023900069460920C006FFF763F808BD70B504461A
:1023A0000D46FFF7A8FF29462046FFF77BFF70BDCB
:1023B000002906D0012909D002290CD0032914D103
:1023C0000EE0826910231A4382610FE082690823BC
:1023D0001A4382610AE0826910239A43826105E010
:1023E000826908239A43826100E000BF00BF704702
:1023F000002904D0826A52085200826203E0826A95
:1024000001231A4382627047002904D082690123A4
:102410001A43826103E08269520852008261704768
:102420004A880123DB029A4203D182691A438261FE
:1024300004E082690123DB029A43826182690123FD
:102440009B029A430B891A438261826904239A434F
:102450000B781A438261C26904239A430B7B1A43A7
:10246000C261C26902239A434B791A43C261C269AD
:10247000520852008B791A43C261C26908231A4379
:10248000C261026A120C12044B891A4302620A7971
:10249000202A04DBC26A52095201C26205E0C26A04
:1024A000520952010B791A43C26270470021017030
:1024B00041800821017100214171012181710021B8
:1024C000018102214181002101737047F8B5044662
:1024D0007D252D01AE10E127BF000421A0684156E3
:1024E000002906D001290BD0022910D0032924D1BC
:1024F00013E03B46324629462046FFF729FD1CE003
:102500003B46324629462046FFF7B6FD15E03246E7
:1025100029462046FFF776FE0FE00020A1680871EB
:10252000A1684871A1688871A068407B002801D12A
:102530000120F8BD0020C043FBE700BF0020F8E702
:102540007FB5044600256068002811D02068C500CA
:1025500001216846017105702804010E684641702A
:102560002802010E68468170280E6946C8700BE08B
:10257000208845050021684601712802010E684641
:102580008170280E6946C870617A68468171217A27
:102590004171002606E020460A30815D01A8033023
:1025A0008155761C082EF6D36846FEF7D1F97FBD1B
:1025B00010B500F001F810BD7FB500200390029027
:1025C000594800680121090408435749086000BFC1
:1025D0005548006801214904084002900398401CB6
:1025E00003900298002804D105210902039888422B
:1025F000EED14D480068012149040840002809D067
:10260000012002907D252D0100BF28466D1E002867
:10261000FBD101E000200290029801287ED14348BE
:102620004349086043480068102108434149086055
:1026300008460068C008C00008603D490968481E97
:102640003D49FDF779FD04463A4800682043394981
:10265000086035484068344948600846406848602A
:10266000334800683549884207D92F48406801211E
:10267000890208432C49486006E02B484068012144
:102680008902084328494860274840680321090413
:10269000884325494860084600680003000B08602D
:1026A000084640680121090408431F4948606B46F9
:1026B00001AA1F4801682248FDF746FE1A48006833
:1026C0000003000B184908606946087980060978FC
:1026D0000905084314490968084313490860084676
:1026E00000680121090608430F49086000BF0E4831
:1026F00000680121490608400028F8D00A484068CF
:102700008008800008494860084640680221084364
:102710000549486000BF0448406800E003E00C2120
:1027200008400828F7D17FBD0010024000D8B80546
:10273000000000200020024000366E0100512502FA
:1027400000127A0010B500F06DF910BD10B51648F2
:10275000006801210843144908600846406813498D
:1027600008401149486008460068114908400E4970
:102770000860084600680121890488430A49086006
:1027800008464068C3210904884307494860084651
:10279000006808490840044908609F2000048860D8
:1027A000FFF706FF10BD0000001002400CC0FFF84C
:1027B000FFFFF6FEFFFF8F0010B50121880700F034
:1027C000D9F8002821D00121880700F0C3F80221A0
:1027D0000E48FEF7A6FE002804D002210B48FEF7A3
:1027E000A9FE03E002210948FEF7A6FE01210748E1
:1027F000FEF797FE002804D001210448FEF79AFE58
:1028000003E001210148FEF797FE10BD00040048D7
:1028100010B50121204800F0ADF8002830D001218A
:102820001D4800F097F8012149021C48FEF779FE87
:10283000002805D0012149021848FEF77BFE04E07C
:10284000012149021548FEF777FE15484068401CF3
:10285000134948601348008B401C124908830846FE
:10286000408B401C81B20F4841830F48008B401CB5
:102870000D4908830846408B401C81B20A484183B9
:1028800010210A48FDF746FF002804D104480078CB
:10289000401C0349087010BD0004004000040048BB
:1028A00054000020100700202C0700200064004086
:1028B0003EB504460D4601210220FFF74FFA684657
:1028C00000F0A6F80194684605800021018181721C
:1028D000817069460A4800F065F80121084800F057
:1028E00029F80121064800F031F801221146044878
:1028F00000F04DF80121024800F030F83EBD000024
:102900000004004010B5084908480068FDF714FCB1
:10291000401E84B221460648FFF7CAFF012200216B
:102920001020FFF7A7F910BD40420F000000002063
:10293000E7030000002904D0026880231A430260E4
:1029400003E0026880239A430260704702698A4369
:102950000261704702698A4302617047002904D00E
:10296000026801231A43026003E002685208520021
:1029700002607047024610690840002805D0D06800
:102980000840002801D0012070470020FCE7002A01
:1029900003D0C3680B43C36002E0C3688B43C360CA
:1029A00070470000026803231B029A430B891A43F5
:1029B0000260134A904206D001229207904202D050
:1029C000104A904205D1026870239A438B781A43CB
:1029D00002600B4A904205D00B4A904202D00B4A4B
:1029E000904205D1026B120A12028B7A1A430263DB
:1029F0004A68C2620A88826201224261704700000E
:102A0000002C014000040040004401400048014007
:102A10000021C943416000210180018181708172E0
:102A20007047000004480068002804D0024800688D
:102A3000401E0149086070472400002010B50221A3
:102A4000184800F0A0F800282AD00221154800F00C
:102A500089F81548C08C642802D100211248C1842D
:102A600018E01148C08C642802D100210E48C184AE
:102A70000C4800F0D7F8C1B20B48C08C0A4A403A63
:102A800011540948C08C401C81B20748C1840748D2
:102A9000FEF748F90221034800F06CF80028E0D165
:102AA00010BD000000380140740600209C06002084
:102AB00010B586B004461B216846017003214170A1
:102AC00001218170FFF7E4F801218803FFF756F92F
:102AD00001214804FFF732F901220921C806FEF757
:102AE0000CFD01220A210920C006FEF706FD01A8FF
:102AF00000F09CF801943021684601810021418159
:102B0000818101821821C18101A9154800F04EF888
:102B100001220221124800F03FF80121104800F084
:102B200023F805A8FEF70AFD0121490268468182C3
:102B3000012181751821C17505A90920C006FEF77C
:102B40008FFC01218902684681820421C17505A993
:102B50000920C006FEF784FCFFF7DCF806B010BDC4
:102B600000380140416170478269520852000A43AF
:102B700082617047024690680840002801D0012019
:102B800070470020FCE70246D0680840002801D0CA
:102B9000012070470020FCE7002A03D003690B43A3
:102BA000036102E003698B430361704770B504461B
:102BB0000D460026E0693021884329790843E06109
:102BC000E06944218843A9790843E061E06980080D
:102BD0008000297A0843E061A06918218843698947
:102BE0000843A061A06904218843297B0843A061B0
:102BF0000B48844203D1FFF717F9064602E0FFF7BE
:102C000001F9064630462968FDF796FA0009206268
:102C100030462968FDF790FA0007000F606270BD2A
:102C20000038014001464868C0B270474B21C901D5
:102C300001603021017100218171017218214181EF
:102C4000002101737047000010B500210148FFF713
:102C5000CFFB10BD003001407CB504460D46164642
:102C6000002C01D1401E7CBDA068C07800280FD187
:102C70002068806821684978ABB232B20091019037
:102C800001212046FEF772FF0120A168C87077E09D
:102C9000A068807A00281CD10321A0684156002931
:102CA00017DDA068408B3749884212DB216840312C
:102CB000898888B20021FEF7A9FB21684031898804
:102CC00088B20321FEF7A2FB0020A168C870401E55
:102CD000C9E7A068807A002813D0A068C0780128CE
:102CE0000FD12068806821684978ABB232B2009178
:102CF000019001212046FEF739FF0220A168C8702B
:102D00003EE0A068807A002813D0A068C07802282E
:102D10000FD12068806821684978ABB232B2009147
:102D2000019001212046FEF721FF0320A168C87011
:102D300026E0A068807A002815D0A068C078032813
:102D400011D1206881684069081821684978ABB2C0
:102D500032B20091019001212046FEF707FF0420C6
:102D6000A168C8700CE0A068807A002808D0A0682C
:102D7000C078042804D10020A168C870012072E73F
:102D8000002070E7B80B0000FEB50446FF262D3684
:102D9000F527BF001920400102903546002C01D1D3
:102DA000601EFEBDA06880780C2806D10020A168B6
:102DB0004870A1688870401EF3E7A068407800283A
:102DC0000FD12068C06821680978ABB200910190EA
:102DD00000212046029AFEF7C9FE0220A168487031
:102DE00080E0A068407802281AD1A068407A0028C4
:102DF00016D1A068008B7D210901884210DD216871
:102E0000096C88B20021FEF701FB2168096C88B2C9
:102E10000321FEF7FBFA0020C043A168487061E07F
:102E2000A0684078022812D1A068407A00280ED00D
:102E3000324639462046FFF70FFFA1684870A06868
:102E4000407800284ED10220A16848704AE0012055
:102E5000A1680856401C00280FD10521C90120682F
:102E60000078ABB20191009000212046029AFEF753
:102E70007DFE0320A168487034E0A06840780328F4
:102E80000DD1A068407A002809D001239022D902F0
:102E90002046FEF7F5FD0420A168487022E0A068F6
:102EA0004078042813D1A068408BC8280FDD012387
:102EB0000022D9022046FEF7E3FDA0688078401C7E
:102EC00040B2A16888700020A16848700AE0A0683C
:102ED0004078012806D10020A1684870A168887058
:102EE00001205EE700205CE72021020C01D01021C8
:102EF0001046020A01D010460839020901D01046D6
:102F0000091F820801D01046891E420801D0881E80
:102F10007047081A7047000010B5002819DB1A4ADC
:102F200003231B02D21883089B00D2588307DC0EB0
:102F3000FF23A3409A438B071B0E8407E40EA34094
:102F40001A43114B032424021B198408A4001A51AC
:102F500018E00E4A03071B0F083B9B089B00D25842
:102F60008307DC0EFF23A3409A438B071B0E8407C5
:102F7000E40EA3401A43054B0407240F083CA408A1
:102F8000A4001A5110BD000000E100E01CED00E0BB
:102F900002E008C8121F08C1002AFAD17047704722
:102FA000002001E001C1121F002AFBD1704710B5BB
:102FB0000446012200212046FDF72CFD0122114686
:102FC0002046FDF727FD002211462046FDF722FD91
:102FD000002201212046FDF71DFD10BDC17800290A
:102FE00025D0174903221202891802789210920004
:102FF000895802789207D30EFF229A409143827833
:103000009207120E03789B07DB0E9A4011430C4A7D
:1030100003231B02D21803789B109B00D150017828
:10302000CA06D20E01219140054A116007E00178DD
:10303000CA06D20E01219140014A803211607047C8
:1030400000E100E0FDF7D4FEFEF7B0FBFEF7A2FAC8
:10305000E1204002FFF72CFDFFF754FC20214A48F5
:10306000FFF79CF94948FDF7D1FA4948FEF72CFCD7
:103070004848FEF729FC85E047480068002804D14D
:103080004348FEF779F8444908604448008800281E
:1030900004D14048FEF770F8404908803F48008856
:1030A000012808D101213B48FEF794FA002802D0FC
:1030B00002203A49088039480088022808D10121B5
:1030C0003448FDF7D3FC002802D0032033490880A0
:1030D00032480088032808D10F212E48FEF77AFADB
:1030E000002802D004202D4908802C48008804289C
:1030F00008D10F212748FDF7B9FC002802D0012094
:103100002649088024480068012808D10121204868
:10311000FEF760FA002802D002201F4908601E480E
:103120000068022808D101211948FDF79FFC0028FA
:1031300002D003201849086017480068032808D106
:1031400010211348FEF746FA002802D00420124945
:10315000086011480068042808D110210C48FDF7C8
:1031600085FC002802D001200B4908600C48FEF7BE
:10317000ADFE0B4840681E2804D3FEF7BDFD0020BD
:103180000749486078E700000030014040420F00E6
:103190000C06002018060020300600202C06002017
:1031A000540000206F110000421100003A1100008D
:1031B00092110000BC1100007C110000831100007E
:1031C000CB110000C1110000B9110000B4110000C2
:1031D0009A1100009C11000091110000771100006D
:1031E000A81100000A000000780F0000CC1F0000AA
:1031F000E72F0000D73F0000C04F0000F05F000045
:10320000BF6F0000B97F0000CA8F0000FD9F000063
:1032100025B000001FC000005DD00000A9DF000045
:10322000EAEF00006F110000421100003A110000A7
:1032300092110000BC1100007C11000083110000FD
:10324000CB110000C1110000B9110000B411000041
:103250009A1100009C1100009111000077110000EC
:10326000A81100000A000000780F0000CC1F000029
:10327000E72F0000D73F0000C04F0000F05F0000C4
:10328000BF6F0000B97F0000CA8F0000FD9F0000E3
:1032900025B000001FC000005DD00000A9DF0000C5
:1032A000EAEF0000C43200080000002034060000ED
:1032B000F2020008683300083406002014050000FC
:1032C000A02F00081184D8B805680901020304067C
:1032D0000708090CA91049140027FF070A8A717210
:1032E0001276750878730B018002800380048009D0
:1032F000800B8008800C8040804180010205800E98
:103300008001FF01FF01FF01FF0115133F181408A1
:1033100045111408D91302100823D00715F8F8FF37
:10332000FF620C63C409720129085AFF04112C10B2
:1033300068010413A4311B08E40432023951192531
:10334000091648810912481324321B086404320408
:103350003262137C051B2070041310071B20C40865
:083360001A76041A2C0C01106E
:04000005080000C12E
:00000001FF
