:020000040800F2
:10000000D00A0020D5000008010100080301000803
:1000100000000000000000000000000000000000E0
:1000200000000000000000000000000005010008C2
:10003000000000000000000007010008151700087C
:100040000B0100080B0100080B0100080B01000860
:100050000B0100080B0100080B0100080B01000850
:100060000B0100080B0100080B0100080B01000840
:100070000B0100080B0100080B010008891700089C
:10008000E117000800000000000000000B0100085C
:10009000000000000B0100080B0100080B01000824
:1000A000000000000B0100080B0100080D1A0008F9
:1000B0000B01000800000000DD0500080000000042
:1000C0000348854600F05EF800480047291D0008F7
:1000D000D00A00200D4880F308880D480D490160C2
:1000E0000D480168090E0D4A914205D10C48094995
:1000F00001600C480C4901600C4880470C480047DF
:10010000FEE7FEE7FEE7FEE7FEE7FEE7D00A002097
:100110006020024001000000040000001F000000F9
:100120001810024000000140000000001D170008E8
:10013000C100000830B50B460146002020220124F2
:1001400009E00D46D5409D4205D31D469540491B0B
:100150002546954040191546521E002DF1DC30BD54
:10016000D2B201E00270401C491EFBD2704700224F
:10017000F6E710B513460A4604461946FFF7F0FFA6
:10018000204610BD064C0125064E05E0E36807CC6D
:100190002B430C3C98471034B442F7D3FFF794FF3D
:1001A0007C1E00089C1E000870B58C180578401C49
:1001B0006B075B0F01D10378401C2A1106D102782E
:1001C000401C03E006780E70401C491C5B1EF9D1F0
:1001D0002B0705D40023521E0DD40B70491CFAE7DF
:1001E0000378401CCB1A921C03E01D780D70491C4B
:1001F0005B1C521EF9D5A142D8D3002070BDFFB5BB
:1002000083B00C46029400200190002726E00026CF
:100210001CE0721C039951430846791CFFF78AFFC2
:100220000546A54201D9281B00E0601B054602983F
:10023000A84204D90295059806700698077002989E
:10024000002802D10120019002E0761C402EE0D36C
:1002500000BF0198002800D002E07F1C042FD6D3F5
:1002600000BF029807B0F0BDF7B584B0054616464A
:1002700003960120029000200190002700BF002E6D
:10028000FDD005980028FAD031460598FFF752FFB7
:1002900007467F08192413E021463846FFF74AFF36
:1002A0006043381A01900198002801D1029409E0B6
:1002B00003990198884202D2019803900294641E27
:1002C000032CE9D800BF0020287038460299FFF7B8
:1002D00031FF401E68700299C81E0321FFF72AFFF4
:1002E000E8700298C01EE978401A287107B0F0BD86
:1002F00041680822114341607047002100BFC16876
:10030000704741680422114341607047FFB586B0D1
:10031000074600200190384600F0B8FD044602214F
:1003200007980840002801D001200190002F36D006
:100330003846F917490F09184905090E0391F917AD
:10034000490F0918C910C900791AC9B20291039955
:1003500088005849401800900198002808D000985B
:100360000068012202998A4010430099086007E062
:100370000098016801220298824091430098016030
:10038000039880004B490C31401800900098006899
:10039000012202998A4010430099086013E00198F5
:1003A000002808D0434880380068082108434149A4
:1003B0008039086007E03F4880380068082188439A
:1003C0003C4980390860019801282AD10798C00764
:1003D000C00F002808D008980068C6000998006877
:1003E000C5000720054307E00898008846050998DE
:1003F0000088450530480543300E20603002000E6D
:1004000060603004000EA060F0B2E060280E206151
:100410002802000E60612804000EA061E8B2E061CD
:1004200045E0089806680998056808980068401C27
:10043000059009980068401C04900798C007C00FF9
:1004400000280ED0F600ED000598C0000590049835
:10045000C0000490194805431849049808430490C3
:100460000DE076056D05059840050590049840055A
:100470000490114805431049049808430490300E35
:1004800020603002000E6060280E20612802000EFD
:1004900060610598000EA06005980002000EE06003
:1004A0000498000EA06104980002000EE0610AB0FA
:1004B000F0BD000080640040FFFF1F00FFFF000050
:1004C00010B58EB0044600F03FF801211C4800F042
:1004D000EFF980211A4800F0C7F805A800F048FE9F
:1004E0000AA800F081F922460AA80799FFF7BCFE86
:1004F000002108A88172817341730AA800F0C8F82E
:10050000002003900F48019001AB03AA02210020B4
:10051000FFF7FCFE0121084600F0AAF80121802027
:1005200000F0A6F80121082000F0A2F801214020E7
:1005300000F09EF80021024800F0BAF90EB010BD9C
:1005400000640040FFFF00001CB50121480600F0D8
:10055000EFFD0121084600F0FBFD0121480400F0F9
:10056000D7FD01A800F08AFC0121C90268468180FC
:10057000012181710421C17101A90920C00600F087
:100580000FFC012109036846818001218171182136
:10059000C17101A90920C00600F002FC04220C214F
:1005A0000920C00600F049FC04220B210920C006E6
:1005B00000F043FC1E2168460170002141700121BA
:1005C000817000F047FD1CBD0246906808408842DB
:1005D00001D1012070470020FCE7000070B51E48E3
:1005E000C468856880202040002807D14020204032
:1005F000002803D108202040002802D01648FFF729
:100600007CFE02202840002805D01348FFF770FE2A
:100610001148FFF772FEE007C00F00280AD00F480C
:1006200000F07CF80E480D4982690E489047002082
:100630000C4908700121084600F01AF801218020B9
:1006400000F016F80121082000F012F801214020E6
:1006500000F00EF870BD0000006400409806002015
:100660005405002054000020C26F0A43C26770473F
:10067000002905D0054A12690243044B1A6104E0BF
:10068000024A12698243014B1A61704700640040BC
:1006900001788901427811431F4A91618178C9012B
:1006A000C27812011143027911431B4AD161417989
:1006B000012906D11146096802221143164A116028
:1006C00005E01549096802229143134A11608179B6
:1006D000012906D110490968042211430E4A11600C
:1006E00005E00D490968042291430B4A1160C17964
:1006F000012906D10849096810221143064A1160F0
:1007000005E00549096810229143034A1160024A35
:10071000C1685163704700000064004010B5034693
:10072000304800684004000E18712E4800684006EA
:10073000C00F58712B4800680007000F9871187996
:10074000012820D027488068440926484068C00016
:1007500004431C602348C068D8712248006918729D
:100760002048406958721F48806998721D48C069C6
:10077000D8721C48006A18731A48406A587319489E
:10078000806A987329E017480069F8210840C40876
:100790001448C06840010443124880684003044381
:1007A00010484068400504431C600E484069D871F9
:1007B0000C48806918720B48C06958720948006A71
:1007C00098720848406AD8720648806A18730548CB
:1007D000C06A58730348006B987302484038FFF7AB
:1007E00090FD10BD40640040002141700170017116
:1007F000C170817041718171C17101729621C160B6
:10080000704700000179C901427992011143827950
:100810001143264A1160017901291AD0C17851602B
:100820008178E0221140214A9160417901292CD040
:10083000C179D160017A1161417A5161817A916106
:10084000C17AD161017B1162417B5162817B9162EE
:100850001BE0C178154A5160817891604178D16080
:1008600001781161417901290FD0C1795161017A73
:100870009161417AD161817A1162C17A5162017BC1
:100880009162417BD162817B1163084940390968DB
:1008900004221140002904D01221044A403A516038
:1008A00003E00321014A403A516070474064004030
:1008B000012904D1026801231A43026003E002689F
:1008C000520852000260704710B504465AE02E48A4
:1008D000808C002808D12C48808C2B494039095C39
:1008E0002948808C21543EE02748808C642802D11E
:1008F00000212548818425480078322807DB6421BF
:100900002348FFF734FC00202049087010BD1E4822
:10091000808C1D494039085C002800D1F6E71A4850
:10092000808C19494039085C0A2814D11648808CFB
:10093000095C1548808C21541348808C401C81B27E
:1009400011488184818C4038FFF711FC00200F4949
:1009500008700120DAE70C48808C0B494039095CAB
:100960000948808C21540848808C401C81B206487C
:100970008184818C4038FFF7FAFB04480078401CE2
:1009800002490870A3E700000C06002028000020A0
:100990003406002010B57D21C90010480068FFF71B
:1009A000C9FB0446601E0E49884201D901200CE0B3
:1009B000601E0C4948610321081F01F035F9002031
:1009C00008498861072008610020002801D000BF85
:1009D000FEE70021481E01F027F910BD00000020AD
:1009E000FFFFFF0000E000E010B50446002C01D13D
:1009F000401E10BD2078F02812D16078B3494969B3
:100A000088420DD16078B2490870A0780871E0780A
:100A10008870AE49898A88B2032100F097F915E001
:100A20002078F02812D16178A848806981420DD1E0
:100A30006078A7494870A178A5484171E178C170F4
:100A4000A249098B88B2032100F080F92078F028B0
:100A500012D160789F49496988420DD160789E49DA
:100A60000870A0780871E07888709A49898A88B2FD
:100A7000032100F06BF927E12078F02813D1617889
:100A80009448806981420ED1607893494870A1787A
:100A900091484171E178C1708E49098B88B2032178
:100AA00000F054F910E12078712823D1607887494B
:100AB000496988421ED12079884988600846806843
:100AC0006179090208438549886008468068A179F0
:100AD000090408438149886008468068E17909066D
:100AE00008437E498860E0782021084040117B4916
:100AF0000871E9E02078712822D161787348806913
:100B000081421DD121797548C160C06861790902AF
:100B100008437249C8600846C068A17909040843BF
:100B20006E49C8600846C068E179090608436B4908
:100B3000C860E07820210840411168484171C3E055
:100B40002078712823D160786249496988421ED192
:100B50002079634988600846806861790902084302
:100B60005F49886008468068A179090408435C49A8
:100B7000886008468068E17909060843584988601A
:100B8000E078202108404011554908719CE0207808
:100B9000712822D161784F48806981421DD1217925
:100BA0004F48C160C0686179090208434C49C86078
:100BB0000846C068A179090408434949C860084645
:100BC000C068E179090608434549C860E0782021FA
:100BD000084041114248417176E02078152808D13B
:100BE00060783A494969884203D101203B498870BD
:100BF0006AE02078152808D16178344880698142FC
:100C000003D101213548C1705EE02078152808D154
:100C1000607830494969884203D1012030498870A1
:100C200052E02078152808D161782A4880698142ED
:100C300003D101212A48C17046E0207878280ED1DE
:100C4000607822494969884209D1A078012806D1F3
:100C5000E078002803D101202049087034E0207892
:100C600078280ED1617819488069814209D1A0782D
:100C7000012806D1E078002803D1012017494870E7
:100C800022E0207878280ED160781249496988429C
:100C900009D1A078012806D1E078002803D10120ED
:100CA0000F49087010E0207878280DD16178094844
:100CB0008069814208D1A078012805D1E078002818
:100CC00002D1012006494870012092E67C050020EF
:100CD000700500209805002076050020A806002059
:100CE000BC06002070B504460D46204600F044F9CD
:100CF000002801D0002070BDE068010120461030BE
:100D00000B180FCB2E460FC6E168481C5021FFF789
:100D100011FAE1600120EEE770B504460D46204669
:100D200000F033F9002801D0002070BDA068010157
:100D300020461030081829464EC94EC0A168481CEC
:100D40005021FFF7F7F9A1600120EEE77CB50546D9
:100D50000C46002000900190104881786846017090
:100D600045708470032C0AD10C48817A6846017062
:100D7000002181700122082100F022F90CE0002CF2
:100D800001D0012C05D101220821684600F018F994
:100D900002E00020C0437CBD0020FCE72C000020C6
:100DA000F8B50246CD782F073F0FCD781026354095
:100DB000002D01D08D782F431446002011E08506C8
:100DC0002B0E0D88012686403540002D07D0256862
:100DD0000F269E40B5433E469E4035432560451C48
:100DE000E8B20828EBDB141D0D882D1200950020B9
:100DF00011E085062B0E01258540009E3540002D13
:100E000007D025680F269E40B5433E469E40354399
:100E10002560451CE8B20828EBDBCD78282D04D1ED
:100E200055690E883543556106E0CD78482D03D1CC
:100E300015690E8835431561F8BD70B54D07EB0E89
:100E4000082902DA0546203501E0054624352C46FE
:100E50000F269E402568B54316469E4035432560C3
:100E600070BD0246D0680840002801D001207047BC
:100E70000020FCE741617047016170470021C943D0
:100E80000180022181700421C17070470146002950
:100E900001D1044804E04A1E5201024B5833D018D5
:100EA00070470000406400401CB5044600200090DC
:100EB00001900748417A68460170447004484179BE
:100EC000684601700122082100F07AF800201CBD5C
:100ED0002C00002008B501210320400400F018F97F
:100EE0006846FFF7CBFFF821684601802821C170D2
:100EF00069460748FFF754FF0121C903684601808E
:100F00002821C17069460920C006FFF749FF08BDC6
:100F10000004004808B50121880400F0F9F8012117
:100F2000480400F0F5F86846FFF7A8FF01214902E0
:100F300068460180012181701021C17069460D4809
:100F4000FFF72EFF082168460180012181701021E2
:100F5000C17069460920C006FFF722FF012149023E
:100F60000448FFF789FF08210920C006FFF784FF26
:100F700008BD0000000400480146CA688868904225
:100F800001D1012070470020FCE710B50446A1689C
:100F9000481C5021FFF7CEF8E068814201D10120C2
:100FA00010BD0020FCE710B50446E268A168891A6C
:100FB000084650305021FFF7BDF8084610BD00002C
:100FC000F0B585B006460D461746002E01D0002D1F
:100FD00003D10020C04305B0F0BD00BF202115485B
:100FE000FFF7F2FA0028F9D100BF10211148FFF7EE
:100FF000EBFA0028F9D100BF08210E48FFF7E4FA08
:101000000028F9D000976846457200200190002121
:1010100068460172002405E0315D02A802300155E6
:10102000601CC4B2AC42F7D3684600F071FA0020ED
:10103000D1E7000000640040F8B504460D461646AE
:1010400068460470457086700121C17000F038FE5A
:10105000F8BD00008178002925D01749032212022B
:101060008918027892109200895802789207D30E5C
:10107000FF229A40914342789207120E03789B0711
:10108000DB0E9A4011430C4A03231B02D21803784B
:101090009B109B00D1500178CA06D20E01219140CD
:1010A000054A116007E00178CA06D20E012191407D
:1010B000014A80321160704700E100E010B5084934
:1010C0004869FFF7F1FE06498869FFF7EDFE05491B
:1010D0004869FFF7E9FE03498869FFF7E5FE10BD9F
:1010E0007C0500209805002010B500210648C18429
:1010F000818464210548FFF73AF8642102484038AA
:10110000FFF735F810BD00000C0600203406002063
:10111000002905D0054A52690243044B5A6104E094
:10112000024A52698243014B5A61704700100240E3
:10113000002905D0054AD2690243044BDA6104E074
:10114000024AD2698243014BDA61704700100240C3
:10115000002905D0054A92690243044B9A6104E0D4
:10116000024A92698243014B9A6170470010024023
:1011700038B504460DA00068009000F051F82060DA
:1011800000F01AF8606000F027F8A06000F036F870
:10119000E060074A5268074B1A4012096B46995C97
:1011A000E068FEF7C7FF206138BD000002040608B2
:1011B000001002407040000010B500F031F8044902
:1011C0004968F02211400909024A515CC84010BD2B
:1011D000001002401400002010B5FFF7EDFF054994
:1011E0004968072212021140090A034A515CC840AB
:1011F00010BD0000001002401400002010B5FFF7E1
:10120000DBFF054949680722D2021140C90A034A97
:10121000515CC84010BD00000010024014000020C6
:10122000F8B51B4840680C210840042802D0082863
:1012300028D101E0174C27E0154840680121090436
:101240000840002809D0124840684900084000289A
:1012500001D0114802E00F4800E0104807460C4852
:101260000068800E451C0A480068072109050840EF
:10127000000D461C3946694308463146FEF75AFFC1
:10128000044601E0034C00BF00BF2046F8BD00004B
:101290000010024000127A0000093D00001BB70058
:1012A0001FB50446002C02D1401E04B010BD05201D
:1012B00000022018016920468847002812D0052026
:1012C00000022018694642692046904768468079A6
:1012D000042807DB01A80330FFF786FB002801D0B4
:1012E0000120E2E70020E0E77FB505460C4601213A
:1012F0000803FFF72DFF684600F0FAF8042168465E
:1013000001700021418008210171022141710021F9
:1013100081710181448101736946284600F0A2F879
:101320000021284600F066F80121284600F062F806
:101330000121284600F08AF87FBD08B50121480444
:10134000FFF7E6FE002207210920C006FFF775FD22
:10135000002204210920C006FFF76FFD00220621AC
:101360000920C006FFF769FD002205210920C006FB
:10137000FFF763FD00F050FC6846FFF77FFD10218A
:1013800068460180012181701821C17069460920D9
:10139000C006FFF705FD202168460180012181700C
:1013A0001821C17069460920C006FFF7F9FC8021A9
:1013B00068460180012181701821C17069460920A9
:1013C000C006FFF7EDFC40216846018001218170D5
:1013D0004821C17069460920C006FFF7E1FC08BD3D
:1013E00070B504460D46FFF7A8FF29462046FFF7D3
:1013F0007BFF70BD002906D0012909D002290CD03D
:10140000032914D10EE0826910231A4382610FE090
:10141000826908231A4382610AE0826910239A4391
:10142000826105E0826908239A43826100E000BF7F
:1014300000BF7047002904D0826A520852008262BD
:1014400003E0826A01231A4382627047002904D0B4
:10145000826901231A43826103E0826952085200C3
:10146000826170474A880123DB029A4203D1826974
:101470001A43826104E082690123DB029A4382619C
:10148000826901239B029A430B891A438261826914
:1014900004239A430B781A438261C26904239A4356
:1014A0000B7B1A43C261C26902239A434B791A43E8
:1014B000C261C269520852008B791A43C261C26983
:1014C00008231A43C261026A120C12044B891A43A0
:1014D00002620A79202A04DBC26A52095201C262FE
:1014E00005E0C26A520952010B791A43C262704781
:1014F0000021017041800821017100214171012109
:101500008171002101810221418100210173704715
:101510007FB5044600256068002811D02068C5000A
:1015200001216846017105702804010E684641706A
:101530002802010E68468170280E6946C8700BE0CB
:10154000208845050021684601712802010E684681
:101550008170280E6946C870617A68468171217A67
:101560004171002606E020460A30815D01A8033063
:101570008155761C082EF6D36846FFF743F97FBDE8
:1015800010B500F001F810BD7FB500200390029067
:10159000594800680121090408435749086000BF01
:1015A0005548006801214904084002900398401CF6
:1015B00003900298002804D105210902039888426B
:1015C000EED14D480068012149040840002809D0A7
:1015D000012002907D252D0100BF28466D1E0028A8
:1015E000FBD101E000200290029801287ED14348FF
:1015F0004349086043480068102108434149086096
:1016000008460068C008C00008603D490968481ED7
:101610003D49FEF78FFD04463A48006820433949AA
:10162000086035484068344948600846406848606A
:10163000334800683549884207D92F48406801215E
:10164000890208432C49486006E02B484068012184
:101650008902084328494860274840680321090453
:10166000884325494860084600680003000B08606D
:10167000084640680121090408431F4948606B4639
:1016800001AA1F4801682248FEF7B9FD1A48006800
:101690000003000B1849086069460879800609783C
:1016A00009050843144909680843134908600846B6
:1016B00000680121090608430F49086000BF0E4871
:1016C00000680121490608400028F8D00A4840680F
:1016D00080088000084948600846406802210843A5
:1016E0000549486000BF0448406800E003E00C2161
:1016F00008400828F7D17FBD0010024000D8B80587
:10170000000000200020024000366E01005125023A
:1017100000127A0010B500F06DF910BD10B5164832
:1017200000680121084314490860084640681349CD
:1017300008401149486008460068114908400E49B0
:101740000860084600680121890488430A49086046
:1017500008464068C3210904884307494860084691
:10176000006808490840044908609F200004886018
:10177000FFF706FF10BD0000001002400CC0FFF88C
:10178000FFFFF6FEFFFF8F0010B50121880700F074
:10179000D9F8002821D00121880700F0C3F80221E0
:1017A0000E48FFF75EFB002804D002210B48FFF72C
:1017B00061FB03E002210948FFF75EFB01210748B6
:1017C000FFF74FFB002804D001210448FFF752FB2C
:1017D00003E001210148FFF74FFB10BD0004004862
:1017E00010B50121204800F0ADF8002830D00121CB
:1017F0001D4800F097F8012149021C48FFF731FB12
:10180000002805D0012149021848FFF733FB04E006
:10181000012149021548FFF72FFB15484068401C7D
:10182000134948601348008A401C12490882084640
:10183000408A401C81B20F4841820F48008A401CF8
:101840000D4908820846408A401C81B20A484182FC
:1018500010210A48FEF7B8FE002804D10448007899
:10186000401C0349087010BD0004004000040048FB
:1018700054000020A8060020BC06002000640040A0
:101880003EB504460D4601210220FFF751FC684693
:1018900000F0A6F80194684605800021018181725C
:1018A000817069460A4800F065F80121084800F097
:1018B00029F80121064800F031F8012211460448B8
:1018C00000F04DF80121024800F030F83EBD000064
:1018D0000004004010B5084908480068FEF72AFCDB
:1018E000401E84B221460648FFF7CAFF01220021AC
:1018F0001020FFF7A1FB10BD40420F0000000020A8
:10190000E7030000002904D0026880231A43026024
:1019100003E0026880239A430260704702698A43A9
:101920000261704702698A4302617047002904D04E
:10193000026801231A43026003E002685208520061
:1019400002607047024610690840002805D0D06840
:101950000840002801D0012070470020FCE7002A41
:1019600003D0C3680B43C36002E0C3688B43C3600A
:1019700070470000026803231B029A430B891A4335
:101980000260134A904206D001229207904202D090
:10199000104A904205D1026870239A438B781A430B
:1019A00002600B4A904205D00B4A904202D00B4A8B
:1019B000904205D1026B120A12028B7A1A4302631B
:1019C0004A68C2620A88826201224261704700004E
:1019D000002C014000040040004401400048014048
:1019E0000021C94341600021018001818170817221
:1019F0007047000004480068002804D002480068CE
:101A0000401E0149086070472400002010B50221E3
:101A1000184800F0A0F800282AD00221154800F04C
:101A200089F81548C08C642802D100211248C1846D
:101A300018E01148C08C642802D100210E48C184EE
:101A40000C4800F0D7F8C1B20B48C08C0A4A403AA3
:101A500011540948C08C401C81B20748C184074812
:101A6000FEF732FF0221034800F06CF80028E0D1B5
:101A700010BD0000003801400C0600203406002094
:101A800010B586B004461B216846017003214170E1
:101A900001218170FFF7DEFA01218803FFF758FB6F
:101AA00001214804FFF734FB01220921C806FFF792
:101AB000C4F901220A210920C006FFF7BEF901A8D6
:101AC00000F09CF801943021684601810021418199
:101AD000818101821821C18101A9154800F04EF8C9
:101AE00001220221124800F03FF80121104800F0C5
:101AF00023F805A8FFF7C2F901214902684681824F
:101B0000012181751821C17505A90920C006FFF7BB
:101B100047F901218902684681820421C17505A91E
:101B20000920C006FFF73CF9FFF7DEFA06B010BD4A
:101B300000380140416170478269520852000A43EF
:101B400082617047024690680840002801D0012059
:101B500070470020FCE70246D0680840002801D00A
:101B6000012070470020FCE7002A03D003690B43E3
:101B7000036102E003698B430361704770B504465B
:101B80000D460026E0693021884329790843E06149
:101B9000E06944218843A9790843E061E06980084D
:101BA0008000297A0843E061A06918218843698987
:101BB0000843A061A06904218843297B0843A061F0
:101BC0000B48844203D1FFF719FB064602E0FFF7FA
:101BD00003FB064630462968FEF7ACFA000920628E
:101BE00030462968FEF7A6FA0007000F606270BD54
:101BF0000038014001464868C0B270474B21C90116
:101C0000016030210171002181710172182141812F
:101C1000002101737047000010B500210148FFF753
:101C200009FC10BD0030014010B5002819DB1A4A2C
:101C300003231B02D21883089B00D2588307DC0EB3
:101C4000FF23A3409A438B071B0E8407E40EA34097
:101C50001A43114B032424021B198408A4001A51AF
:101C600018E00E4A03071B0F083B9B089B00D25845
:101C70008307DC0EFF23A3409A438B071B0E8407C8
:101C8000E40EA3401A43054B0407240F083CA408A4
:101C9000A4001A5110BD000000E100E01CED00E0BE
:101CA00002E008C8121F08C1002AFAD17047704725
:101CB000002001E001C1121F002AFBD17047000083
:101CC000C178002925D01749032212028918027809
:101CD00092109200895802789207D30EFF229A4000
:101CE000914382789207120E03789B07DB0E9A408D
:101CF00011430C4A03231B02D21803789B109B004C
:101D0000D1500178CA06D20E01219140054A1160D6
:101D100007E00178CA06D20E01219140014A8032C3
:101D20001160704700E100E0FEF734FEFFF7F2F8C3
:101D3000FFF7D0F8E1204002FFF7A2FEFFF7CAFD4F
:101D400020210B48FFF74CFB0A48FEF7B9FB0DE0DA
:101D50000948FFF7A5FA08484068FF21F531884295
:101D600004D3FFF7ABF9002003494860F0E7000017
:101D70000030014040420F00540000206F1100006D
:101D8000421100003A11000092110000BC11000045
:101D90007C11000083110000CB110000C111000074
:101DA000B9110000B41100009A1100009C1100004C
:101DB0009111000077110000A81100000A00000036
:101DC000780F0000CC1F0000E72F0000D73F000075
:101DD000C04F0000F05F0000BF6F0000B97F00003F
:101DE000CA8F0000FD9F000025B000001FC000004A
:101DF0005DD00000A9DF0000EAEF00006F110000D5
:101E0000421100003A11000092110000BC110000C4
:101E10007C11000083110000CB110000C1110000F3
:101E2000B9110000B41100009A1100009C110000CB
:101E30009111000077110000A81100000A000000B5
:101E4000780F0000CC1F0000E72F0000D73F0000F4
:101E5000C04F0000F05F0000BF6F0000B97F0000BE
:101E6000CA8F0000FD9F000025B000001FC00000C9
:101E70005DD00000A9DF0000EAEF00009C1E000812
:101E800000000020CC050000A8010008241F000865
:101E9000CC05002004050000B01C00081184D8B84F
:101EA00005680901020304060708090CA910491472
:101EB0000027FF070A8A71721276750878730B0182
:101EC0008002800380048009800B8008800C8040A1
:101ED000804180010205800E8001FF01FF01FF01AA
:101EE000FF011513A70F1408E50C1408190DC208FB
:101EF00023D007336402220C137C1D1B08BC043260
:101F0000012913A91C1AFC18133C1E3308033204C0
:101F1000137C051B20700413A8061B2098081A7652
:041F2000041ABC0CD7
:04000005080000C12E
:00000001FF
