:020000040800F2
:10000000380B0020D500000801010008030100089A
:1000100000000000000000000000000000000000E0
:1000200000000000000000000000000005010008C2
:10003000000000000000000007010008D5260008AD
:100040000B0100080B0100080B0100080B01000860
:100050000B0100080B0100080B0100080B01000850
:100060000B0100080B0100080B0100080B01000840
:100070000B0100080B0100080B01000849270008CC
:10008000A127000800000000000000000B0100088C
:10009000000000000B0100080B0100080B01000824
:1000A000000000000B0100080B010008CD2900082A
:1000B0000B010008000000002507000800000000F8
:1000C0000348854600F0E0F800480047AD2F0008DF
:1000D000380B00200D4880F308880D480D49016059
:1000E0000D480168090E0D4A914205D10C48094995
:1000F00001600C480C4901600C4880470C480047DF
:10010000FEE7FEE7FEE7FEE7FEE7FEE7380B00202E
:100110006020024001000000040000001F000000F9
:10012000181002400000014000000000DD26000819
:10013000C100000830B50B460146002020220124F2
:1001400009E00D46D5409D4205D31D469540491B0B
:100150002546954040191546521E002DF1DC30BD54
:10016000D2B201E00270401C491EFBD2704700224F
:10017000F6E710B513460A4604461946FFF7F0FFA6
:10018000204610BD0EB505490291002100910A4696
:100190000B46019100F025F803B000BD33040000C8
:1001A00010B5002904DB0124E40740428C412146BC
:1001B000002B04DB1C460123DB075242A34199427A
:1001C00000D1904210BD000010B5002B08DA0024C9
:1001D000401C614192185B411A4301D14008400024
:1001E00010BDF0B51FB482B005460C0003D0084620
:1001F00002F02EFE02E002F02BFE203002460090BC
:100200002146284600F052F8049B059A04460F4602
:1002100018431143084314D0184610431BD00098CC
:1002200040210A1A1846059900F050F805460E4676
:10023000009A0599049800F039F8084305D0012088
:1002400004E02046394607B0F0BD0020C117054341
:100250000E432C43374300990E986305401A7905E5
:10026000E40A00220C43FD0A0A3002D500200146B0
:10027000E9E70105101969410C9C0D9D00196941C0
:10028000FFF7A2FFDFE70000064C0125064E05E060
:10029000E36807CC2B430C3C98471034B442F7D3A7
:1002A000FFF712FF84310008A431000810B5202A9E
:1002B00004DB0146203A9140002010BD91402023EC
:1002C0009C1A0346E3401943904010BD10B5202A04
:1002D00004DB0846203AD040002110BD0B46D34035
:1002E000D0402024A21A91400843194610BD70B591
:1002F0008C180578401C6B075B0F01D10378401CFC
:100300002A1106D10278401C03E006780E70401CCA
:10031000491C5B1EF9D12B0705D40023521E0DD4B6
:100320000B70491CFAE70378401CCB1A921C03E0BF
:100330001D780D70491C5B1C521EF9D5A142D8D303
:10034000002070BDFFB583B00C46029400200190E0
:10035000002726E000261CE0721C03995143084642
:10036000791CFFF7E7FE0546A54201D9281B00E0EE
:10037000601B05460298A84204D9029505980670AC
:10038000069807700298002802D10120019002E02F
:10039000761C402EE0D300BF0198002800D002E078
:1003A0007F1C042FD6D300BF029807B0F0BDF7B56D
:1003B00084B0054616460396012002900020019065
:1003C000002700BF002EFDD005980028FAD0314646
:1003D0000598FFF7AFFE07467F08192413E0214672
:1003E0003846FFF7A7FE6043381A019001980028AD
:1003F00001D1029409E003990198884202D2019840
:1004000003900294641E032CE9D800BF00202870DA
:1004100038460299FFF78EFE401E68700299C81E8A
:100420000321FFF787FEE8700298C01EE978401AA2
:10043000287107B0F0BD4168082211434160704740
:10044000002100BFC1687047416804221143416028
:1004500070470000FFB586B007460020019038467F
:1004600001F060F80446022107980840002801D0F6
:1004700001200190002F36D03846F917490F09188E
:100480004905090E0391F917490F0918C910C90048
:10049000791AC9B20291039988005849401800900E
:1004A0000198002808D000980068012202998A402B
:1004B00010430099086007E0009801680122029843
:1004C0008240914300980160039880004B490C31B1
:1004D0004018009000980068012202998A40104359
:1004E0000099086013E00198002808D0434880383C
:1004F00000680821084341498039086007E03F4807
:1005000080380068082188433C4980390860019898
:1005100001282AD10798C007C00F002808D00898E2
:100520000068C60009980068C5000720054307E079
:100530000898008846050998008845053048054315
:10054000300E20603002000E60603004000EA060AB
:10055000F0B2E060280E20612802000E60612804DD
:10056000000EA061E8B2E06145E0089806680998CD
:10057000056808980068401C059009980068401CB0
:1005800004900798C007C00F00280ED0F600ED00B9
:100590000598C00005900498C000049019480543D0
:1005A00018490498084304900DE076056D050598F8
:1005B00040050590049840050490114805431049F2
:1005C000049808430490300E20603002000E6060F2
:1005D000280E20612802000E60610598000EA060C0
:1005E00005980002000EE0600498000EA0610498D7
:1005F0000002000EE0610AB0F0BD0000806400401F
:10060000FFFF1F00FFFF000010B58EB0044600F092
:100610003FF801211C4800F0EFF980211A4800F052
:10062000C7F805A801F096FB0AA800F081F9224658
:100630000AA80799FFF7BBFE002108A88172817301
:1006400041730AA800F0C8F8002003900F480190F9
:1006500001AB03AA02210020FFF7FCFE012108469E
:1006600000F0AAF80121802000F0A6F8012108205E
:1006700000F0A2F80121402000F09EF8002102487D
:1006800000F0BAF90EB010BD00640040FFFF00009A
:100690001CB50121480601F03DFB0121084601F08F
:1006A00049FB0121480401F025FB01A800F032FFBD
:1006B0000121C90268468180012181710421C17133
:1006C00001A90920C00600F0B7FE01210903684610
:1006D0008180012181711821C17101A90920C00601
:1006E00000F0AAFE04220C210920C00600F0F1FE51
:1006F00004220B210920C00600F0EBFE1E216846F3
:100700000170002141700121817001F095FA1CBD3A
:10071000024690680840884201D1012070470020BD
:10072000FCE7000070B51E48C46885688020204042
:10073000002807D140202040002803D10820204075
:10074000002802D01648FFF77BFE02202840002830
:1007500005D01348FFF76FFE1148FFF771FEE00761
:10076000C00F00280AD00F4800F07CF80E480D4951
:1007700082690E48904700200C4908700121084604
:1007800000F01AF80121802000F016F8012108205D
:1007900000F012F80121402000F00EF870BD0000BA
:1007A00000640040FC060020540500205400002096
:1007B000C26F0A43C2677047002905D0054A126913
:1007C0000243044B1A6104E0024A12698243014B5E
:1007D0001A61704700640040017889014278114332
:1007E0001F4A91618178C901C278120111430279CF
:1007F00011431B4AD1614179012906D1114609688B
:1008000002221143164A116005E0154909680222C7
:100810009143134A11608179012906D11049096871
:10082000042211430E4A116005E00D4909680422B3
:1008300091430B4A1160C179012906D10849096821
:1008400010221143064A116005E00549096810228B
:100850009143034A1160024AC16851637047000026
:100860000064004010B50346304800684004000EA4
:1008700018712E4800684006C00F58712B48006858
:100880000007000F98711879012820D02748806848
:10089000440926484068C00004431C602348C068DF
:1008A000D8712248006918722048406958721F4860
:1008B000806998721D48C069D8721C48006A187314
:1008C0001A48406A58731948806A987329E0174893
:1008D0000069F8210840C4081448C0684001044376
:1008E00012488068400304431048406840050443B0
:1008F0001C600E484069D8710C48806918720B481A
:10090000C06958720948006A98720848406AD872EB
:100910000648806A18730548C06A58730348006B1C
:10092000987302484038FFF78FFD10BD40640040C7
:100930000021417001700171C1708170417181713C
:10094000C17101729621C160704700000179C9012F
:1009500042799201114382791143264A116001794B
:1009600001291AD0C17851608178E0221140214AD2
:100970009160417901292CD0C179D160017A11614E
:10098000417A5161817A9161C17AD161017B1162B1
:10099000417B5162817B91621BE0C178154A5160B5
:1009A000817891604178D1600178116141790129A4
:1009B0000FD0C1795161017A9161417AD161817A17
:1009C0001162C17A5162017B9162417BD162817B6C
:1009D000116308494039096804221140002904D0F4
:1009E0001221044A403A516003E00321014A403A8F
:1009F0005160704740640040012904D1026801231E
:100A00001A43026003E00268520852000260704715
:100A100010B50346002B03D0002904D0012902D0D1
:100A20000020C04310BD002A04D100249868801C17
:100A3000445416E0012A03D100209C68605410E061
:100A4000032A0BD100205C68605400245868001D04
:100A500044545868801C44540120E3E70020C043FC
:100A6000E0E70020DEE70000FEB504460D464B2619
:100A7000360119277F017D20C0000290002D03DD83
:100A8000102D01DC002C02D10020C043FEBD9C488B
:100A90000078002820D1012D0DD12068416B681EFF
:100AA00080000858216849684218002331462046D2
:100AB00000F0F8FF0CE02068416B681E80000858C9
:100AC00021684968421A00233146204600F0EAFFB7
:100AD00001208B49087010E18948007801281DD158
:100AE000A0688078002819D1A068008A85498842CA
:100AF00014DD2168098F88B2002100F073FC2168A1
:100B0000098F88B2032100F06DFC00207C49087039
:100B1000204602F000FA0020C043B7E7784800788A
:100B200001280ED1A068807800280AD0206801230F
:100B300075498268204600F0B5FF022070490870B0
:100B4000DBE06F48007802281CD1A068C07800283C
:100B500018D0A168488AFFF715FB00226B4B019162
:100B60000090FFF71DFB0DD82068416B681E8000C8
:100B70000A5800233146204600F094FF03206049C4
:100B80000870BAE05E48007803281DD1A06880781C
:100B9000002819D1A068008A5A49884214DD2168CA
:100BA000098F88B2002100F01DFC2168098F88B2EE
:100BB000032100F017FC002051490870204602F084
:100BC000AAF90020C04361E74D48007803280DD101
:100BD000A0688078002809D001233A46204602996F
:100BE00000F028FF04204649087086E04448007859
:100BF000042820D1A168488AFFF7C4FA0022444B98
:100C000001910090FFF7CCFA15D205203C490870FD
:100C1000012300222046029900F00CFF2168898FF1
:100C200088B2002100F0DEFB2168898F88B20321A1
:100C300000F0D8FB61E032480078052824D1012D6E
:100C40000FD12068416B681E8000085821684968F0
:100C5000421800233046C83001B2204600F022FF7F
:100C60000EE02068416B681E8000085821684968C2
:100C7000421A00233046C83001B2204600F012FF6D
:100C800006201F49087038E01D480078062819D151
:100C9000A0688078002815D0A168088AFFF772FA4A
:100CA00000221C4B01910090FFF77AFA0AD82068C5
:100CB000012315498268204600F0F4FE0720104900
:100CC00008701AE00E480078072816D1A068C0788E
:100CD000002812D0A168488AFFF754FA00220D4B71
:100CE00001910090FFF75CFA07D8002004490870D2
:100CF000204602F010F90120C8E60020C6E60000F8
:100D00001C0600207017000055020000000059402A
:100D100000C072400000694010B504465AE02E48F9
:100D2000808C002808D12C48808C2B494039095CE4
:100D30002948808C21543EE02748808C642802D1C9
:100D400000212548818425480078322807DB64216A
:100D50002348FFF70CFA00202049087010BD1E48F8
:100D6000808C1D494039085C002800D1F6E71A48FC
:100D7000808C19494039085C0A2814D11648808CA7
:100D8000095C1548808C21541348808C401C81B22A
:100D900011488184818C4038FFF7E9F900200F4920
:100DA00008700120DAE70C48808C0B494039095C57
:100DB0000948808C21540848808C401C81B2064828
:100DC0008184818C4038FFF7D2F904480078401CB8
:100DD00002490870A3E700007006002028000020E8
:100DE0009806002010B57D21C90010480068FFF763
:100DF000A1F90446601E0E49884201D901200CE089
:100E0000601E0C4948610321081F02F039F80020D8
:100E100008498861072008610020002801D000BF30
:100E2000FEE70021481E02F02BF810BD0000002054
:100E3000FFFFFF0000E000E010B50446002C01D1E8
:100E4000401E10BD2078F02812D16078B349896B1C
:100E500088420DD16078B2490870A0780871E078B6
:100E60008870AE49098F88B2032100F0BBFA15E003
:100E70002078F02812D16178A848C06B81420DD14A
:100E80006078A7494870A178A5484171E178C170A0
:100E9000A249898F88B2032100F0A4FA2078F028B3
:100EA00012D160789F49896B88420DD160789E4944
:100EB0000870A0780871E07888709A49098F88B224
:100EC000032100F08FFA27E12078F02813D1617810
:100ED0009448C06B81420ED1607893494870A178E4
:100EE00091484171E178C1708E49898F88B20321A0
:100EF00000F078FA10E12078712823D160788749D2
:100F0000896B88421ED120798849886008468068AC
:100F10006179090208438549886008468068A1799B
:100F2000090408438149886008468068E179090618
:100F300008437E498860E0782021084040117B49C1
:100F40000871E9E02078712822D161787348C06B7C
:100F500081421DD121797548C160C068617909025B
:100F600008437249C8600846C068A179090408436B
:100F70006E49C8600846C068E179090608436B49B4
:100F8000C860E07820210840411168484171C3E001
:100F90002078712823D160786249896B88421ED1FC
:100FA00020796349886008468068617909020843AE
:100FB0005F49886008468068A179090408435C4954
:100FC000886008468068E1790906084358498860C6
:100FD000E078202108404011554908719CE02078B4
:100FE000712822D161784F48C06B81421DD121798F
:100FF0004F48C160C0686179090208434C49C86024
:101000000846C068A179090408434949C8600846F0
:10101000C068E179090608434549C860E0782021A5
:10102000084041114248417176E02078152808D1E6
:1010300060783A49896B884203D101203B49887026
:101040006AE02078152808D161783448C06B814265
:1010500003D101213548C1705EE02078152808D100
:1010600060783049896B884203D10120304988700B
:1010700052E02078152808D161782A48C06B814257
:1010800003D101212A48C17046E0207878280ED18A
:1010900060782249896B884209D1A078012806D15D
:1010A000E078002803D101202049087034E020783E
:1010B00078280ED161781948C06B814209D1A07897
:1010C000012806D1E078002803D101201749487093
:1010D00022E0207878280ED160781249896B884206
:1010E00009D1A078012806D1E078002803D1012099
:1010F0000F49087010E0207878280DD161780948F0
:10110000C06B814208D1A078012805D1E078002881
:1011100002D1012006494870012092E67C0500209A
:1011200070050020BC050020760500200C0700207B
:101130002007002070B504460D46204600F052FB03
:10114000002801D0002070BDE06801012046103069
:101150000B180FCB2E460FC6E168481C5021FEF736
:10116000E9FFE1600120EEE7F0B585B004461926FD
:1011700076018C4F70100390F520800002900025BE
:10118000002C02D1601E05B0F0BD87480078002811
:1011900006D1204601F0BFFE012083490870FEE021
:1011A00081480078012826D1204601F09BFD0546A4
:1011B000012D12D12068C06821684968401A216851
:1011C0000978BBB23246009101900021204600F020
:1011D000A7FC022074490870E1E0681C0028DED1F9
:1011E000204600F073FE204601F095FE00206E4977
:1011F0000870401EC7E7A068007800280CD06A4835
:101200000078022808D100221146204600F00EFB8B
:10121000032065490870C2E06348007803280BD1B9
:101220002068406B00233146C26B204600F03AFC38
:1012300004205D490870B2E05B48007804281CD1A6
:10124000A0688078002818D1A068008A5749884291
:1012500013DD2168098F88B2002100F0C3F82168EE
:10126000098F88B2032100F0BDF8204601F053FE3B
:1012700000204D490870401E85E7A068807800284E
:1012800012D04948007804280ED12068406B0068CD
:1012900021684968421800233146204600F002FCCC
:1012A0000520414908707AE03F48007805281CD1A4
:1012B000A0688078002818D1A068008A3B4988423D
:1012C00013DD2168098F88B2002100F08BF82168B6
:1012D000098F88B2032100F085F8204601F01BFE3B
:1012E000002031490870401E4DE72F48007805283E
:1012F0000AD1A0688078002806D0204601F00BFEB5
:101300000620294908704AE02748007806281ED19F
:101310002046039A029901F067FC0546012D0BD186
:101320000720214908702068406B0023314602687D
:10133000204600F0B7FB32E0681C00282FD1204681
:1013400001F0E9FD002018490870401E1BE716480F
:101350000078072812D1A068807800280ED0204697
:1013600001F0D9FDA0680079002803D10E4908706A
:10137000012008E709200C49087010E00A480078AD
:1013800009280CD1204601F05DF8002807D020463E
:1013900001F0C1FD0020044908700120F3E600209F
:1013A000F1E60000A20300001A060020B80B0000BE
:1013B00070B504460D46204600F01DFA002801D005
:1013C000002070BDA0680101204610300818294691
:1013D0004EC94EC0A168481C5021FEF7ABFEA1606B
:1013E0000120EEE77CB505460C46002000900190F8
:1013F000104881786846017045708470032C0AD1CA
:101400000C48817A68460170002181700122082110
:1014100000F0D4FA0CE0002C01D0012C05D10122FF
:101420000821684600F0CAFA02E00020C0437CBDF3
:101430000020FCE72C000020F8B50246CD782F07ED
:101440003F0FCD7810263540002D01D08D782F43E9
:101450001446002011E085062B0E0D8801268640DB
:101460003540002D07D025680F269E40B5433E46E7
:101470009E4035432560451CE8B20828EBDB141D6F
:101480000D882D120095002011E085062B0E0125F8
:101490008540009E3540002D07D025680F269E40D0
:1014A000B5433E469E4035432560451CE8B20828BA
:1014B000EBDBCD78282D04D155690E883543556175
:1014C00006E0CD78482D03D115690E8835431561A6
:1014D000F8BD70B54D07EB0E082902DA0546203538
:1014E00001E0054624352C460F269E402568B5436D
:1014F00016469E403543256070BD0246D0680840C0
:10150000002801D0012070470020FCE741617047AE
:10151000016170470021C9430180022181700421CB
:10152000C17070470146002901D1044804E04A1EF9
:101530005201024B5833D0187047000040640040FD
:101540001CB504460020009001900748417A684687
:1015500001704470044841796846017001220821F5
:1015600000F02CFA00201CBD2C00002008B5012141
:101570000320400400F0BEFB6846FFF7CBFFF821D4
:10158000684601802821C17069460748FFF754FF6B
:101590000121C903684601802821C17069460920DC
:1015A000C006FFF749FF08BD00040048FEB5044629
:1015B0000D46192676017710E12080000290002D5B
:1015C00003DD102D01DC002C02D10020C043FEBD44
:1015D0006648007800280DD12068416B681E8000A5
:1015E0000A5800233146204600F05CFA01205F498A
:1015F0000870B8E05D480078012812D1A0688078B2
:1016000000280ED0A068008A5949884209DA7A4237
:1016100001232046029900F00DFA02205349087078
:10162000A1E05248007801281DD1A06880780028E8
:1016300019D1A068008A4E49884214DD2168098FBB
:1016400088B20021FFF7CEFE2168098F88B20321FE
:10165000FFF7C8FE002045490870204601F05BFCFA
:101660000020C043B3E741480078022820D1A16898
:10167000488AFEF787FD00223E4B01910090FEF75D
:101680008FFD15D2012300222046029900F0D2F9E5
:101690002168898F88B20021FFF7A4FE2168898F15
:1016A00088B20321FFF79EFE0320304908705AE0FC
:1016B0002E480078032824D1012D0FD12068416BDA
:1016C000681E800008582168496842180023304687
:1016D000C83001B2204600F0E5F90EE02068416B09
:1016E000681E8000085821684968421A0023304665
:1016F000C83001B2204600F0D5F904201B4908701B
:1017000031E01A480078042815D1A168088AFEF74C
:1017100039FD0022184B01910090FEF741FD0AD2DD
:101720002068012315498268204600F0BBF9052096
:101730000E49087017E00D480078052813D1A068FD
:10174000C07800280FD0A168488AFEF71BFD002250
:10175000094B01910090FEF723FD04D200200349BC
:101760000870012033E7002031E700001B0600204D
:101770007017000000C07240000059405502000080
:1017800008B50121880400F0B5FA0121480400F0F1
:10179000B1FA6846FFF7BEFE0121490268460180A2
:1017A000012181701021C17069460D48FFF744FE88
:1017B000082168460180012181701021C1706946AD
:1017C0000920C006FFF738FE012149020448FFF74F
:1017D0009FFE08210920C006FFF79AFE08BD000001
:1017E000000400480146CA688868904201D101207F
:1017F00070470020FCE710B50446A168481C502142
:10180000FEF798FCE068814201D1012010BD002064
:10181000FCE710B50446E268A168891A0846503012
:101820005021FEF787FC084610BD00007CB5064637
:101830000D461446002000900190002E03D0002D8C
:1018400004D0012D02D00020C0437CBD1148417856
:101850006846017030683830A900415C68464170C4
:101860000D480178684681700B480088011268466F
:10187000C17004712004010E684641712002010EFE
:1018800068468171210EC1710122082100F096F88D
:101890000020DAE72C0000203A0000207CB5044646
:1018A0000020009001904348407869460870002568
:1018B000002C01D100207CBD002577E0062100A886
:1018C0000230FEF754FC20683830A900415C6846BD
:1018D00041703948817868468170374840880112E4
:1018E0006846C17020681030A900415C68460171EB
:1018F0000122082100F062F82F48017A68468170C1
:101900002D48008901126846C17020681830A9006E
:10191000415C684601710122082100F04FF8264819
:10192000817A684681702448408901126846C170F6
:1019300020682030A900415C68460171012208211D
:1019400000F03CF81C48817D684681701A48C08AC6
:1019500001126846C17020682830A900415C6846C1
:10196000017120682830A900405A0004010E684621
:10197000417120682830A90040580002010E6846D5
:10198000817120682830A9004058010E6846C17155
:101990000122082100F012F821683831AA00895A82
:1019A00088B20321FFF71EFD681CC5B2022D85DB3E
:1019B000012080E72C0000203A000020F0B585B01F
:1019C00006460D461746002E01D0002D03D10020FB
:1019D000C04305B0F0BD00BF20211548FEF798FEBA
:1019E0000028F9D100BF10211148FEF791FE002810
:1019F000F9D100BF08210E48FEF78AFE0028F9D071
:101A000000976846457200200190002168460172E7
:101A1000002405E0315D02A802300155601CC4B20B
:101A2000AC42F7D3684600F053FD0020D1E7000038
:101A300000640040FEB506460F4614461D460020D1
:101A400000900190002E03D0002D04D0012D02D073
:101A50000020C043FEBD0021B06810306A008152F2
:101A60000F48417B6846017030683830A900415CFE
:101A70006846417087703804010E6846C170047171
:101A80002004010E684641712002010E68468171F2
:101A9000210EC17101220821FFF790FF0020D9E734
:101AA0002C000020FEB506460F4615461C460020B9
:101AB00000900190002E03D0002C04D0012C02D005
:101AC0000020C043FEBD0021B0681030620081528A
:101AD000A1B200223046FEF79BFF1048017968460C
:101AE000017030683830A100415C684641708770F1
:101AF0003804010E6846C17005712804010E68465D
:101B000041712802010E68468171290EC1710122BE
:101B10000821FFF753FF00BFD4E700002C0000208E
:101B2000FFB583B005460C4617460D9E002D03D029
:101B3000002C05D0012C03D00020C04307B0F0BD1D
:101B4000012221462846FEF763FF00200190029003
:101B50000021A8681030620081522E484178684602
:101B6000017128683830A100415C684641712A48FB
:101B70008178684681712848408801126846C171A1
:101B80000C9981720122082101A8FFF717FF224852
:101B90000179684681712048808801126846C171C8
:101BA00006723004010E684641723002010E68462A
:101BB0008172310EC1720122082101A8FFF7FEFED9
:101BC000144801786846017187713804010E68462F
:101BD000C1710698C1B26846017206980112684642
:101BE000417200218172C1720122082101A8FFF710
:101BF000E5FE0848C17A6846017101218171002122
:101C0000C171017241720122082101A8FFF7D6FEBD
:101C1000012093E72C0000203A000020F8B504468C
:101C20000D46164668460470457086700121C170E5
:101C300001F088F9F8BD00008178002925D0174906
:101C400003221202891802789210920089580278B1
:101C50009207D30EFF229A40914342789207120EC8
:101C600003789B07DB0E9A4011430C4A03231B02A7
:101C7000D21803789B109B00D1500178CA06D20E6F
:101C800001219140054A116007E00178CA06D20E91
:101C900001219140014A80321160704700E100E06B
:101CA00010B50849886BFFF74BFC0649C86BFFF776
:101CB00047FC0549886BFFF743FC0349C86BFFF7F6
:101CC0003FFC10BD7C050020BC05002010B50021A4
:101CD0000648C184818464210548FEF748FA6421DE
:101CE00002484038FEF743FA10BD0000700600209D
:101CF00098060020002905D0054A52690243044B8A
:101D00005A6104E0024A52698243014B5A617047AA
:101D100000100240002905D0054AD2690243044B55
:101D2000DA6104E0024AD2698243014BDA6170470A
:101D300000100240002905D0054A92690243044B75
:101D40009A6104E0024A92698243014B9A617047AA
:101D50000010024038B504460DA00068009000F065
:101D600051F8206000F01AF8606000F027F8A060D9
:101D700000F036F8E060074A5268074B1A40120933
:101D80006B46995CE068FEF7D5F9206138BD00002C
:101D900002040608001002407040000010B500F078
:101DA00031F804494968F02211400909024A515C9E
:101DB000C84010BD001002401400002010B5FFF70D
:101DC000EDFF05494968072212021140090A034A3A
:101DD000515CC84010BD00000010024014000020FB
:101DE00010B5FFF7DBFF054949680722D202114011
:101DF000C90A034A515CC84010BD000000100240EF
:101E000014000020F8B51B4840680C210840042845
:101E100002D0082828D101E0174C27E01548406877
:101E2000012109040840002809D0124840684900EF
:101E30000840002801D0114802E00F4800E0104897
:101E400007460C480068800E451C0A4800680721B8
:101E500009050840000D461C3946694308463146CD
:101E6000FEF768F9044601E0034C00BF00BF2046BE
:101E7000F8BD00000010024000127A0000093D0089
:101E8000001BB7001FB50446002C02D1401E04B051
:101E900010BD05200002201801692046884700284F
:101EA00012D005200002201869464269204690475A
:101EB00068468079042807DB01A80330FEF7BCFFE1
:101EC000002801D00120E2E70020E0E710B5044639
:101ED0002168098F88B20021FFF784FA2168098FF1
:101EE00088B20321FFF77EFA2168898F88B200212A
:101EF000FFF778FA2168898F88B20321FFF772FA19
:101F0000002010BDFEB504460D4616461F46002CA7
:101F100005D0002D03D0002E01D0002F02D10020CB
:101F2000C043FEBD2878002809D109984242012308
:101F300020460A99FFF77EFD0120287066E0287888
:101F4000012831D1A168488AFEF71CF90022304BE4
:101F500001910090FEF724F926D8012300222046A3
:101F60000A99FFF767FD30780F280DD12068406B84
:101F700031788900405821684968421A0023204678
:101F80000899FFF78FFD0CE02068406B31788900DD
:101F90004058216849684218002320460899FFF7F5
:101FA00081FD0220287031E0287802280ED1A06837
:101FB000807800280AD020680123FF2156318268EA
:101FC0002046FFF76FFD032028701FE028780328C4
:101FD00010D1A068C07800280CD02068406B317800
:101FE00089004258002320460899FFF75BFD042032
:101FF00028700BE02878042808D1A0688078002891
:1020000004D000202870012038708AE7002088E77B
:1020100000C06240FEB504460D4616461F46002C21
:1020200005D0002D03D0002E01D0002F02D10020BA
:10203000C043FEBD2878002808D101232046099A14
:102040000A99FFF7F7FC0120287092E02878012810
:1020500053D1A168488AFEF795F80022464B0191BA
:102060000090FEF79DF848D80123002220460A99E7
:10207000FFF7E0FC30780F2803D0A0680079002833
:102080002BD13078002811D1A068007900280DD11B
:102090002068406B317889004058216849684218AF
:1020A000002320460899FFF7FDFC0CE02068406BF8
:1020B00031788900405821684968421A0023204637
:1020C0000899FFF7EFFC206801232C49826820461D
:1020D000FFF7E8FC042028704BE02068406B317863
:1020E0008900405821684968421800232046089911
:1020F000FFF7D8FC022028703BE0287802280DD199
:10210000A0688078002809D0206801231B498268D4
:102110002046FFF7C7FC032028702AE0287804280F
:1021200011D1A068C07800280DD0A168488AFEF7B8
:1021300029F80022104B01910090FEF731F802D8E7
:102140000320387015E02878032812D1A068C078E1
:1021500000280ED0A168488AFEF714F80022084B28
:1021600001910090FEF71CF803D80020287002208F
:10217000387000205DE7000000C06240550200009A
:1021800000406040F8B504460D4616461F46002C38
:1021900005D0002D03D0002E01D0002F02D1002049
:1021A000C043F8BD2878002810D12068416B3078F2
:1021B000401C80000A58002320460699FFF772FC55
:1021C0003078401C30700120287025E028780128E4
:1021D00022D1A0688078002805D1A068408A7D219E
:1021E0000901884218DBA068408A7D2109018842E4
:1021F0000FDBA068C07800280BD12168898F88B2D6
:102200000021FFF7EFF82168898F88B20321FFF7DB
:10221000E9F80020287038700020C2E77FB5054635
:102220000C4601210803FFF785FD684600F0FAF827
:1022300004216846017000214180082101710221BA
:1022400041710021817101814481017369462846F1
:1022500000F0A2F80021284600F066F80121284687
:1022600000F062F80121284600F08AF87FBD08B529
:1022700001214804FFF73EFD002207210920C00686
:10228000FFF727F9002204210920C006FFF721F9F2
:10229000002206210920C006FFF71BF900220521B4
:1022A0000920C006FFF715F900F096FC6846FFF715
:1022B00031F9102168460180012181701821C17017
:1022C00069460920C006FFF7B7F82021684601805B
:1022D000012181701821C17069460920C006FFF7ED
:1022E000ABF8802168460180012181701821C170FE
:1022F00069460920C006FFF79FF840216846018023
:10230000012181704821C17069460920C006FFF78C
:1023100093F808BD70B504460D46FFF7A8FF29469F
:102320002046FFF77BFF70BD002906D0012909D0A8
:1023300002290CD0032914D10EE0826910231A431C
:1023400082610FE0826908231A4382610AE0826990
:1023500010239A43826105E0826908239A438261CF
:1023600000E000BF00BF7047002904D0826A520815
:102370005200826203E0826A01231A43826270473C
:10238000002904D0826901231A43826103E0826933
:1023900052085200826170474A880123DB029A4248
:1023A00003D182691A43826104E082690123DB025E
:1023B0009A438261826901239B029A430B891A43E3
:1023C0008261826904239A430B781A438261C2694D
:1023D00004239A430B7B1A43C261C26902239A43C6
:1023E0004B791A43C261C269520852008B791A4371
:1023F000C261C26908231A43C261026A120C120444
:102400004B891A4302620A79202A04DBC26A520904
:102410005201C26205E0C26A520952010B791A43A5
:10242000C2627047002101704180082101710021C2
:10243000417101218171002101810221418100212D
:1024400001737047FEB506467D242401A510E127DF
:10245000BF001C480078002806D001280ED00228B2
:1024600016D003282AD11CE0164B174A17493046CC
:10247000029701950094FFF745FD1FE0114B124AAA
:1024800012493046029701950094FFF7C3FD15E00D
:102490000C4B0D4A0D49304601950094FFF772FE32
:1024A0000CE0B0680079002807D106490870064999
:1024B0000870064908700120FEBD00BF00BF002063
:1024C000FAE7000017060020180600201906002071
:1024D0007FB5044600256068002811D02068C5003B
:1024E00001216846017105702804010E684641709B
:1024F0002802010E68468170280E6946C8700BE0FC
:10250000208845050021684601712802010E6846B1
:102510008170280E6946C870617A68468171217A97
:102520004171002606E020460A30815D01A8033093
:102530008155761C082EF6D36846FEF707FA7FBD54
:1025400010B500F001F810BD7FB500200390029097
:10255000594800680121090408435749086000BF31
:102560005548006801214904084002900398401C26
:1025700003900298002804D105210902039888429B
:10258000EED14D480068012149040840002809D0D7
:10259000012002907D252D0100BF28466D1E0028D8
:1025A000FBD101E000200290029801287ED143482F
:1025B00043490860434800681021084341490860C6
:1025C00008460068C008C00008603D490968481E08
:1025D0003D49FDF7AFFD04463A48006820433949BC
:1025E000086035484068344948600846406848609B
:1025F000334800683549884207D92F48406801218F
:10260000890208432C49486006E02B4840680121B4
:102610008902084328494860274840680321090483
:10262000884325494860084600680003000B08609D
:10263000084640680121090408431F4948606B4669
:1026400001AA1F4801682248FDF77CFE1A4800686D
:102650000003000B1849086069460879800609786C
:1026600009050843144909680843134908600846E6
:1026700000680121090608430F49086000BF0E48A1
:1026800000680121490608400028F8D00A4840683F
:1026900080088000084948600846406802210843D5
:1026A0000549486000BF0448406800E003E00C2191
:1026B00008400828F7D17FBD0010024000D8B805B7
:1026C000000000200020024000366E01005125026B
:1026D00000127A0010B500F06DF910BD10B5164863
:1026E00000680121084314490860084640681349FE
:1026F00008401149486008460068114908400E49E1
:102700000860084600680121890488430A49086076
:1027100008464068C32109048843074948600846C1
:10272000006808490840044908609F200004886048
:10273000FFF706FF10BD0000001002400CC0FFF8BC
:10274000FFFFF6FEFFFF8F0010B50121880700F0A4
:10275000D9F8002821D00121880700F0C3F8022110
:102760000E48FEF7CAFE002804D002210B48FEF7EF
:10277000CDFE03E002210948FEF7CAFE0121074809
:10278000FEF7BBFE002804D001210448FEF7BEFE80
:1027900003E001210148FEF7BBFE10BD0004004824
:1027A00010B50121204800F0ADF8002830D00121FB
:1027B0001D4800F097F8012149021C48FEF79DFED4
:1027C000002805D0012149021848FEF79FFE04E0C9
:1027D000012149021548FEF79BFE15484068401C40
:1027E000134948601348008A401C12490882084671
:1027F000408A401C81B20F4841820F48008A401C29
:102800000D4908820846408A401C81B20A4841822C
:1028100010210A48FDF77CFF002804D10448007805
:10282000401C0349087010BD00040040000400482B
:10283000540000200C070020200700200064004006
:102840003EB504460D4601210220FFF763FA6846B3
:1028500000F0A6F80194684605800021018181728C
:10286000817069460A4800F065F80121084800F0C7
:1028700029F80121064800F031F8012211460448E8
:1028800000F04DF80121024800F030F83EBD000094
:102890000004004010B5084908480068FDF74AFCEC
:1028A000401E84B221460648FFF7CAFF01220021DC
:1028B0001020FFF7B3F910BD40420F0000000020C8
:1028C000E7030000002904D0026880231A43026055
:1028D00003E0026880239A430260704702698A43DA
:1028E0000261704702698A4302617047002904D07F
:1028F000026801231A43026003E002685208520092
:1029000002607047024610690840002805D0D06870
:102910000840002801D0012070470020FCE7002A71
:1029200003D0C3680B43C36002E0C3688B43C3603A
:1029300070470000026803231B029A430B891A4365
:102940000260134A904206D001229207904202D0C0
:10295000104A904205D1026870239A438B781A433B
:1029600002600B4A904205D00B4A904202D00B4ABB
:10297000904205D1026B120A12028B7A1A4302634B
:102980004A68C2620A88826201224261704700007E
:10299000002C014000040040004401400048014078
:1029A0000021C94341600021018001818170817251
:1029B0007047000004480068002804D002480068FE
:1029C000401E0149086070472400002010B5022114
:1029D000184800F0A0F800282AD00221154800F07D
:1029E00089F81548C08C642802D100211248C1849E
:1029F00018E01148C08C642802D100210E48C1841F
:102A00000C4800F0D7F8C1B20B48C08C0A4A403AD3
:102A100011540948C08C401C81B20748C184074842
:102A2000FEF77AF90221034800F06CF80028E0D1A3
:102A300010BD0000003801407006002098060020FC
:102A400010B586B004461B21684601700321417011
:102A500001218170FFF7F0F801218803FFF76AF97F
:102A600001214804FFF746F901220921C806FEF7B3
:102A700030FD01220A210920C006FEF72AFD01A827
:102A800000F09CF8019430216846018100214181C9
:102A9000818101821821C18101A9154800F04EF8F9
:102AA00001220221124800F03FF80121104800F0F5
:102AB00023F805A8FEF72EFD012149026846818210
:102AC000012181751821C17505A90920C006FEF7ED
:102AD000B3FC01218902684681820421C17505A9E0
:102AE0000920C006FEF7A8FCFFF7F0F806B010BDFD
:102AF00000380140416170478269520852000A4320
:102B000082617047024690680840002801D0012089
:102B100070470020FCE70246D0680840002801D03A
:102B2000012070470020FCE7002A03D003690B4313
:102B3000036102E003698B430361704770B504468B
:102B40000D460026E0693021884329790843E06179
:102B5000E06944218843A9790843E061E06980087D
:102B60008000297A0843E061A069182188436989B7
:102B70000843A061A06904218843297B0843A06120
:102B80000B48844203D1FFF72BF9064602E0FFF71A
:102B900015F9064630462968FDF7CCFA000920628F
:102BA00030462968FDF7C6FA0007000F606270BD65
:102BB0000038014001464868C0B270474B21C90146
:102BC0000160302101710021817101721821418160
:102BD000002101737047000010B500210148FFF784
:102BE000C3FB10BD0030014070B504460D461646CB
:102BF00039480078002811D1012332462946204661
:102C0000FEF718FFA0684079002803D00120324960
:102C100008705FE00320304908705BE02E480078C0
:102C2000012803D02C480078022819D1A0684079E7
:102C3000002815D10123002229462046FEF7FAFE7E
:102C4000002201212046FEF7F1FD206801232349DF
:102C500082682046FEF726FF04201F49087039E0ED
:102C60001D480078042808D1A068C078002804D046
:102C7000002019490870012070BD1748007803280A
:102C800007D1A0684079002824D00220124908709A
:102C900020E011480021415600291BDDA068408A30
:102CA0000F49884216DB0123002229462046FEF701
:102CB000C1FE2168898F88B20021FEF793FB21684D
:102CC000898F88B20321FEF78DFB0020024908702E
:102CD000401ED1E70020CFE7140600205502000077
:102CE000B80B0000FEB50446FF262D36F527BF00C1
:102CF000FF20F53002903546002C01D1601EFEBD4C
:102D0000514800780C2806D10020504908704E49DF
:102D10000870401EF3E74D48007800280FD1206866
:102D2000C06821680978ABB200910190002120466B
:102D3000029AFEF7F5FE02204449087081E04348FC
:102D4000007802281AD1A0680078002816D1A0685F
:102D5000008A7D210901884210DD2168098F88B22F
:102D60000021FEF73FFB2168098F88B20321FEF79F
:102D700039FB0020C0433549087062E033480078D1
:102D8000022811D1A068007800280DD032463946BB
:102D90002046FFF729FF2D490870084600780028D3
:102DA0004FD1022008704CE0284900200856401CF2
:102DB00000280FD10521C90120680078ABB201912C
:102DC000009000212046029AFEF7AAFE03201F4928
:102DD000087036E01D48007803280DD1A0680078FF
:102DE000002809D001233022D9022046FEF722FE16
:102DF00004201649087024E014480078042815D1EE
:102E0000A068408A1921490188420FDD0123002270
:102E100019022046FEF70EFE0B480078401C40B217
:102E2000094908700020094908700AE0074800783D
:102E3000012806D1002005490870034908700120C7
:102E40005DE700205BE70000160600201506002065
:102E50002021020C01D010211046020A01D0104698
:102E60000839020901D01046091F820801D0104616
:102E7000891E420801D0881E7047081A704700005A
:102E800010B5002819DB1A4A03231B02D218830845
:102E90009B00D2588307DC0EFF23A3409A438B0785
:102EA0001B0E8407E40EA3401A43114B0324240293
:102EB0001B198408A4001A5118E00E4A03071B0FBF
:102EC000083B9B089B00D2588307DC0EFF23A340DE
:102ED0009A438B071B0E8407E40EA3401A43054B4D
:102EE0000407240F083CA408A4001A5110BD0000D8
:102EF00000E100E01CED00E002E008C8121F08C17C
:102F0000002AFAD170477047002001E001C1121F6A
:102F1000002AFBD1704710B504460122002120464B
:102F2000FDF776FD012211462046FDF771FD0022D6
:102F300011462046FDF76CFD002201212046FDF7D9
:102F400067FD10BDC178002925D017490322120260
:102F50008918027892109200895802789207D30E4D
:102F6000FF229A40914382789207120E03789B07C2
:102F7000DB0E9A4011430C4A03231B02D21803783C
:102F80009B109B00D1500178CA06D20E01219140BE
:102F9000054A116007E00178CA06D20E012191406E
:102FA000014A80321160704700E100E0FDF71AFF2E
:102FB000FEF7E6FBFEF7DAFAE1204002FFF740FDFC
:102FC000FFF768FC20212A48FFF7A4F92948FDF7FC
:102FD0001BFB2948FEF762FC48E0284800680028EF
:102FE00004D12548FEF7C0F824490860234800684A
:102FF000012808D101212048FEF7D8FA002802D084
:1030000002201E4908601D480068022808D10121DD
:103010001948FDF729FD002802D003201749086050
:1030200016480068032808D110211348FEF7BEFA9D
:10303000002802D0042011490860104800680428C4
:1030400008D110210C48FDF70FFD002802D0012007
:103050000A4908600A48FEF715FF094840681E281B
:1030600004D3FEF71DFE002005494860B5E70000C7
:103070000030014040420F00FC0500202C060020DB
:10308000540000206F110000421100003A110000AE
:1030900092110000BC1100007C110000831100009F
:1030A000CB110000C1110000B9110000B4110000E3
:1030B0009A1100009C11000091110000771100008E
:1030C000A81100000A000000780F0000CC1F0000CB
:1030D000E72F0000D73F0000C04F0000F05F000066
:1030E000BF6F0000B97F0000CA8F0000FD9F000085
:1030F00025B000001FC000005DD00000A9DF000067
:10310000EAEF00006F110000421100003A110000C8
:1031100092110000BC1100007C110000831100001E
:10312000CB110000C1110000B9110000B411000062
:103130009A1100009C11000091110000771100000D
:10314000A81100000A000000780F0000CC1F00004A
:10315000E72F0000D73F0000C04F0000F05F0000E5
:10316000BF6F0000B97F0000CA8F0000FD9F000004
:1031700025B000001FC000005DD00000A9DF0000E6
:10318000EAEF0000A4310008000000203006000033
:10319000EE02000844320008300600200805000056
:1031A000082F00081184D8B8056809010203040635
:1031B0000708090CA91049140027FF070A8A717231
:1031C0001276750878730B018002800380048009F1
:1031D000800B8008800C8040804180010205800EB9
:1031E0008001FF01FF01FF01FF01151313181408EF
:1031F00035111408B11302100823D007331201222D
:103200000C29072904815AFF04112C1068010413AA
:1032100084301B08C40429242A022C1909092A40D5
:103220001304311B08440432033204137C051B20B1
:103230007004130C071B20BC081A76041A200C011A
:043240001C0000006E
:04000005080000C12E
:00000001FF
