:020000040800F2
:10000000380B0020D500000801010008030100089A
:1000100000000000000000000000000000000000E0
:1000200000000000000000000000000005010008C2
:10003000000000000000000007010008A1190008EE
:100040000B0100080B0100080B0100080B01000860
:100050000B0100080B0100080B0100080B01000850
:100060000B0100080B0100080B0100080B01000840
:100070000B0100080B0100080B010008151A00080D
:100080006D1A000800000000000000000B010008CD
:10009000000000000B0100080B0100080B01000824
:1000A000000000000B0100080B010008991C00086B
:1000B0000B01000800000000DD0500080000000042
:1000C0000348854600F05EF80048004749220008D2
:1000D000380B00200D4880F308880D480D49016059
:1000E0000D480168090E0D4A914205D10C48094995
:1000F00001600C480C4901600C4880470C480047DF
:10010000FEE7FEE7FEE7FEE7FEE7FEE7380B00202E
:100110006020024001000000040000001F000000F9
:10012000181002400000014000000000A91900085A
:10013000C100000830B50B460146002020220124F2
:1001400009E00D46D5409D4205D31D469540491B0B
:100150002546954040191546521E002DF1DC30BD54
:10016000D2B201E00270401C491EFBD2704700224F
:10017000F6E710B513460A4604461946FFF7F0FFA6
:10018000204610BD064C0125064E05E0E36807CC6D
:100190002B430C3C98471034B442F7D3FFF794FF3D
:1001A000B0230008D023000870B58C180578401CD7
:1001B0006B075B0F01D10378401C2A1106D102782E
:1001C000401C03E006780E70401C491C5B1EF9D1F0
:1001D0002B0705D40023521E0DD40B70491CFAE7DF
:1001E0000378401CCB1A921C03E01D780D70491C4B
:1001F0005B1C521EF9D5A142D8D3002070BDFFB5BB
:1002000083B00C46029400200190002726E00026CF
:100210001CE0721C039951430846791CFFF78AFFC2
:100220000546A54201D9281B00E0601B054602983F
:10023000A84204D90295059806700698077002989E
:10024000002802D10120019002E0761C402EE0D36C
:1002500000BF0198002800D002E07F1C042FD6D3F5
:1002600000BF029807B0F0BDF7B584B0054616464A
:1002700003960120029000200190002700BF002E6D
:10028000FDD005980028FAD031460598FFF752FFB7
:1002900007467F08192413E021463846FFF74AFF36
:1002A0006043381A01900198002801D1029409E0B6
:1002B00003990198884202D2019803900294641E27
:1002C000032CE9D800BF0020287038460299FFF7B8
:1002D00031FF401E68700299C81E0321FFF72AFFF4
:1002E000E8700298C01EE978401A287107B0F0BD86
:1002F00041680822114341607047002100BFC16876
:10030000704741680422114341607047FFB586B0D1
:10031000074600200190384600F0E4FD0446022123
:1003200007980840002801D001200190002F36D006
:100330003846F917490F09184905090E0391F917AD
:10034000490F0918C910C900791AC9B20291039955
:1003500088005849401800900198002808D000985B
:100360000068012202998A4010430099086007E062
:100370000098016801220298824091430098016030
:10038000039880004B490C31401800900098006899
:10039000012202998A4010430099086013E00198F5
:1003A000002808D0434880380068082108434149A4
:1003B0008039086007E03F4880380068082188439A
:1003C0003C4980390860019801282AD10798C00764
:1003D000C00F002808D008980068C6000998006877
:1003E000C5000720054307E00898008846050998DE
:1003F0000088450530480543300E20603002000E6D
:1004000060603004000EA060F0B2E060280E206151
:100410002802000E60612804000EA061E8B2E061CD
:1004200045E0089806680998056808980068401C27
:10043000059009980068401C04900798C007C00FF9
:1004400000280ED0F600ED000598C0000590049835
:10045000C0000490194805431849049808430490C3
:100460000DE076056D05059840050590049840055A
:100470000490114805431049049808430490300E35
:1004800020603002000E6060280E20612802000EFD
:1004900060610598000EA06005980002000EE06003
:1004A0000498000EA06104980002000EE0610AB0FA
:1004B000F0BD000080640040FFFF1F00FFFF000050
:1004C00010B58EB0044600F03FF801211C4800F042
:1004D000EFF980211A4800F0C7F805A800F08EFF58
:1004E0000AA800F081F922460AA80799FFF7BCFE86
:1004F000002108A88172817341730AA800F0C8F82E
:10050000002003900F48019001AB03AA02210020B4
:10051000FFF7FCFE0121084600F0AAF80121802027
:1005200000F0A6F80121082000F0A2F801214020E7
:1005300000F09EF80021024800F0BAF90EB010BD9C
:1005400000640040FFFF00001CB50121480600F0D8
:1005500035FF0121084600F041FF0121480400F069
:100560001DFF01A800F0B6FC0121C9026846818088
:10057000012181710421C17101A90920C00600F087
:100580003BFC01210903684681800121817118210A
:10059000C17101A90920C00600F02EFC04220C2123
:1005A0000920C00600F075FC04220B210920C006BA
:1005B00000F06FFC1E21684601700021417001218E
:1005C000817000F0A3FE1CBD02469068084088427E
:1005D00001D1012070470020FCE7000070B51E48E3
:1005E000C468856880202040002807D14020204032
:1005F000002803D108202040002802D01648FFF729
:100600007CFE02202840002805D01348FFF770FE2A
:100610001148FFF772FEE007C00F00280AD00F480C
:1006200000F07CF80E480D4982690E489047002082
:100630000C4908700121084600F01AF801218020B9
:1006400000F016F80121082000F012F801214020E6
:1006500000F00EF870BD000000640040F0060020BD
:100660005405002054000020C26F0A43C26770473F
:10067000002905D0054A12690243044B1A6104E0BF
:10068000024A12698243014B1A61704700640040BC
:1006900001788901427811431F4A91618178C9012B
:1006A000C27812011143027911431B4AD161417989
:1006B000012906D11146096802221143164A116028
:1006C00005E01549096802229143134A11608179B6
:1006D000012906D110490968042211430E4A11600C
:1006E00005E00D490968042291430B4A1160C17964
:1006F000012906D10849096810221143064A1160F0
:1007000005E00549096810229143034A1160024A35
:10071000C1685163704700000064004010B5034693
:10072000304800684004000E18712E4800684006EA
:10073000C00F58712B4800680007000F9871187996
:10074000012820D027488068440926484068C00016
:1007500004431C602348C068D8712248006918729D
:100760002048406958721F48806998721D48C069C6
:10077000D8721C48006A18731A48406A587319489E
:10078000806A987329E017480069F8210840C40876
:100790001448C06840010443124880684003044381
:1007A00010484068400504431C600E484069D871F9
:1007B0000C48806918720B48C06958720948006A71
:1007C00098720848406AD8720648806A18730548CB
:1007D000C06A58730348006B987302484038FFF7AB
:1007E00090FD10BD40640040002141700170017116
:1007F000C170817041718171C17101729621C160B6
:10080000704700000179C901427992011143827950
:100810001143264A1160017901291AD0C17851602B
:100820008178E0221140214A9160417901292CD040
:10083000C179D160017A1161417A5161817A916106
:10084000C17AD161017B1162417B5162817B9162EE
:100850001BE0C178154A5160817891604178D16080
:1008600001781161417901290FD0C1795161017A73
:100870009161417AD161817A1162C17A5162017BC1
:100880009162417BD162817B1163084940390968DB
:1008900004221140002904D01221044A403A516038
:1008A00003E00321014A403A516070474064004030
:1008B000012904D1026801231A43026003E002689F
:1008C000520852000260704710B50346002B03D057
:1008D000002904D0012902D00020C04310BD002A05
:1008E00004D1002498680B30445417E0012A04D145
:1008F000002498680930445410E0032A0BD10020EA
:100900005C68605400245868001D44545868801C7A
:1009100044540120E2E70020C043DFE70020DDE788
:1009200010B504465AE02E48808C002808D12C4887
:10093000808C2B494039095C2948808C21543EE049
:100940002748808C642802D10021254881842548CD
:100950000078322807DB64212348FFF708FC0020D9
:100960002049087010BD1E48808C1D494039085C24
:10097000002800D1F6E71A48808C19494039085CF4
:100980000A2814D11648808C095C1548808C2154A3
:100990001348808C401C81B211488184818C40387E
:1009A000FFF7E5FB00200F4908700120DAE70C484B
:1009B000808C0B494039095C0948808C21540848D7
:1009C000808C401C81B206488184818C4038FFF7BE
:1009D000CEFB04480078401C02490870A3E70000E1
:1009E00064060020280000208C06002010B57D2120
:1009F000C90010480068FFF79DFB0446601E0E49C1
:100A0000884201D901200CE0601E0C494861032195
:100A1000081F01F099FB0020084988610720086140
:100A20000020002801D000BFFEE70021481E01F091
:100A30008BFB10BD00000020FFFFFF0000E000E086
:100A400010B50446002C01D1401E10BD2078F028BE
:100A500012D16078B349896B88420DD16078B24970
:100A60000870A0780871E0788870AE49098F88B264
:100A7000032100F097F915E02078F02812D1617871
:100A8000A848C06B81420DD16078A7494870A17811
:100A9000A5484171E178C170A249898F88B20321CC
:100AA00000F080F92078F02812D160789F49896B96
:100AB00088420DD160789E490870A0780871E0786E
:100AC00088709A49098F88B2032100F06BF927E1F9
:100AD0002078F02813D161789448C06B81420ED100
:100AE000607893494870A17891484171E178C1706C
:100AF0008E49898F88B2032100F054F910E12078E3
:100B0000712823D160788749896B88421ED120796A
:100B100088490861084600696179090208438549E6
:100B2000086108460069A179090408438149086100
:100B300008460069E179090608437E490861E078C2
:100B40002021084040117B494873E9E02078712852
:100B500022D161787348C06B81421DD121797548DB
:100B60004161406961790902084372494861084658
:100B70004069A179090408436E4948610846406903
:100B8000E179090608436B494861E0782021084073
:100B9000411168488173C3E02078712823D16078BF
:100BA0006249896B88421ED12079634908610846F1
:100BB00000696179090208435F49086108460069D4
:100BC000A179090408435C49086108460069E17994
:100BD0000906084358490861E0782021084040117F
:100BE000554948739CE02078712822D161784F489C
:100BF000C06B81421DD121794F48416140696179C3
:100C0000090208434C49486108464069A179090432
:100C100008434949486108464069E17909060843A3
:100C200045494861E07820210840411142488173DC
:100C300076E02078152808D160783A49896B884297
:100C400003D101203B49C8726AE02078152808D1F9
:100C500061783448C06B814203D10121354801736A
:100C60005EE02078152808D160783049896B884289
:100C700003D101203049C87252E02078152808D1EC
:100C800061782A48C06B814203D101212A4801734F
:100C900046E0207878280ED160782249896B884216
:100CA00009D1A078012806D1E078002803D10120DD
:100CB0002049487234E0207878280ED161781948AC
:100CC000C06B814209D1A078012806D1E0780028C4
:100CD00003D101211748817222E0207878280ED1B3
:100CE00060781249896B884209D1A078012806D121
:100CF000E078002803D101200F49487210E02078E5
:100D000078280DD161780948C06B814208D1A0785C
:100D1000012805D1E078002802D10121064881721E
:100D2000012092E67C05002070050020BC05002013
:100D300076050020000700201C07002070B504463F
:100D40000D46204600F02EF9002801D0002070BD8D
:100D5000E0680101204610300B180FCB2E460FC65D
:100D6000E168481C5021FFF7E5F9E1600120EEE75A
:100D700070B504460D46204600F01DF9002801D04C
:100D8000002070BDA06801012046103008182946D7
:100D90004EC94EC0A168481C5021FFF7CBF9A16095
:100DA0000120EEE77CB505460C460020009001903E
:100DB000104881786846017045708470032C0AD110
:100DC0000C48817A68460170002181700122082157
:100DD00000F09CF90CE0002C01D0012C05D101227F
:100DE0000821684600F092F902E00020C0437CBD73
:100DF0000020FCE72C000020F8B50246CD782F0734
:100E00003F0FCD7810263540002D01D08D782F432F
:100E10001446002011E085062B0E0D880126864021
:100E20003540002D07D025680F269E40B5433E462D
:100E30009E4035432560451CE8B20828EBDB141DB5
:100E40000D882D120095002011E085062B0E01253E
:100E50008540009E3540002D07D025680F269E4016
:100E6000B5433E469E4035432560451CE8B2082800
:100E7000EBDBCD78282D04D155690E8835435561BB
:100E800006E0CD78482D03D115690E8835431561EC
:100E9000F8BD70B54D07EB0E082902DA054620357E
:100EA00001E0054624352C460F269E402568B543B3
:100EB00016469E403543256070BD0246D068084006
:100EC000002801D0012070470020FCE741617047F5
:100ED000016170470021C943018002218170042112
:100EE000C17070470146002901D1044804E04A1E40
:100EF0005201024B5833D018704700004064004044
:100F000008B501210320400400F048FA6846FFF7C5
:100F1000E1FFF821684601802821C1706946074831
:100F2000FFF76AFF0121C903684601802821C170CB
:100F300069460920C006FFF75FFF08BD00040048AE
:100F400008B50121880400F029FA0121480400F0C5
:100F500025FA6846FFF7BEFF012149026846018075
:100F6000012181701021C17069460D48FFF744FFCF
:100F7000082168460180012181701021C1706946F5
:100F80000920C006FFF738FF012149020448FFF796
:100F90009FFF08210920C006FFF79AFF08BD000047
:100FA000000400480146CA688868904201D10120C7
:100FB00070470020FCE710B50446A168481C50218A
:100FC000FFF7B8F8E068814201D1012010BD002090
:100FD000FCE710B50446E268A168891A084650305B
:100FE0005021FFF7A7F8084610BD00007CB5044665
:100FF0000020009001904348407869460870002521
:10100000002C01D100207CBD002577E0062100A83E
:101010000230FFF7ACF820683830A900415C684620
:10102000417039488178684681703748408801129C
:101030006846C17020681030A900415C68460171A3
:101040000122082100F062F82F48017A6846817079
:101050002D48008901126846C17020681830A90027
:10106000415C684601710122082100F04FF82648D2
:10107000817A684681702448408901126846C170AF
:1010800020682030A900415C6846017101220821D6
:1010900000F03CF81C48817D684681701A48C08A7F
:1010A00001126846C17020682830A900415C68467A
:1010B000017120682830A900405A0004010E6846DA
:1010C000417120682830A90040580002010E68468E
:1010D000817120682830A9004058010E6846C1710E
:1010E0000122082100F012F821683831AA00895A3B
:1010F00088B20321FFF756FE681CC5B2022D85DBBE
:10110000012080E72C0000203A000020F0B585B0D7
:1011100006460D461746002E01D0002D03D10020B3
:10112000C04305B0F0BD00BF20211548FFF74CFAC1
:101130000028F9D100BF10211148FFF745FA002817
:10114000F9D100BF08210E48FFF73EFA0028F9D078
:1011500000976846457200200190002168460172A0
:10116000002405E0315D02A802300155601CC4B2C4
:10117000AC42F7D3684600F011FB0020D1E7000035
:1011800000640040FEB506460F4614461D4600208A
:1011900000900190002E03D0002D04D0012D02D02C
:1011A0000020C043FEBD0021B06818306A008152A3
:1011B0000F48417B6846017030683830A900415CB7
:1011C0006846417087703804010E6846C17004712A
:1011D0002004010E684641712002010E68468171AB
:1011E000210EC17101220821FFF790FF0020D9E7ED
:1011F0002C000020FFB583B005460C4617460D9E17
:10120000002D03D0002C05D0012C03D00020C043BA
:1012100007B0F0BD012221462846FFF755FB00200C
:10122000019002900021A8681830620081522E4877
:1012300041786846017128683830A100415C6846F1
:1012400041712A4881786846817128484088011296
:101250006846C1710C9981720122082101A8FFF72B
:1012600055FF224801796846817120488088011223
:101270006846C17106723004010E68464172300240
:10128000010E68468172310EC1720122082101A847
:10129000FFF73CFF144801786846017187713804F4
:1012A000010E6846C1710698C1B26846017206987F
:1012B00001126846417200218172C1720122082127
:1012C00001A8FFF723FF0848C17A68460171012190
:1012D00081710021C171017241720122082101A8AE
:1012E000FFF714FF012093E72C0000203A000020B4
:1012F000F8B504460D46164668460470457086707B
:101300000121C17000F06CFFF8BD00008178002958
:1013100025D01749032212028918027892109200F0
:10132000895802789207D30EFF229A40914342785F
:101330009207120E03789B07DB0E9A4011430C4A6A
:1013400003231B02D21803789B109B00D150017815
:10135000CA06D20E01219140054A116007E00178CA
:10136000CA06D20E01219140014A803211607047B5
:1013700000E100E010B500210648C18481846421A9
:101380000548FEF7F4FE642102484038FEF7EFFE00
:1013900010BD0000640600208C060020002905D046
:1013A000054A52690243044B5A6104E0024A5269F9
:1013B0008243014B5A61704700100240002905D05A
:1013C000054AD2690243044BDA6104E0024AD26959
:1013D0008243014BDA61704700100240002905D0BA
:1013E000054A92690243044B9A6104E0024A9269F9
:1013F0008243014B9A6170470010024038B50446A1
:101400000DA00068009000F051F8206000F01AF87C
:10141000606000F027F8A06000F036F8E060074A4E
:101420005268074B1A4012096B46995CE068FEF758
:1014300081FE206138BD0000020406080010024051
:101440007040000010B500F031F804494968F022FE
:1014500011400909024A515CC84010BD0010024009
:101460001400002010B5FFF7EDFF05494968072279
:1014700012021140090A034A515CC84010BD000025
:10148000001002401400002010B5FFF7DBFF0549F3
:1014900049680722D2021140C90A034A515CC84078
:1014A00010BD00000010024014000020F8B51B48D9
:1014B00040680C210840042802D0082828D101E007
:1014C000174C27E01548406801210904084000280E
:1014D00009D01248406849000840002801D011484E
:1014E00002E00F4800E0104807460C480068800EF4
:1014F000451C0A480068072109050840000D461CE4
:101500003946694308463146FEF714FE044601E0B9
:10151000034C00BF00BF2046F8BD00000010024091
:1015200000127A0000093D00001BB7001FB50446F9
:10153000002C02D1401E04B010BD0520000220186E
:10154000016920468847002812D005200002201893
:10155000694642692046904768468079042807DB3F
:1015600001A80330FFF76CFA002801D00120E2E760
:101570000020E0E77FB505460C4601210803FFF790
:101580002DFF684600F0FAF804216846017000213A
:101590004180082101710221417100218171018185
:1015A000448101736946284600F0A2F800212846CC
:1015B00000F066F80121284600F062F80121284673
:1015C00000F08AF87FBD08B501214804FFF7E6FE68
:1015D000002207210920C006FFF75BFC002204213E
:1015E0000920C006FFF755FC002206210920C0068D
:1015F000FFF74FFC002205210920C006FFF749FC38
:1016000000F050FC6846FFF765FC10216846018039
:10161000012181701821C17069460920C006FFF7B9
:10162000EBFB202168460180012181701821C170E7
:1016300069460920C006FFF7DFFB8021684601806C
:10164000012181701821C17069460920C006FFF789
:10165000D3FB402168460180012181704821C1707F
:1016600069460920C006FFF7C7FB08BD70B50446F0
:101670000D46FFF7A8FF29462046FFF77BFF70BD08
:10168000002906D0012909D002290CD0032914D140
:101690000EE0826910231A4382610FE082690823F9
:1016A0001A4382610AE0826910239A43826105E04D
:1016B000826908239A43826100E000BF00BF70473F
:1016C000002904D0826A52085200826203E0826AD2
:1016D00001231A4382627047002904D082690123E2
:1016E0001A43826103E082695208520082617047A6
:1016F0004A880123DB029A4203D182691A4382613C
:1017000004E082690123DB029A438261826901233A
:101710009B029A430B891A438261826904239A438C
:101720000B781A438261C26904239A430B7B1A43E4
:10173000C261C26902239A434B791A43C261C269EA
:10174000520852008B791A43C261C26908231A43B6
:10175000C261026A120C12044B891A4302620A79AE
:10176000202A04DBC26A52095201C26205E0C26A41
:10177000520952010B791A43C2627047002101706D
:1017800041800821017100214171012181710021F5
:101790000181022141810021017370477FB5044618
:1017A00000256068002811D02068C5000121684626
:1017B000017105702804010E684641702802010E6F
:1017C00068468170280E6946C8700BE02088450580
:1017D0000021684601712802010E68468170280EBA
:1017E0006946C870617A68468171217A4171002624
:1017F00006E020460A30815D01A803308155761C41
:10180000082EF6D36846FEF7FDFF7FBD10B500F049
:1018100001F810BD7FB50020039002905948006880
:101820000121090408435749086000BF5548006872
:1018300001214904084002900398401C039002983B
:10184000002804D10521090203988842EED14D48B1
:101850000068012149040840002809D001200290B5
:101860007D252D0100BF28466D1E0028FBD101E01B
:1018700000200290029801287ED143484349086025
:101880004348006810210843414908600846006841
:10189000C008C00008603D490968481E3D49FEF780
:1018A00049FC04463A4800682043394908603548F5
:1018B00040683449486008464068486033480068DA
:1018C0003549884207D92F484068012189020843D9
:1018D0002C49486006E02B484068012189020843F2
:1018E000284948602748406803210904884325495E
:1018F0004860084600680003000B0860084640681E
:101900000121090408431F4948606B4601AA1F488A
:1019100001682248FEF773FC1A4800680003000BB8
:10192000184908606946087980060978090508435E
:1019300014490968084313490860084600680121F2
:10194000090608430F49086000BF0E4800680121DE
:10195000490608400028F8D00A48406880088000FE
:101960000849486008464068022108430549486024
:1019700000BF0448406800E003E00C21084008284C
:10198000F7D17FBD0010024000D8B805000000204C
:101990000020024000366E010051250200127A003C
:1019A00010B500F06DF910BD10B5164800680121A2
:1019B0000843144908600846406813490840114923
:1019C000486008460068114908400E49086008460A
:1019D00000680121890488430A4908600846406874
:1019E000C32109048843074948600846006808493C
:1019F0000840044908609F2000048860FFF706FF44
:101A000010BD0000001002400CC0FFF8FFFFF6FE02
:101A1000FFFF8F0010B50121880700F0D9F80028DA
:101A200021D00121880700F0C3F802210E48FFF7FA
:101A300044FA002804D002210B48FFF747FA03E0DC
:101A400002210948FFF744FA01210748FFF735FA58
:101A5000002804D001210448FFF738FA03E00121EF
:101A60000148FFF735FA10BD0004004810B5012108
:101A7000204800F0ADF8002830D001211D4800F0CA
:101A800097F8012149021C48FFF717FA002805D0F2
:101A9000012149021848FFF719FA04E0012149021F
:101AA0001548FFF715FA15484068401C134948606F
:101AB0001348008B401C124908830846408B401C89
:101AC00081B20F4841830F48008B401C0D490883A9
:101AD0000846408B401C81B20A48418310210A48C5
:101AE000FEF772FD002804D104480078401C034929
:101AF000087010BD0004004000040048540000209D
:101B0000000700201C070020006400403EB504468A
:101B10000D4601210220FFF751FC684600F0A6F8AF
:101B200001946846058000210181817281706946B7
:101B30000A4800F065F80121084800F029F8012161
:101B4000064800F031F801221146044800F04DF833
:101B50000121024800F030F83EBD000000040040C2
:101B600010B5084908480068FEF7E4FA401E84B240
:101B700021460648FFF7CAFF012200211020FFF787
:101B8000B7FB10BD40420F0000000020E70300003B
:101B9000002904D0026880231A43026003E002682F
:101BA00080239A430260704702698A43026170474A
:101BB00002698A4302617047002904D00268012348
:101BC0001A43026003E00268520852000260704744
:101BD000024610690840002805D0D0680840002857
:101BE00001D0012070470020FCE7002A03D0C36821
:101BF0000B43C36002E0C3688B43C36070470000BF
:101C0000026803231B029A430B891A430260134A9A
:101C1000904206D001229207904202D0104A904290
:101C200005D1026870239A438B781A4302600B4AED
:101C3000904205D00B4A904202D00B4A904205D107
:101C4000026B120A12028B7A1A4302634A68C2625A
:101C50000A8882620122426170470000002C014024
:101C60000004004000440140004801400021C943F5
:101C70004160002101800181817081727047000004
:101C800004480068002804D002480068401E01494A
:101C9000086070472400002010B50221184800F0A9
:101CA000A0F800282AD00221154800F089F815482C
:101CB000C08C642802D100211248C18418E0114868
:101CC000C08C642802D100210E48C1840C4800F069
:101CD000D7F8C1B20B48C08C0A4A403A115409489F
:101CE000C08C401C81B20748C1840748FEF718FE2B
:101CF0000221034800F06CF80028E0D110BD00007C
:101D000000380140640600208C06002010B586B023
:101D100004461B2168460170032141700121817036
:101D2000FFF7F4FA01218803FFF758FB012148046B
:101D3000FFF734FB01220921C806FFF7AAF80122A8
:101D40000A210920C006FFF7A4F801A800F09CF8BA
:101D50000194302168460181002141818181018205
:101D60001821C18101A9154800F04EF80122022175
:101D7000124800F03FF80121104800F023F805A8B0
:101D8000FFF7A8F801214902684681820121817587
:101D90001821C17505A90920C006FFF72DF80121FA
:101DA0008902684681820421C17505A90920C006FF
:101DB000FFF722F8FFF7DEFA06B010BD0038014049
:101DC000416170478269520852000A43826170473C
:101DD000024690680840002801D00120704700208A
:101DE000FCE70246D0680840002801D00120704777
:101DF0000020FCE7002A03D003690B43036102E0E3
:101E000003698B430361704770B504460D46002695
:101E1000E0693021884329790843E061E069442181
:101E20008843A9790843E061E06980088000297A45
:101E30000843E061A0691821884369890843A061CB
:101E4000A06904218843297B0843A0610B48844290
:101E500003D1FFF719FB064602E0FFF703FB064636
:101E600030462968FEF766F9000920623046296885
:101E7000FEF760F90007000F606270BD0038014096
:101E800001464868C0B270474B21C901016030214A
:101E900001710021817101721821418100210173BA
:101EA0007047000010B500210148FFF709FC10BD84
:101EB000003001407CB504460D461646002C01D189
:101EC000401E7CBDA068C07800280FD120688068C3
:101ED00021684978ABB232B20091019001212046CD
:101EE000FFF788F90120A168C87076E0A068807AC1
:101EF00000281BD10321A0684156002916DDA068E7
:101F0000408B7D210901884210DB2168898F88B2CE
:101F10000021FEF747FF2168898F88B20321FEF771
:101F200041FF0020A168C870401ECAE7A068807AFF
:101F3000002813D0A068C07801280FD120688068DD
:101F400021684978ABB232B200910190012120465C
:101F5000FFF750F90220A168C8703EE0A068807ABF
:101F6000002813D0A068C07802280FD120688068AC
:101F700021684978ABB232B200910190012120462C
:101F8000FFF738F90320A168C87026E0A068807ABE
:101F9000002815D0A068C078032811D12068806877
:101FA0000F49401A21684978ABB232B200910190D2
:101FB00001212046FFF71EF90420A168C8700CE03B
:101FC000A068807A002808D0A068C078042804D1CE
:101FD0000020A168C870012073E7002071E70000AD
:101FE00098080000FEB50446FF262D36F527BF00F1
:101FF0001920400102903546002C01D1601EFEBD23
:10200000A06880780C2806D10020A1684870A168DB
:102010008870401EF3E7A068407800280FD1206840
:10202000C06821680978ABB2009101900021204678
:10203000029AFFF7DFF80220A168487082E0A068EA
:10204000407802281AD1A068407A002816D1A068EA
:10205000008B7D210901884210DD2168098F88B23B
:102060000021FEF79FFE2168098F88B20321FEF749
:1020700099FE0020C043A168487063E0A0684078E2
:10208000022812D1A068407A00280ED03246394684
:102090002046FFF70FFFA1684870A068407800282D
:1020A00050D10220A16848704CE00120A168085678
:1020B000401C00280FD10521C90120680078ABB26F
:1020C0000191009000212046029AFFF793F8032027
:1020D000A168487036E0A068407803280DD1A06858
:1020E000407A002809D001239022D9022046FFF728
:1020F00049F80420A168487024E0A06840780428CA
:1021000015D1A068408BFF21913188420FDD01235A
:102110000022D9022046FFF735F8A0688078401CDD
:1021200040B2A16888700020A16848700AE0A068E9
:102130004078012806D10020A1684870A168887005
:1021400001205CE700205AE710B5002819DB1A4A85
:1021500003231B02D21883089B00D2588307DC0E8E
:10216000FF23A3409A438B071B0E8407E40EA34072
:102170001A43114B032424021B198408A4001A518A
:1021800018E00E4A03071B0F083B9B089B00D25820
:102190008307DC0EFF23A3409A438B071B0E8407A3
:1021A000E40EA3401A43054B0407240F083CA4087F
:1021B000A4001A5110BD000000E100E01CED00E099
:1021C00002E008C8121F08C1002AFAD17047704700
:1021D000002001E001C1121F002AFBD1704700005E
:1021E000C178002925D017490322120289180278E4
:1021F00092109200895802789207D30EFF229A40DB
:10220000914382789207120E03789B07DB0E9A4067
:1022100011430C4A03231B02D21803789B109B0026
:10222000D1500178CA06D20E01219140054A1160B1
:1022300007E00178CA06D20E01219140014A80329E
:102240001160704700E100E0FEF7D0FBFEF778FE7A
:10225000FEF756FEE1204002FFF758FDFFF780FC35
:1022600020210D48FFF702FA0C48FEF729F90C4827
:10227000FEF7BCFE0B48FEF7B9FE0BE00A4800680B
:10228000002804D10648FFF7ADFE0749086007485B
:10229000FFF74CF9F2E700000030014040420F0028
:1022A000FC05002008060020200600205400002025
:1022B0006F110000421100003A110000921100005D
:1022C000BC1100007C11000083110000CB11000044
:1022D000C1110000B9110000B41100009A110000F2
:1022E0009C1100009111000077110000A81100005E
:1022F0000A000000780F0000CC1F0000E72F00004C
:10230000D73F0000C04F0000F05F0000BF6F00002B
:10231000B97F0000CA8F0000FD9F000025B00000BB
:102320001FC000005DD00000A9DF0000EAEF000040
:102330006F110000421100003A11000092110000DC
:10234000BC1100007C11000083110000CB110000C3
:10235000C1110000B9110000B41100009A11000071
:102360009C1100009111000077110000A8110000DD
:102370000A000000780F0000CC1F0000E72F0000CB
:10238000D73F0000C04F0000F05F0000BF6F0000AB
:10239000B97F0000CA8F0000FD9F000025B000003B
:1023A0001FC000005DD00000A9DF0000EAEF0000C0
:1023B000D02300080000002024060000A801000827
:1023C000742400082406002014050000D021000811
:1023D0001184D8B805680901020304060708090C2E
:1023E000A91049140027FF070A8A7172127675082E
:1023F00078730B018002800380048009800B8008C1
:10240000800C8040804180010205800E8001FF0128
:10241000FF01FF01FF011513D30F14083D0D1B0829
:102420007104011023D007336009220C3201290402
:102430004129085AFF04112C1068010413B0221B13
:1024400008F004291C9A02402DDDFFFFFF40011017
:10245000E9401330231B08700432033204137C0557
:102460001B2070041112071B20BC081A76041A1CCA
:042470000C0110004B
:04000005080000C12E
:00000001FF
