:020000040800F2
:10000000D0050020D5000008010100080301000808
:1000100000000000000000000000000000000000E0
:1000200000000000000000000000000005010008C2
:1000300000000000000000000701000899160008F9
:100040000B0100080B0100080B0100080B01000860
:100050000B0100080B0100080B0100080B01000850
:100060000B0100080B0100080B0100080B01000840
:100070000B0100080B0100080B0100080D17000818
:100080006517000800000000000000000B010008D8
:10009000000000000B0100080B0100080B01000824
:1000A000000000000B0100080B0100085D190008AA
:1000B0000B01000800000000890500080000000096
:1000C0000348854600F05EF800480047791C0008A8
:1000D000D00500200D4880F308880D480D490160C7
:1000E0000D480168090E0D4A914205D10C48094995
:1000F00001600C480C4901600C4880470C480047DF
:10010000FEE7FEE7FEE7FEE7FEE7FEE7D00500209C
:100110006020024001000000040000001F000000F9
:10012000181002400000014000000000A116000865
:10013000C100000830B50B460146002020220124F2
:1001400009E00D46D5409D4205D31D469540491B0B
:100150002546954040191546521E002DF1DC30BD54
:10016000D2B201E00270401C491EFBD2704700224F
:10017000F6E710B513460A4604461946FFF7F0FFA6
:10018000204610BD064C0125064E05E0E36807CC6D
:100190002B430C3C98471034B442F7D3FFF794FF3D
:1001A000E41C0008041D0008FFB583B00C4602944F
:1001B00000200190002726E000261CE0721C039915
:1001C00051430846791CFFF7B5FF0546A54201D902
:1001D000281B00E0601B05460298A84204D902953E
:1001E00005980670069807700298002802D1012031
:1001F000019002E0761C402EE0D300BF0198002859
:1002000000D002E07F1C042FD6D300BF029807B0B5
:10021000F0BDF7B584B0054616460396012002905E
:1002200000200190002700BF002EFDD00598002877
:10023000FAD031460598FFF77DFF07467F0819245D
:1002400013E021463846FFF775FF6043381A0190E6
:100250000198002801D1029409E00399019888428D
:1002600002D2019803900294641E032CE9D800BFC7
:100270000020287038460299FFF75CFF401E687026
:100280000299C81E0321FFF755FFE8700298C01EAF
:10029000E978401A287107B0F0BD4168082211437F
:1002A00041607047002100BFC16870474168042267
:1002B0001143416070470000FFB586B0074600203B
:1002C0000190384600F0BAFC044602210798084025
:1002D000002801D001200190002F36D03846F917B0
:1002E000490F09184905090E0391F917490F091813
:1002F000C910C900791AC9B20291039988005849F6
:10030000401800900198002808D000980068012249
:1003100002998A4010430099086007E0009801683C
:100320000122029882409143009801600398800066
:100330004B490C3140180090009800680122029946
:100340008A4010430099086013E00198002808D003
:1003500043488038006808210843414980390860D3
:1003600007E03F4880380068082188433C498039CD
:100370000860019801282AD10798C007C00F0028FB
:1003800008D008980068C60009980068C5000720D2
:10039000054307E008980088460509980088450548
:1003A00030480543300E20603002000E606030049B
:1003B000000EA060F0B2E060280E20612802000E5E
:1003C00060612804000EA061E8B2E06145E0089891
:1003D00006680998056808980068401C0590099807
:1003E0000068401C04900798C007C00F00280ED07A
:1003F000F600ED000598C00005900498C000049038
:100400001948054318490498084304900DE07605FF
:100410006D05059840050590049840050490114825
:1004200005431049049808430490300E20603002C0
:10043000000E6060280E20612802000E60610598A1
:10044000000EA06005980002000EE0600498000E07
:10045000A06104980002000EE0610AB0F0BD000047
:1004600080640040FFFF1F00FFFF000010B58EB04A
:10047000044600F03FF801211C4800F009FA8021F1
:100480001A4800F0E1F805A800F022FE0AA800F0E2
:100490009BF922460AA80799FFF7BBFE002108A88E
:1004A0008172817341730AA800F0E2F80020039082
:1004B0000F48019001AB03AA02210020FFF7FCFEC8
:1004C0000121084600F0C4F80121802000F0C0F8A6
:1004D0000121082000F0BCF80121402000F0B8F80C
:1004E0000021024800F0D4F90EB010BD00640040B5
:1004F000FFFF00001CB50121480600F0C9FD0121E5
:10050000084600F0D5FD0121480400F0B1FD01A826
:1005100000F08CFB0121C9026846818001218171B4
:100520000421C17101A90920C00600F011FB0121BD
:10053000090368468180012181711821C17101A9D7
:100540000920C00600F004FB04220C210920C0068B
:1005500000F04BFB04220B210920C00600F045FBF4
:100560001E2168460170002141700121817000F058
:1005700037FD1CBD024690680840884201D1012029
:1005800070470020FCE7000070B52B48C468856800
:1005900080202040002807D140202040002803D19F
:1005A00008202040002802D02348FFF77BFE0220CD
:1005B0002840002805D02048FFF76FFE1E48FFF7AF
:1005C00071FEE007C00F002825D01C4800F096F807
:1005D00000201B49087018E01848C01D1849097808
:1005E000415C1848C26DC01C8154C11EC96D481CB5
:1005F0005021FFF79FFD1348C16500201149887005
:100600000F480078401C0E4908700C4880790C494E
:1006100009788842E0DC0121084600F019F8012140
:10062000802000F015F80121082000F011F80121C8
:10063000402000F00DF870BD00640040BC010020B7
:100640002C00002054000020C26F0A43C26770478C
:10065000002905D0054A12690243044B1A6104E0DF
:10066000024A12698243014B1A61704700640040DC
:1006700001788901427811431F4A91618178C9014B
:10068000C27812011143027911431B4AD1614179A9
:10069000012906D11146096802221143164A116048
:1006A00005E01549096802229143134A11608179D6
:1006B000012906D110490968042211430E4A11602C
:1006C00005E00D490968042291430B4A1160C17984
:1006D000012906D10849096810221143064A116010
:1006E00005E00549096810229143034A1160024A56
:1006F000C1685163704700000064004010B50346B4
:10070000304800684004000E18712E48006840060A
:10071000C00F58712B4800680007000F98711879B6
:10072000012820D027488068440926484068C00036
:1007300004431C602348C068D871224800691872BD
:100740002048406958721F48806998721D48C069E6
:10075000D8721C48006A18731A48406A58731948BE
:10076000806A987329E017480069F8210840C40896
:100770001448C068400104431248806840030443A1
:1007800010484068400504431C600E484069D87119
:100790000C48806918720B48C06958720948006A91
:1007A00098720848406AD8720648806A18730548EB
:1007B000C06A58730348006B987302484038FFF7CB
:1007C00075FD10BD40640040002141700170017151
:1007D000C170817041718171C17101729621C160D6
:1007E000704700000179C901427992011143827971
:1007F0001143264A1160017901291AD0C17851604C
:100800008178E0221140214A9160417901292CD060
:10081000C179D160017A1161417A5161817A916126
:10082000C17AD161017B1162417B5162817B91620E
:100830001BE0C178154A5160817891604178D160A0
:1008400001781161417901290FD0C1795161017A93
:100850009161417AD161817A1162C17A5162017BE1
:100860009162417BD162817B1163084940390968FB
:1008700004221140002904D01221044A403A516058
:1008800003E00321014A403A516070474064004050
:10089000012904D1026801231A43026003E00268BF
:1008A000520852000260704710B504465AE02E48C4
:1008B000808C002808D12C48808C2B494039095C59
:1008C0002948808C21543EE02748808C642802D13E
:1008D00000212548818425480078322807DB6421DF
:1008E0002348FFF744FC00202049087010BD1E4833
:1008F000808C1D494039085C002800D1F6E71A4871
:10090000808C19494039085C0A2814D11648808C1B
:10091000095C1548808C21541348808C401C81B29E
:1009200011488184818C4038FFF721FC00200F4959
:1009300008700120DAE70C48808C0B494039095CCB
:100940000948808C21540848808C401C81B206489C
:100950008184818C4038FFF70AFC04480078401CF1
:1009600002490870A3E700003001002028000020A1
:100970005801002010B57D21C90010480068FFF71C
:10098000D9FB0446601E0E49884201D901200CE0C3
:10099000601E0C4948610321081F01F0EDF800209A
:1009A00008498861072008610020002801D000BFA5
:1009B000FEE70021481E01F0DFF810BD0000002016
:1009C000FFFFFF0000E000E0014600296FD008783B
:1009D000F02807D148785C4A907388785073C878BB
:1009E000D073AEE0087875280DD1487801280AD177
:1009F0000A7956488282808A4A791202104302B2EA
:100A0000524882829DE0087875280DD148780228E6
:100A10000AD10A794D480283008B4A7912021043A9
:100A200002B24A4802838CE0087876280CD14878D4
:100A3000012809D10A794548C282C08A4A7912023E
:100A40001043424AD0827CE0087876280CD148785E
:100A5000022809D10A793D484283408B4A79120223
:100A600010433A4A50836CE00878712820D14878C6
:100A700001281DD10879354A403A90661046806EAB
:100A80004A7912021043314A403A90661046806E0D
:100A90008A79120410432D4A403A90661046806EBF
:100AA000CA7912061043294A403A906649E046E066
:100AB000087871281FD1487802281CD10879234A68
:100AC000403AD0661046C06E4A79120210431F4A5F
:100AD000403AD0661046C06E8A79120410431B4A11
:100AE000403AD0661046C06ECA7912061043174AC3
:100AF000403AD06625E0087878280DD1487801285A
:100B00000AD18878012807D1C878002804D10120AB
:100B10000E4A403A107014E0087878280DD14878D1
:100B200002280AD18878012807D1C878002804D182
:100B30000120064A403A507003E000207047002030
:100B4000FCE70120FAE70000D80000209400002014
:100B5000F8B50246CD782F073F0FCD7810263540E7
:100B6000002D01D08D782F431446002011E085061A
:100B70002B0E0D88012686403540002D07D02568B4
:100B80000F269E40B5433E469E4035432560451C9A
:100B9000E8B20828EBDB141D0D882D12009500200B
:100BA00011E085062B0E01258540009E3540002D65
:100BB00007D025680F269E40B5433E469E403543EC
:100BC0002560451CE8B20828EBDBCD78282D04D140
:100BD00055690E883543556106E0CD78482D03D11F
:100BE00015690E8835431561F8BD70B54D07EB0EDC
:100BF000082902DA0546203501E0054624352C4651
:100C00000F269E402568B54316469E403543256015
:100C100070BD0246D0680840002801D0012070470E
:100C20000020FCE741617047016170470021C94322
:100C30000180022181700421C170704701460029A2
:100C400001D1044804E04A1E5201024B5833D01827
:100C5000704700004064004008B50121880400F09E
:100C600007FA0121480400F003FA6846FFF7DEFFA7
:100C70000121490268460180012181701021C17063
:100C800069460D48FFF764FF08216846018001218D
:100C900081701021C17069460920C006FFF758FF16
:100CA000012149020448FFF7BFFF08210920C006BF
:100CB000FFF7BAFF08BD00000004004801460A6EB5
:100CC000C86D904201D1012070470020FCE710B5AB
:100CD0000446E16D481C5021FFF72CFA206E81423A
:100CE00001D1012010BD0020FCE710B50446226EA2
:100CF000E16D891A084650305021FFF71BFA08466B
:100D000010BD00001CB50020009001902A484178D9
:100D100068460170022141702848817868468170D8
:100D20002648408801126846C170012101710122E4
:100D3000082100F045F82148017A684681701F4873
:100D4000008901126846C170002101710122082149
:100D500000F036F81948817A684681701748408952
:100D600001126846C170FF2101710122082100F0C3
:100D700027F812480179684681701048808801126E
:100D80006846C170022101710122082100F018F8A3
:100D90000A48817D684681700848C08A0112684609
:100DA000C17002210171012181710122082100F02D
:100DB00007F800201CBD0000300000203C0000208F
:100DC000F0B585B006460D461746002E01D0002D21
:100DD00003D10020C04305B0F0BD00BF2021114861
:100DE000FFF7C8FB0028F9D100BF10210D48FFF71D
:100DF000C1FB0028F9D10097684645720020019098
:100E0000002168460172002405E0315D02A802302D
:100E10000155601CC4B2AC42F7D3684600F03AFBFF
:100E20000020D8E7006400401CB50020009001902D
:100E300033484078012819D132484178684601701A
:100E40000221417030480178684681702E48008840
:100E500001126846C17001220821FFF7B1FF00208E
:100E60002749487001202949087048E02448007843
:100E7000012819D123484178684601700121417049
:100E800021480178684681701F4800880112684631
:100E9000C17001220821FFF793FF00201849087054
:100EA00001201A4948702AE018480079002811D01A
:100EB0001348C16E006F0A3881420BDB1048C16EC7
:100EC000006F0A30814205DC012010498870002043
:100ED000087114E00D480079002810D00848816E90
:100EE000406F0A3881420ADB0548816E406F0A3044
:100EF000814204DC01200549C870002008711CBD36
:100F000054000020300000203C000020E8000020B9
:100F10007CB505460C46164601201149087111485A
:100F20000467002000900190684646700E48C17822
:100F30006846017085702804010E6846C17004710E
:100F40002004010E684641712002010E684681713D
:100F5000210EC17101220821FFF732FF7CBD000084
:100F6000E800002054000020300000207CB5064638
:100F70000C461546002000900190684646701048C7
:100F800001786846017084702004010E6846C170C3
:100F900005712912417101220821FFF711FF08484C
:100FA000C17A68460170012181700021C170017110
:100FB000417101220821FFF703FF00207CBD0000E2
:100FC00030000020F8B504460D4616466846047009
:100FD000457086700121C17000F01AFEF8BD000056
:100FE0008178002925D01749032212028918027836
:100FF00092109200895802789207D30EFF229A40ED
:10100000914342789207120E03789B07DB0E9A40B9
:1010100011430C4A03231B02D21803789B109B0038
:10102000D1500178CA06D20E01219140054A1160C3
:1010300007E00178CA06D20E01219140014A8032B0
:101040001160704700E100E010B500210648C1843E
:10105000818464210548FFF78AF8642102484038FA
:10106000FFF785F810BD0000300100205801002076
:10107000002905D0054A52690243044B5A6104E035
:10108000024A52698243014B5A6170470010024084
:10109000002905D0054AD2690243044BDA6104E015
:1010A000024AD2698243014BDA6170470010024064
:1010B000002905D0054A92690243044B9A6104E075
:1010C000024A92698243014B9A61704700100240C4
:1010D00038B504460DA00068009000F051F820607B
:1010E00000F01AF8606000F027F8A06000F036F811
:1010F000E060074A5268074B1A4012096B46995C38
:10110000E068FFF717F8206138BD00000204060808
:10111000001002407040000010B500F031F80449A2
:101120004968F02211400909024A515CC84010BDCB
:10113000001002401400002010B5FFF7EDFF054934
:101140004968072212021140090A034A515CC8404B
:1011500010BD0000001002401400002010B5FFF781
:10116000DBFF054949680722D2021140C90A034A38
:10117000515CC84010BD0000001002401400002067
:10118000F8B51B4840680C210840042802D0082804
:1011900028D101E0174C27E01548406801210904D7
:1011A0000840002809D0124840684900084000283B
:1011B00001D0114802E00F4800E0104807460C48F3
:1011C0000068800E451C0A48006807210905084090
:1011D000000D461C3946694308463146FEF7AAFF12
:1011E000044601E0034C00BF00BF2046F8BD0000EC
:1011F0000010024000127A0000093D00001BB700F9
:101200007CB504460025082600200090019000BF10
:1012100020211548FFF7AEF90028F9D100BF0121C0
:101220001148FFF7A7F90028F9D18020015920467D
:101230008847082816D300250BE0E01C216E405C8F
:1012400069464855216E481C5021FEF773FF216600
:101250006D1CB542F1DB6846FFF7B6FB002801D0F4
:1012600001207CBD0020FCE7006400407FB50546FE
:101270000C4601210803FFF71BFF684600F0FAF84F
:10128000042168460170002141800821017102217A
:1012900041710021817101814481017369462846B1
:1012A00000F0A2F80021284600F066F80121284647
:1012B00000F062F80121284600F08AF87FBD08B5E9
:1012C00001214804FFF7D4FE002207210920C006AF
:1012D000FFF78BFC002204210920C006FFF785FCE4
:1012E000002206210920C006FFF77FFC002205210D
:1012F0000920C006FFF779FC00F036FC6846FFF7CE
:1013000095FC102168460180012181701821C1706F
:1013100069460920C006FFF71BFC202168460180B2
:10132000012181701821C17069460920C006FFF7AC
:101330000FFC802168460180012181701821C17055
:1013400069460920C006FFF703FC4021684601807A
:10135000012181704821C17069460920C006FFF74C
:10136000F7FB08BD70B504460D46FFF7A8FF2946F8
:101370002046FFF77BFF70BD002906D0012909D068
:1013800002290CD0032914D10EE0826910231A43DC
:1013900082610FE0826908231A4382610AE0826950
:1013A00010239A43826105E0826908239A4382618F
:1013B00000E000BF00BF7047002904D0826A5208D5
:1013C0005200826203E0826A01231A4382627047FC
:1013D000002904D0826901231A43826103E08269F3
:1013E00052085200826170474A880123DB029A4208
:1013F00003D182691A43826104E082690123DB021E
:101400009A438261826901239B029A430B891A43A2
:101410008261826904239A430B781A438261C2690C
:1014200004239A430B7B1A43C261C26902239A4385
:101430004B791A43C261C269520852008B791A4330
:10144000C261C26908231A43C261026A120C120403
:101450004B891A4302620A79202A04DBC26A5209C4
:101460005201C26205E0C26A520952010B791A4365
:10147000C262704700210170418008210171002182
:1014800041710121817100210181022141810021ED
:10149000017370477FB5044600256068002811D0AD
:1014A0002068C50001216846017105702804010EFD
:1014B000684641702802010E68468170280E694610
:1014C000C8700BE02088450500216846017128029C
:1014D000010E68468170280E6946C870617A6846B8
:1014E0008171217A4171002606E020460A30815D33
:1014F00001A803308155761C082EF6D36846FFF705
:1015000071F97FBD10B500F001F810BD7FB5002066
:101510000390029059480068012109040843574983
:10152000086000BF55480068012149040840029046
:101530000398401C03900298002804D10521090259
:1015400003988842EED14D480068012149040840C3
:10155000002809D0012002907D252D0100BF2846DA
:101560006D1E0028FBD101E00020029002980128A6
:101570007ED143484349086043480068102108432E
:101580004149086008460068C008C00008603D493D
:101590000968481E3D49FEF7CDFD04463A480068FB
:1015A0002043394908603548406834494860084656
:1015B00040684860334800683549884207D92F4859
:1015C00040680121890208432C49486006E02B4805
:1015D000406801218902084328494860274840683B
:1015E0000321090488432549486008460068000330
:1015F000000B0860084640680121090408431F49A0
:1016000048606B4601AA1F4801682248FEF7CCFDDE
:101610001A4800680003000B1849086069460879F9
:1016200080060978090508431449096808431349E5
:101630000860084600680121090608430F49086050
:1016400000BF0E4800680121490608400028F8D074
:101650000A48406880088000084948600846406899
:10166000022108430549486000BF0448406800E083
:1016700003E00C2108400828F7D17FBD001002408C
:1016800000D8B805000000200020024000366E019E
:101690000051250200127A0010B500F053F910BD78
:1016A00010B516480068012108431449086008462F
:1016B00040681349084011494860084600681149CC
:1016C00008400E49086008460068012189048843E3
:1016D0000A49086008464068C3210904884307494D
:1016E00048600846006808490840044908609F208F
:1016F00000048860FFF706FF10BD000000100240E4
:101700000CC0FFF8FFFFF6FEFFFF8F0010B50121B0
:10171000880700F0BFF8002821D00121880700F0D9
:10172000A9F802210E48FFF774FA002804D002211C
:101730000B48FFF777FA03E002210948FFF774FA34
:1017400001210748FFF765FA002804D00121044869
:10175000FFF768FA03E001210148FFF765FA10BDC1
:101760000004004810B50121154800F093F8002846
:101770001AD00121124800F07DF8012149021148D8
:10178000FFF747FA002805D0012149020D48FFF76D
:1017900049FA04E0012149020A48FFF745FA0A48DC
:1017A000406E401C0849486610210848FEF7E2FEDA
:1017B000002804D104488078401C0349887010BD7B
:1017C0000004004000040048540000200064004071
:1017D0003EB504460D4601210220FFF759FC68463C
:1017E00000F0A6F80194684605800021018181720D
:1017F000817069460A4800F065F80121084800F048
:1018000029F80121064800F031F801221146044868
:1018100000F04DF80121024800F030F83EBD000014
:101820000004004010B5084908480068FEF782FC33
:10183000401E84B221460648FFF7CAFF012200215C
:101840001020FFF7BFFB10BD40420F00000000203A
:10185000E7030000002904D0026880231A430260D5
:1018600003E0026880239A430260704702698A435A
:101870000261704702698A4302617047002904D0FF
:10188000026801231A43026003E002685208520012
:1018900002607047024610690840002805D0D068F1
:1018A0000840002801D0012070470020FCE7002AF2
:1018B00003D0C3680B43C36002E0C3688B43C360BB
:1018C00070470000026803231B029A430B891A43E6
:1018D0000260134A904206D001229207904202D041
:1018E000104A904205D1026870239A438B781A43BC
:1018F00002600B4A904205D00B4A904202D00B4A3C
:10190000904205D1026B120A12028B7A1A430263CB
:101910004A68C2620A8882620122426170470000FE
:10192000002C0140000400400044014000480140F8
:101930000021C943416000210180018181708172D1
:101940007047000004480068002804D0024800687E
:10195000401E0149086070472400002010B5022194
:10196000184800F0A0F800282AD00221154800F0FD
:1019700089F81548C08C642802D100211248C1841E
:1019800018E01148C08C642802D100210E48C1849F
:101990000C4800F0D7F8C1B20B48C08C0A4A403A54
:1019A00011540948C08C401C81B20748C1840748C3
:1019B000FEF77AFF0221034800F06CF80028E0D11E
:1019C00010BD000000380140300100205801002007
:1019D00010B586B004461B21684601700321417092
:1019E00001218170FFF7FCFA01218803FFF760FBFA
:1019F00001214804FFF73CFB01220921C806FFF73B
:101A0000F4F801220A210920C006FFF7EEF801A828
:101A100000F09CF801943021684601810021418149
:101A2000818101821821C18101A9154800F04EF879
:101A300001220221124800F03FF80121104800F075
:101A400023F805A8FFF7F2F80121490268468182D0
:101A5000012181751821C17505A90920C006FFF76C
:101A600077F801218902684681820421C17505A9A0
:101A70000920C006FFF76CF8FFF7E6FA06B010BDC4
:101A800000380140416170478269520852000A43A0
:101A900082617047024690680840002801D001200A
:101AA00070470020FCE70246D0680840002801D0BB
:101AB000012070470020FCE7002A03D003690B4394
:101AC000036102E003698B430361704770B504460C
:101AD0000D460026E0693021884329790843E061FA
:101AE000E06944218843A9790843E061E0698008FE
:101AF0008000297A0843E061A06918218843698938
:101B00000843A061A06904218843297B0843A061A0
:101B10000B48844203D1FFF721FB064602E0FFF7A2
:101B20000BFB064630462968FEF704FB00092062DD
:101B300030462968FEF7FEFA0007000F606270BDAC
:101B40000038014001464868C0B270474B21C901C6
:101B500001603021017100218171017218214181E0
:101B6000002101737047000010B500210148FFF704
:101B700023FC10BD0030014010B5002819DB1A4AC3
:101B800003231B02D21883089B00D2588307DC0E64
:101B9000FF23A3409A438B071B0E8407E40EA34048
:101BA0001A43114B032424021B198408A4001A5160
:101BB00018E00E4A03071B0F083B9B089B00D258F6
:101BC0008307DC0EFF23A3409A438B071B0E840779
:101BD000E40EA3401A43054B0407240F083CA40855
:101BE000A4001A5110BD000000E100E01CED00E06F
:101BF00002E008C8121F08C1002AFAD170477047D6
:101C0000002001E001C1121F002AFBD17047000033
:101C1000C178002925D017490322120289180278B9
:101C200092109200895802789207D30EFF229A40B0
:101C3000914382789207120E03789B07DB0E9A403D
:101C400011430C4A03231B02D21803789B109B00FC
:101C5000D1500178CA06D20E01219140054A116087
:101C600007E00178CA06D20E01219140014A803274
:101C70001160704700E100E0FEF77CFEFEF7ECFF2C
:101C8000E1204002FFF7A4FEFFF7CCFD2021104821
:101C9000FFF768FB0F48FEF7E9FBFFF733F8C822B0
:101CA00064210220FFF762F910E00B480078002859
:101CB00007D0022209496420FFF72AF900200649CB
:101CC00008700748FFF79CFAFFF7AEF8EDE7000051
:101CD0000030014040420F00E800002046050000AF
:101CE00054000020041D000800000020F000000047
:101CF000F01B0008F41D0008F0000020E0040000C4
:101D0000001C000800D8B80500000000000000001A
:101D10000102030406070809000000000102030491
:101D2000010203040607080900000000000000008B
:101D3000000000000102070A8A71721276750878A5
:101D4000018002800380048009800B8008800C8061
:101D5000408041800102058000000000000000007A
:101D60000000000000000000000000000000000073
:101D70000000000000000000000000000000000063
:101D80000000000000000000000000000000000053
:101D90000000000000000000000000000000000043
:101DA0000000000000000000000000000000000033
:101DB0000000000000000000000000000000000023
:101DC0000000000000000000000000000000000013
:101DD000CF0C0008BD0C0008EB0C0008011011121C
:101DE00013141516212223292400000000000000EE
:041DF00000000000EF
:04000005080000C12E
:00000001FF
