:020000040800F2
:1000000050060020D5000008010100080301000887
:1000100000000000000000000000000000000000E0
:1000200000000000000000000000000005010008C2
:10003000000000000000000007010008251900086A
:100040000B0100080B0100080B0100080B01000860
:100050000B0100080B0100080B0100080B01000850
:100060000B0100080B0100080B0100080B01000840
:100070000B0100080B0100080B010008991900088A
:10008000F119000800000000000000000B0100084A
:10009000000000000B0100080B0100080B01000824
:1000A000000000000B0100080B010008E91B00081C
:1000B0000B0100080000000001060008000000001D
:1000C0000348854600F070F800480047051F000807
:1000D000500600200D4880F308880D480D49016046
:1000E0000D480168090E0D4A914205D10C48094995
:1000F00001600C480C4901600C4880470C480047DF
:10010000FEE7FEE7FEE7FEE7FEE7FEE7500600201B
:100110006020024001000000040000001F000000F9
:100120001810024000000140000000002D190008D6
:10013000C100000830B50B460146002020220124F2
:1001400009E00D46D5409D4205D31D469540491B0B
:100150002546954040191546521E002DF1DC30BD54
:1001600003460B439B0703D009E008C9121F08C0D0
:10017000042AFAD203E00B780370401C491C521E7B
:10018000F9D27047D2B201E00270401C491EFBD286
:1001900070470022F6E710B513460A460446194692
:1001A000FFF7F0FF204610BD064C0125064E05E086
:1001B000E36807CC2B430C3C98471034B442F7D388
:1001C000FFF782FF242000084420000870B58C1837
:1001D0000578401C6B075B0F01D10378401C2A1186
:1001E00006D10278401C03E006780E70401C491CC2
:1001F0005B1EF9D12B0705D40023521E0DD40B70C2
:10020000491CFAE70378401CCB1A921C03E01D78C6
:100210000D70491C5B1C521EF9D5A142D8D3002099
:1002200070BDFFB583B00C460294002001900027FA
:1002300026E000261CE0721C039951430846791CF5
:10024000FFF778FF0546A54201D9281B00E0601B97
:1002500005460298A84204D90295059806700698AA
:1002600007700298002802D10120019002E0761C5C
:10027000402EE0D300BF0198002800D002E07F1C90
:10028000042FD6D300BF029807B0F0BDF7B584B0F5
:100290000546164603960120029000200190002793
:1002A00000BF002EFDD005980028FAD031460598F1
:1002B000FFF740FF07467F08192413E02146384620
:1002C000FFF738FF6043381A01900198002801D1E8
:1002D000029409E003990198884202D201980390A0
:1002E0000294641E032CE9D800BF00202870384611
:1002F0000299FFF71FFF401E68700299C81E032174
:10030000FFF718FFE8700298C01EE978401A2871BC
:1003100007B0F0BD416808221143416070470021D9
:1003200000BFC168704741680422114341607047B3
:10033000FFB586B0074600200190384600F0E6FC85
:100340000446022107980840002801D001200190AE
:10035000002F36D03846F917490F09184905090EFC
:100360000391F917490F0918C910C900791AC9B2C0
:10037000029103998800584940180090019800287C
:1003800008D000980068012202998A401043009921
:10039000086007E0009801680122029882409143BA
:1003A00000980160039880004B490C314018009080
:1003B00000980068012202998A4010430099086061
:1003C00013E00198002808D04348803800680821CD
:1003D000084341498039086007E03F488038006899
:1003E000082188433C4980390860019801282AD1B6
:1003F0000798C007C00F002808D008980068C600FA
:1004000009980068C5000720054307E008980088A0
:10041000460509980088450530480543300E2060A0
:100420003002000E60603004000EA060F0B2E060A8
:10043000280E20612802000E60612804000EA061D1
:10044000E8B2E06145E008980668099805680898F0
:100450000068401C059009980068401C04900798AB
:10046000C007C00F00280ED0F600ED000598C000B0
:1004700005900498C0000490194805431849049851
:10048000084304900DE076056D050598400505903C
:100490000498400504901148054310490498084306
:1004A0000490300E20603002000E6060280E206143
:1004B0002802000E60610598000EA06005980002F9
:1004C000000EE0600498000EA06104980002000E87
:1004D000E0610AB0F0BD000080640040FFFF1F0033
:1004E000FFFF000010B58EB0044600F03FF8012178
:1004F0001C4800F009FA80211A4800F0E1F805A82C
:1005000000F02AFF0AA800F09BF922460AA80799E2
:10051000FFF7BCFE002108A88172817341730AA80D
:1005200000F0E2F8002003900F48019001AB03AA0D
:1005300002210020FFF7FCFE0121084600F0C4F86C
:100540000121802000F0C0F80121082000F0BCF853
:100550000121402000F0B8F80021024800F0D4F951
:100560000EB010BD00640040FFFF00001CB501216B
:10057000480600F0D1FE0121084600F0DDFE012111
:10058000480400F0B9FE01A800F0B8FB0121C9023F
:1005900068468180012181710421C17101A909206E
:1005A000C00600F03DFB012109036846818001215E
:1005B00081711821C17101A90920C00600F030FB2A
:1005C00004220C210920C00600F077FB04220B2135
:1005D0000920C00600F071FB1E2168460170002151
:1005E00041700121817000F033FE1CBD024690680D
:1005F0000840884201D1012070470020FCE700003C
:1006000070B52B48C468856880202040002807D139
:1006100040202040002803D108202040002802D09C
:100620002348FFF77CFE02202840002805D0204800
:10063000FFF770FE1E48FFF772FEE007C00F0028AC
:1006400025D01C4800F096F800201B49087018E0DF
:100650001848C01D18490978415C1848C26DC01C73
:100660008154C11EC96D481C5021FFF763FD13481A
:10067000C1650020114988700F480078401C0E4960
:1006800008700C4880790C4909788842E0DC012127
:10069000084600F019F80121802000F015F801212A
:1006A000082000F011F80121402000F00DF870BD85
:1006B000006400403C0200202C0000205400002078
:1006C000C26F0A43C2677047002905D0054A126904
:1006D0000243044B1A6104E0024A12698243014B4F
:1006E0001A61704700640040017889014278114323
:1006F0001F4A91618178C901C278120111430279C0
:1007000011431B4AD1614179012906D1114609687B
:1007100002221143164A116005E0154909680222B8
:100720009143134A11608179012906D11049096862
:10073000042211430E4A116005E00D4909680422A4
:1007400091430B4A1160C179012906D10849096812
:1007500010221143064A116005E00549096810227C
:100760009143034A1160024AC16851637047000017
:100770000064004010B50346304800684004000E95
:1007800018712E4800684006C00F58712B48006849
:100790000007000F98711879012820D02748806839
:1007A000440926484068C00004431C602348C068D0
:1007B000D8712248006918722048406958721F4851
:1007C000806998721D48C069D8721C48006A187305
:1007D0001A48406A58731948806A987329E0174884
:1007E0000069F8210840C4081448C0684001044367
:1007F00012488068400304431048406840050443A1
:100800001C600E484069D8710C48806918720B480A
:10081000C06958720948006A98720848406AD872DC
:100820000648806A18730548C06A58730348006B0D
:10083000987302484038FFF776FD10BD40640040D1
:100840000021417001700171C1708170417181712D
:10085000C17101729621C160704700000179C90120
:1008600042799201114382791143264A116001793C
:1008700001291AD0C17851608178E0221140214AC3
:100880009160417901292CD0C179D160017A11613F
:10089000417A5161817A9161C17AD161017B1162A2
:1008A000417B5162817B91621BE0C178154A5160A6
:1008B000817891604178D160017811614179012995
:1008C0000FD0C1795161017A9161417AD161817A08
:1008D0001162C17A5162017B9162417BD162817B5D
:1008E000116308494039096804221140002904D0E5
:1008F0001221044A403A516003E00321014A403A80
:100900005160704740640040012904D1026801230E
:100910001A43026003E00268520852000260704706
:10092000022809D1002907D10022114B9A70114BDE
:100930001A670F4B1A7119E0012808D1002906D156
:1009400000220B4BDA701A710A4B5A670EE002282C
:1009500005D1002903D00022054B1A7006E00128BA
:1009600004D1002902D00022014B5A7070470000C8
:10097000680100205400002010B504465AE02E48BB
:10098000808C002808D12C48808C2B494039095C88
:100990002948808C21543EE02748808C642802D16D
:1009A00000212548818425480078322807DB64210E
:1009B0002348FFF7EEFB00202049087010BD1E48B9
:1009C000808C1D494039085C002800D1F6E71A48A0
:1009D000808C19494039085C0A2814D11648808C4B
:1009E000095C1548808C21541348808C401C81B2CE
:1009F00011488184818C4038FFF7CBFB00200F49E0
:100A000008700120DAE70C48808C0B494039095CFA
:100A10000948808C21540848808C401C81B20648CB
:100A20008184818C4038FFF7B4FB04480078401C77
:100A300002490870A3E70000B00100202800002050
:100A4000D801002010B57D21C90010480068FFF7CB
:100A500071FB0446601E0E49884201D901200CE05A
:100A6000601E0C4948610321081F01F0CBF90020EA
:100A700008498861072008610020002801D000BFD4
:100A8000FEE70021481E01F0BDF910BD0000002066
:100A9000FFFFFF0000E000E0014600296FD008786A
:100AA000F02807D148785C4A907388785073C878EA
:100AB000D073AEE0087875280DD1487801280AD1A6
:100AC0000A7956488282808A4A791202104302B219
:100AD000524882829DE0087875280DD14878022816
:100AE0000AD10A794D480283008B4A7912021043D9
:100AF00002B24A4802838CE0087876280CD1487804
:100B0000012809D10A794548C282C08A4A7912026D
:100B10001043424AD0827CE0087876280CD148788D
:100B2000022809D10A793D484283408B4A79120252
:100B300010433A4A50836CE00878712820D14878F5
:100B400001281DD10879354A403A90661046806EDA
:100B50004A7912021043314A403A90661046806E3C
:100B60008A79120410432D4A403A90661046806EEE
:100B7000CA7912061043294A403A906649E046E095
:100B8000087871281FD1487802281CD10879234A97
:100B9000403AD0661046C06E4A79120210431F4A8E
:100BA000403AD0661046C06E8A79120410431B4A40
:100BB000403AD0661046C06ECA7912061043174AF2
:100BC000403AD06625E0087878280DD14878012889
:100BD0000AD18878012807D1C878002804D10120DB
:100BE0000E4A403A107014E0087878280DD1487801
:100BF00002280AD18878012807D1C878002804D1B2
:100C00000120064A403A507003E00020704700205F
:100C1000FCE70120FAE700005801002094000020C2
:100C2000F8B50246CD782F073F0FCD781026354016
:100C3000002D01D08D782F431446002011E0850649
:100C40002B0E0D88012686403540002D07D02568E3
:100C50000F269E40B5433E469E4035432560451CC9
:100C6000E8B20828EBDB141D0D882D12009500203A
:100C700011E085062B0E01258540009E3540002D94
:100C800007D025680F269E40B5433E469E4035431B
:100C90002560451CE8B20828EBDBCD78282D04D16F
:100CA00055690E883543556106E0CD78482D03D14E
:100CB00015690E8835431561F8BD70B54D07EB0E0B
:100CC000082902DA0546203501E0054624352C4680
:100CD0000F269E402568B54316469E403543256045
:100CE00070BD0246D0680840002801D0012070473E
:100CF0000020FCE741617047016170470021C94352
:100D00000180022181700421C170704701460029D1
:100D100001D1044804E04A1E5201024B5833D01856
:100D200070470000406400407CB505460C4600203A
:100D3000009001900D48417A68460170447001228C
:100D4000082100F051F90948017A68460170012232
:100D5000082100F049F905484179684601700122EF
:100D6000082100F041F900207CBD00003000002087
:100D700008B50121880400F0BFFA0121480400F001
:100D8000BBFA6846FFF7BAFF0121490268460180B5
:100D9000012181701021C17069460D48FFF740FFA5
:100DA000082168460180012181701021C1706946C7
:100DB0000920C006FFF734FF012149020448FFF76C
:100DC0009BFF08210920C006FFF796FF08BD000021
:100DD0000004004801460A6EC86D904201D101200E
:100DE00070470020FCE710B50446E16D481C502117
:100DF000FFF7A0F9206E814201D1012010BD002033
:100E0000FCE710B50446226EE16D891A08465030A1
:100E10005021FFF78FF9084610BD00001CB50020D7
:100E200000900190584841786846017000F0B0F891
:100E30000221684641705548817868468170534860
:100E4000408801126846C170012101710122082108
:100E500000F0CAF84D48017A684681704B48008915
:100E600001126846C170002101710122082100F0C1
:100E7000BBF84648817A684681704448408901122F
:100E80006846C170FF2101710122082100F0ACF811
:100E90003E480179684681703C4880880112684666
:100EA000C170022101710122082100F09DF837482C
:100EB000817D684681703548C08A01126846C170DC
:100EC00002210171012181710122082100F08CF8B9
:100ED000062100A80230FFF75CF901216846417045
:100EE0002A488178684681702848408801126846FF
:100EF000C170012101710122082100F075F8234819
:100F0000017A684681702148008901126846C170E3
:100F1000002101710122082100F066F81B48817A46
:100F2000684681701948408901126846C170FF21E6
:100F300001710122082100F057F814480179684630
:100F400081701248808801126846C17010210171B9
:100F5000022141710122082100F046F80B48817DF1
:100F6000684681700948C08A01126846C170022132
:100F7000017100214171012181710122082100F0DC
:100F800033F800201CBD0000300000203C00002091
:100F900010B5A0B000244022114910A8FFF7E0F8D6
:100FA00040220F4940316846FFF7DAF800BF06E0FB
:100FB000A00010A90958A2000A488150641C102CF6
:100FC000F6DB002407E0A00069460958A2000548A6
:100FD00040388150641C102CF5DB20B010BD00009F
:100FE000A41F00080C010020F0B585B006460D4690
:100FF0001746002E01D0002D03D10020C04305B0BC
:10100000F0BD00BF20211548FFF7F0FA0028F9D104
:1010100000BF10211148FFF7E9FA0028F9D100BFFD
:1010200008210E48FFF7E2FA0028F9D00097684639
:10103000457200200190002168460172002405E0FD
:10104000315D02A802300155601CC4B2AC42F7D336
:10105000684600F065FB0020D1E700000064004016
:101060001CB500200090019033484078012819D128
:101070003248417868460170022141703048017859
:10108000684681702E48008801126846C1700122AE
:101090000821FFF7A9FF00202749487001202949AE
:1010A000087048E024480078012819D12348417885
:1010B00068460170012141702148017868468170BD
:1010C0001F48008801126846C17001220821FFF7FD
:1010D0008BFF00201849087001201A4948702AE047
:1010E00018480079002811D01348C16E006F0A38E3
:1010F00081420BDB1048C16E006F0A30814205DC73
:101100000120104988700020087114E00D48007912
:10111000002810D00848816E406F0A3881420ADBEF
:101120000548816E406F0A30814204DC0120054988
:10113000C870002008711CBD540000203000002041
:101140003C000020680100207CB506460C46154690
:1011500001201F49087100200090019068464570E9
:101160001C48C1786846017086703004010E6846DC
:10117000C17004712004010E684641712002010E05
:1011800068468171210EC17101220821FFF72CFFF1
:10119000002C01DA204600E020460446684604712F
:1011A0002004010E684641712002010E68468171DB
:1011B000210EC17101220821FFF716FF022D02D175
:1011C0000548046703E0012D01D1034844677CBD55
:1011D0006801002030000020540000207CB5064645
:1011E0000C46154600200090019068464670104855
:1011F00001786846017084702004010E6846C17051
:1012000005712912417101220821FFF7EDFE0848FE
:10121000C17A68460170012181700021C17001719D
:10122000417101220821FFF7DFFE00207CBD000094
:1012300030000020F8B504460D4616466846047096
:10124000457086700121C17000F028FEF8BD0000D5
:101250008178002925D017490322120289180278C3
:1012600092109200895802789207D30EFF229A407A
:10127000914342789207120E03789B07DB0E9A4047
:1012800011430C4A03231B02D21803789B109B00C6
:10129000D1500178CA06D20E01219140054A116051
:1012A00007E00178CA06D20E01219140014A80323E
:1012B0001160704700E100E010B502210348FFF71C
:1012C00033FD01210148FFF72FFD10BD5400002020
:1012D00010B500210648C184818464210548FEF7C9
:1012E00058FF642102484038FEF753FF10BD00004C
:1012F000B0010020D8010020002905D0054A52691C
:101300000243044B5A6104E0024A52698243014B92
:101310005A61704700100240002905D0054AD26981
:101320000243044BDA6104E0024AD2698243014B72
:10133000DA61704700100240002905D0054A926921
:101340000243044B9A6104E0024A92698243014BD2
:101350009A6170470010024038B504460DA000683D
:10136000009000F051F8206000F01AF8606000F082
:1013700027F8A06000F036F8E060074A5268074B93
:101380001A4012096B46995CE068FEF7D3FE2061B3
:1013900038BD000002040608001002407040000042
:1013A00010B500F031F804494968F02211400909EC
:1013B000024A515CC84010BD0010024014000020D9
:1013C00010B5FFF7EDFF05494968072212021140E9
:1013D000090A034A515CC84010BD000000100240D9
:1013E0001400002010B5FFF7DBFF0549496807220C
:1013F000D2021140C90A034A515CC84010BD000026
:101400000010024014000020F8B51B4840680C2171
:101410000840042802D0082828D101E0174C27E012
:1014200015484068012109040840002809D01248E5
:10143000406849000840002801D0114802E00F48E8
:1014400000E0104807460C480068800E451C0A481A
:101450000068072109050840000D461C394669430C
:1014600008463146FEF766FE044601E0034C00BF25
:1014700000BF2046F8BD00000010024000127A00B4
:1014800000093D00001BB700FEB5044600250826F4
:10149000002700200090019000BF20211548FFF791
:1014A000A5F80028F9D100BF01211248FFF79EF8E6
:1014B0000028F9D1FF20013001592046884708282B
:1014C00016D300250BE0E01C216E405C69464855B0
:1014D000216E481C5021FEF72DFE21666D1CB54281
:1014E000F1DB6846FFF7D8FA002801D00120FEBDE5
:1014F0000020FCE7006400407FB505460C46012152
:101500000803FFF719FF684600F0FAF8042168465F
:1015100001700021418008210171022141710021E7
:1015200081710181448101736946284600F0A2F867
:101530000021284600F066F80121284600F062F8F4
:101540000121284600F08AF87FBD08B50121480432
:10155000FFF7D2FE002207210920C006FFF7ADFBEE
:10156000002204210920C006FFF7A7FB0022062164
:101570000920C006FFF7A1FB002205210920C006B3
:10158000FFF79BFB00F036FC6846FFF7B7FB102126
:1015900068460180012181701821C17069460920C7
:1015A000C006FFF73DFB20216846018001218170C4
:1015B0001821C17069460920C006FFF731FB802160
:1015C00068460180012181701821C1706946092097
:1015D000C006FFF725FB402168460180012181708C
:1015E0004821C17069460920C006FFF719FB08BDF4
:1015F00070B504460D46FFF7A8FF29462046FFF7C1
:101600007BFF70BD002906D0012909D002290CD02A
:10161000032914D10EE0826910231A4382610FE07E
:10162000826908231A4382610AE0826910239A437F
:10163000826105E0826908239A43826100E000BF6D
:1016400000BF7047002904D0826A520852008262AB
:1016500003E0826A01231A4382627047002904D0A2
:10166000826901231A43826103E0826952085200B1
:10167000826170474A880123DB029A4203D1826962
:101680001A43826104E082690123DB029A4382618A
:10169000826901239B029A430B891A438261826902
:1016A00004239A430B781A438261C26904239A4344
:1016B0000B7B1A43C261C26902239A434B791A43D6
:1016C000C261C269520852008B791A43C261C26971
:1016D00008231A43C261026A120C12044B891A438E
:1016E00002620A79202A04DBC26A52095201C262EC
:1016F00005E0C26A520952010B791A43C26270476F
:1017000000210170418008210171002141710121F6
:101710008171002101810221418100210173704703
:101720007FB5044600256068002811D02068C500F8
:1017300001216846017105702804010E6846417058
:101740002802010E68468170280E6946C8700BE0B9
:10175000208845050021684601712802010E68466F
:101760008170280E6946C870617A68468171217A55
:101770004171002606E020460A30815D01A8033051
:101780008155761C082EF6D36846FFF767F87FBDB3
:1017900010B500F001F810BD7FB500200390029055
:1017A000594800680121090408435749086000BFEF
:1017B0005548006801214904084002900398401CE4
:1017C00003900298002804D1052109020398884259
:1017D000EED14D480068012149040840002809D095
:1017E000012002907D252D0100BF28466D1E002896
:1017F000FBD101E000200290029801287ED14348ED
:101800004349086043480068102108434149086083
:1018100008460068C008C00008603D490968481EC5
:101820003D49FEF787FC04463A48006820433949A1
:101830000860354840683449486008464068486058
:10184000334800683549884207D92F48406801214C
:10185000890208432C49486006E02B484068012172
:101860008902084328494860274840680321090441
:10187000884325494860084600680003000B08605B
:10188000084640680121090408431F4948606B4627
:1018900001AA1F4801682248FEF7C3FC1A480068E5
:1018A0000003000B1849086069460879800609782A
:1018B00009050843144909680843134908600846A4
:1018C00000680121090608430F49086000BF0E485F
:1018D00000680121490608400028F8D00A484068FD
:1018E0008008800008494860084640680221084393
:1018F0000549486000BF0448406800E003E00C214F
:1019000008400828F7D17FBD0010024000D8B80574
:10191000000000200020024000366E010051250228
:1019200000127A0010B500F053F910BD10B516483A
:1019300000680121084314490860084640681349BB
:1019400008401149486008460068114908400E499E
:101950000860084600680121890488430A49086034
:1019600008464068C321090488430749486008467F
:10197000006808490840044908609F200004886006
:10198000FFF706FF10BD0000001002400CC0FFF87A
:10199000FFFFF6FEFFFF8F0010B50121880700F062
:1019A000BFF8002821D00121880700F0A9F8022102
:1019B0000E48FFF796F9002804D002210B48FFF7E4
:1019C00099F903E002210948FFF796F90121074838
:1019D000FFF787F9002804D001210448FFF78AF9AE
:1019E00003E001210148FFF787F910BD000400481A
:1019F00010B50121154800F093F800281AD00121F4
:101A0000124800F07DF8012149021148FFF769F9F9
:101A1000002805D0012149020D48FFF76BF904E0C9
:101A2000012149020A48FFF767F90A48406E401C45
:101A30000849486610210848FEF7D8FD002804D15F
:101A400004488078401C0349887010BD00040040A1
:101A50000004004854000020006400403EB50446E5
:101A60000D4601210220FFF757FC684600F0A6F85A
:101A70000194684605800021018181728170694668
:101A80000A4800F065F80121084800F029F8012112
:101A9000064800F031F801221146044800F04DF8E4
:101AA0000121024800F030F83EBD00000004004073
:101AB00010B5084908480068FEF73CFB401E84B298
:101AC00021460648FFF7CAFF012200211020FFF738
:101AD000B1FB10BD40420F0000000020E7030000F2
:101AE000002904D0026880231A43026003E00268E0
:101AF00080239A430260704702698A4302617047FB
:101B000002698A4302617047002904D002680123F8
:101B10001A43026003E002685208520002607047F4
:101B2000024610690840002805D0D0680840002807
:101B300001D0012070470020FCE7002A03D0C368D1
:101B40000B43C36002E0C3688B43C360704700006F
:101B5000026803231B029A430B891A430260134A4B
:101B6000904206D001229207904202D0104A904241
:101B700005D1026870239A438B781A4302600B4A9E
:101B8000904205D00B4A904202D00B4A904205D1B8
:101B9000026B120A12028B7A1A4302634A68C2620B
:101BA0000A8882620122426170470000002C0140D5
:101BB0000004004000440140004801400021C943A6
:101BC00041600021018001818170817270470000B5
:101BD00004480068002804D002480068401E0149FB
:101BE000086070472400002010B50221184800F05A
:101BF000A0F800282AD00221154800F089F81548DD
:101C0000C08C642802D100211248C18418E0114818
:101C1000C08C642802D100210E48C1840C4800F019
:101C2000D7F8C1B20B48C08C0A4A403A115409484F
:101C3000C08C401C81B20748C1840748FEF79CFE57
:101C40000221034800F06CF80028E0D110BD00002C
:101C500000380140B0010020D801002010B586B046
:101C600004461B21684601700321417001218170E7
:101C7000FFF7EEFA01218803FFF75EFB012148041C
:101C8000FFF73AFB01220921C806FFF716F80122E7
:101C90000A210920C006FFF710F801A800F09CF8FF
:101CA00001943021684601810021418181810182B6
:101CB0001821C18101A9154800F04EF80122022126
:101CC000124800F03FF80121104800F023F805A861
:101CD000FFF714F8012149026846818201218175CC
:101CE0001821C17505A90920C006FEF799FF012139
:101CF0008902684681820421C17505A90920C006B0
:101D0000FEF78EFFFFF7E4FA06B010BD0038014081
:101D1000416170478269520852000A4382617047EC
:101D2000024690680840002801D00120704700203A
:101D3000FCE70246D0680840002801D00120704727
:101D40000020FCE7002A03D003690B43036102E093
:101D500003698B430361704770B504460D46002646
:101D6000E0693021884329790843E061E069442132
:101D70008843A9790843E061E06980088000297AF6
:101D80000843E061A0691821884369890843A0617C
:101D9000A06904218843297B0843A0610B48844241
:101DA00003D1FFF71FFB064602E0FFF709FB0646DB
:101DB00030462968FEF7BEF90009206230462968DE
:101DC000FEF7B8F90007000F606270BD00380140EF
:101DD00001464868C0B270474B21C90101603021FB
:101DE000017100218171017218214181002101736B
:101DF0007047000010B500210148FFF723FC10BD1B
:101E00000030014010B5002819DB1A4A03231B02D9
:101E1000D21883089B00D2588307DC0EFF23A3400F
:101E20009A438B071B0E8407E40EA3401A43114B01
:101E3000032424021B198408A4001A5118E00E4A36
:101E400003071B0F083B9B089B00D2588307DC0E3F
:101E5000FF23A3409A438B071B0E8407E40EA34085
:101E60001A43054B0407240F083CA408A4001A5188
:101E700010BD000000E100E01CED00E002E008C839
:101E8000121F08C1002AFAD170477047002001E0F4
:101E900001C1121F002AFBD170470000C178002940
:101EA00025D0174903221202891802789210920055
:101EB000895802789207D30EFF229A409143827884
:101EC0009207120E03789B07DB0E9A4011430C4ACF
:101ED00003231B02D21803789B109B00D15001787A
:101EE000CA06D20E01219140054A116007E001782F
:101EF000CA06D20E01219140014A8032116070471A
:101F000000E100E0FEF79EFDFEF732FFE120400217
:101F1000FFF7A4FEFFF7CCFD20211D48FFF768FB6B
:101F20001C48FEF7DFFAFEF779FF6422C821012082
:101F3000FFF754F92BE01848FFF7A6FAFFF790F8DF
:101F400016484078002809D0012215497D20C0009C
:101F5000FFF7FAF801210846FEF7E2FC0F48C078C7
:101F6000002809D0012200217D20C000FFF7ECF8F5
:101F700000210120FEF7D4FC0748406EFF213C31D0
:101F8000884204D3FFF798F9002003494866D2E756
:101F90000030014040420F00540000206801002042
:101FA000DDEF00006F110000421100003A11000047
:101FB00092110000BC1100007C1100008311000090
:101FC000CB110000C1110000B9110000B4110000D4
:101FD0009A1100009C11000091110000771100007F
:101FE000B311000000000000780F0000CC1F0000BB
:101FF000E72F0000D73F0000C04F0000F05F000057
:10200000BF6F0000B97F0000CA8F0000FD9F000075
:1020100025B000001FC000005DD00000A9DF000057
:10202000EAEF0000442000080000002070010000DA
:10203000CC0100089820000870010020E004000096
:102040008C1E00081184D8B8056809010203040633
:102050000708090CA91089240023F8070A8A71725D
:102060001276750878018002800380048009800B55
:102070008008800C80408041800102058013E70DBC
:102080001B08D50413030EB00F080110111213140E
:0820900015162122232924006A
:04000005080000C12E
:00000001FF
