:020000040800F2
:1000000080060020D5000008010100080301000857
:1000100000000000000000000000000000000000E0
:1000200000000000000000000000000005010008C2
:100030000000000000000000070100081D25000866
:100040000B0100080B0100080B0100080B01000860
:100050000B0100080B0100080B0100080B01000850
:100060000B0100080B0100080B0100080B01000840
:100070000B0100080B0100080B0100089125000886
:10008000E925000800000000000000000B01000846
:10009000000000000B0100080B0100080B01000824
:1000A000000000000B0100080B010008F927000800
:1000B0000B010008000000004907000800000000D4
:1000C0000348854600F0F2F800480047912C0008EC
:1000D000800600200D4880F308880D480D49016016
:1000E0000D480168090E0D4A914205D10C48094995
:1000F00001600C480C4901600C4880470C480047DF
:10010000FEE7FEE7FEE7FEE7FEE7FEE780060020EB
:100110006020024001000000040000001F000000F9
:1001200018100240000001400000000025250008D2
:10013000C100000830B50B460146002020220124F2
:1001400009E00D46D5409D4205D31D469540491B0B
:100150002546954040191546521E002DF1DC30BD54
:1001600003460B439B0703D009E008C9121F08C0D0
:10017000042AFAD203E00B780370401C491C521E7B
:10018000F9D27047D2B201E00270401C491EFBD286
:1001900070470022F6E710B513460A460446194692
:1001A000FFF7F0FF204610BD0EB505490291002172
:1001B00000910A460B46019100F025F803B000BDFE
:1001C0003304000010B5002904DB0124E407404299
:1001D0008C412146002B04DB1C460123DB075242E5
:1001E000A3418B4200D1824210BD000010B5002B0C
:1001F00008DA0024401C614192185B411A4301D186
:100200004008400010BDF0B51FB482B005460C0098
:1002100003D0084602F092FC02E002F08FFC20308E
:10022000024600902146284600F052F8049B059AA9
:1002300004460F4618431143084314D01846104390
:100240001BD0009840210A1A1846059900F050F872
:1002500005460E46009A0599049800F039F80843BF
:1002600005D0012004E02046394607B0F0BD00204B
:10027000C11705430E432C43374300990E9863057D
:10028000401A7905E40A00220C43FD0A0A3002D51F
:1002900000200146E9E70105101969410C9C0D9DFC
:1002A00000196941FFF7A2FFDFE70000064C0125B6
:1002B000064E05E0E36807CC2B430C3C984710340E
:1002C000B442F7D3FFF700FF942D0008B42D0008C7
:1002D00010B5202A04DB0146203A9140002010BDD1
:1002E000914020239C1A0346E3401943904010BDDF
:1002F00010B5202A04DB0846203AD040002110BD6A
:100300000B46D340D0402024A21A914008431946FE
:1003100010BD70B58C180578401C6B075B0F01D1C0
:100320000378401C2A1106D10278401C03E00678AD
:100330000E70401C491C5B1EF9D12B0705D400230D
:10034000521E0DD40B70491CFAE70378401CCB1ADF
:10035000921C03E01D780D70491C5B1C521EF9D5E0
:10036000A142D8D3002070BDFFB583B00C460294E3
:1003700000200190002726E000261CE0721C039953
:1003800051430846791CFFF7D5FE0546A54201D921
:10039000281B00E0601B05460298A84204D902957C
:1003A00005980670069807700298002802D101206F
:1003B000019002E0761C402EE0D300BF0198002897
:1003C00000D002E07F1C042FD6D300BF029807B0F4
:1003D000F0BDF7B584B0054616460396012002909D
:1003E00000200190002700BF002EFDD005980028B6
:1003F000FAD031460598FFF79DFE07467F0819247D
:1004000013E021463846FFF795FE6043381A019005
:100410000198002801D1029409E0039901988842CB
:1004200002D2019803900294641E032CE9D800BF05
:100430000020287038460299FFF77CFE401E687045
:100440000299C81E0321FFF775FEE8700298C01ECE
:10045000E978401A287107B0F0BD416808221143BD
:1004600041607047002100BFC168704741680422A5
:100470001143416070470000FFB586B00746002079
:100480000190384600F0DEFF04460221079808403C
:10049000002801D001200190002F36D03846F917EE
:1004A000490F09184905090E0391F917490F091851
:1004B000C910C900791AC9B2029103998800584934
:1004C000401800900198002808D000980068012288
:1004D00002998A4010430099086007E0009801687B
:1004E00001220298824091430098016003988000A5
:1004F0004B490C3140180090009800680122029985
:100500008A4010430099086013E00198002808D041
:100510004348803800680821084341498039086011
:1005200007E03F4880380068082188433C4980390B
:100530000860019801282AD10798C007C00F002839
:1005400008D008980068C60009980068C500072010
:10055000054307E008980088460509980088450586
:1005600030480543300E20603002000E60603004D9
:10057000000EA060F0B2E060280E20612802000E9C
:1005800060612804000EA061E8B2E06145E00898CF
:1005900006680998056808980068401C0590099845
:1005A0000068401C04900798C007C00F00280ED0B8
:1005B000F600ED000598C00005900498C000049076
:1005C0001948054318490498084304900DE076053E
:1005D0006D05059840050590049840050490114864
:1005E00005431049049808430490300E20603002FF
:1005F000000E6060280E20612802000E60610598E0
:10060000000EA06005980002000EE0600498000E45
:10061000A06104980002000EE0610AB0F0BD000085
:1006200080640040FFFF1F00FFFF000010B58EB088
:10063000044600F03FF801211C4800F009FA80212F
:100640001A4800F0E1F805A801F0DAFA0AA800F06B
:100650009BF922460AA80799FFF7BBFE002108A8CC
:100660008172817341730AA800F0E2F800200390C0
:100670000F48019001AB03AA02210020FFF7FCFE06
:100680000121084600F0C4F80121802000F0C0F8E4
:100690000121082000F0BCF80121402000F0B8F84A
:1006A0000021024800F0D4F90EB010BD00640040F3
:1006B000FFFF00001CB50121480601F081FA01216D
:1006C000084601F08DFA0121480401F069FA01A8F9
:1006D00000F0AFFE0121C9026846818001218171CD
:1006E0000421C17101A90920C00600F02BFE0121DF
:1006F000090368468180012181711821C17101A916
:100700000920C00600F01EFE04220C210920C006AC
:1007100000F065FE04220B210920C00600F05FFEF8
:100720001E2168460170002141700121817001F095
:10073000EFF91CBD024690680840884201D10120B3
:1007400070470020FCE7000070B52B48C46885683E
:1007500080202040002807D140202040002803D1DD
:1007600008202040002802D02348FFF77BFE02200B
:100770002840002805D02048FFF76FFE1E48FFF7ED
:1007800071FEE007C00F002825D01C4800F096F845
:1007900000201B49087018E01848C01D1849097846
:1007A000415C1848C26DC01C8154C11EC96D481CF3
:1007B0005021FFF7BFFC1348C16500201149887024
:1007C0000F480078401C0E4908700C4880790C498D
:1007D00009788842E0DC0121084600F019F801217F
:1007E000802000F015F80121082000F011F8012107
:1007F000402000F00DF870BD00640040640200204D
:100800002C00002058000020C26F0A43C2677047C6
:10081000002905D0054A12690243044B1A6104E01D
:10082000024A12698243014B1A617047006400401A
:1008300001788901427811431F4A91618178C90189
:10084000C27812011143027911431B4AD1614179E7
:10085000012906D11146096802221143164A116086
:1008600005E01549096802229143134A1160817914
:10087000012906D110490968042211430E4A11606A
:1008800005E00D490968042291430B4A1160C179C2
:10089000012906D10849096810221143064A11604E
:1008A00005E00549096810229143034A1160024A94
:1008B000C1685163704700000064004010B50346F2
:1008C000304800684004000E18712E480068400649
:1008D000C00F58712B4800680007000F98711879F5
:1008E000012820D027488068440926484068C00075
:1008F00004431C602348C068D871224800691872FC
:100900002048406958721F48806998721D48C06924
:10091000D8721C48006A18731A48406A58731948FC
:10092000806A987329E017480069F8210840C408D4
:100930001448C068400104431248806840030443DF
:1009400010484068400504431C600E484069D87157
:100950000C48806918720B48C06958720948006ACF
:1009600098720848406AD8720648806A1873054829
:10097000C06A58730348006B987302484038FFF709
:1009800075FD10BD4064004000214170017001718F
:10099000C170817041718171C17101729621C16014
:1009A000704700000179C9014279920111438279AF
:1009B0001143264A1160017901291AD0C17851608A
:1009C0008178E0221140214A9160417901292CD09F
:1009D000C179D160017A1161417A5161817A916165
:1009E000C17AD161017B1162417B5162817B91624D
:1009F0001BE0C178154A5160817891604178D160DF
:100A000001781161417901290FD0C1795161017AD1
:100A10009161417AD161817A1162C17A5162017B1F
:100A20009162417BD162817B116308494039096839
:100A300004221140002904D01221044A403A516096
:100A400003E00321014A403A51607047406400408E
:100A5000012904D1026801231A43026003E00268FD
:100A60005208520002607047022807D1002905D1C0
:100A700000221B4B9A701B4B1A6730E0012807D1EC
:100A8000002905D10022164BDA70164B5A6726E072
:100A9000022806D1012904D10022114B1A705A7183
:100AA0001DE0012806D1012904D100220C4B5A7007
:100AB0009A7114E0012808D1032906D100220A4BBB
:100AC0009A735A73DA735A7409E0022807D103291A
:100AD00005D10022044B9A735A73DA731A74704763
:100AE000740200205800002064010020FEB5044676
:100AF00019277F01B4200290AF2000010190FF2050
:100B0000193000908021444800F07DFC002803D07B
:100B1000002C01DD102C02DD0020C043FEBD012CA5
:100B20000BD1601E82003D4880587D221201811841
:100B30000122384600F032FF0AE0601E820037488A
:100B400080587D221201811A0122384600F026FFCA
:100B500003E03248B83801F0EBF83148C07800289B
:100B6000F7D002222F49FF20563000F017FF6420F3
:100B700000F0ECF8601E82002848815801223846B7
:100B800000F00CFF03E02548B83801F0D1F8244804
:100B9000C0780028F7D002220199009800F0CCFE1E
:100BA00000BF1F490889FFF7FFFA054600221E4BC8
:100BB000FFF708FBF5D302220021009800F0BCFEED
:100BC0000021022000F094FB0321022000F090FBA2
:100BD000012C0BD1601E8200104880587D2212012A
:100BE00081180122384600F0D9FE0AE0601E82001A
:100BF0000A4880587D221201811A0122384600F0ED
:100C0000CDFE642000F0A2F802220649FF205630F3
:100C100000F0C4FE012081E700040048100100201C
:100C2000740200206C09000000E0854010B5044605
:100C30005AE02E48808C002808D12C48808C2B4903
:100C40004039095C2948808C21543EE02748808C3B
:100C5000642802D100212548818425480078322863
:100C600007DB64212348FFF794FA0020204908702D
:100C700010BD1E48808C1D494039085C002800D1F9
:100C8000F6E71A48808C19494039085C0A2814D1C3
:100C90001648808C095C1548808C21541348808C40
:100CA000401C81B211488184818C4038FFF771FA71
:100CB00000200F4908700120DAE70C48808C0B49AE
:100CC0004039095C0948808C21540848808C401CBC
:100CD00081B206488184818C4038FFF75AFA044873
:100CE0000078401C02490870A3E70000D8010020EA
:100CF000280000200002002010B57D21C900104806
:100D00000068FFF717FA0446601E0E49884201D9B1
:100D100001200CE0601E0C4948610321081F01F00E
:100D200025FF00200849886107200861002000286D
:100D300001D000BFFEE70021481E01F017FF10BDE3
:100D400000000020FFFFFF0000E000E001B50449C3
:100D50000098086000BF024800680028FBD108BD69
:100D600024000020014600297ED00878F0280CD10C
:100D70004878012809D14878984A90738878507348
:100D8000C878D0730120507426E10878F0280CD17F
:100D90004878022809D14878904A9073887850732F
:100DA000C878D0730120107416E1087875280DD129
:100DB000487801280AD10A7989488282808A4A794A
:100DC0001202104302B28648828205E10878752833
:100DD0000DD1487802280AD10A7981480283008B14
:100DE0004A791202104302B27D480283F4E0087887
:100DF00076280CD14878012809D10A797848C2822E
:100E0000C08A4A7912021043754AD082E4E0087819
:100E100076280CD14878022809D10A797048428393
:100E2000408B4A79120210436D4A5083D4E008780F
:100E3000712821D1487801281ED10879684A403AA2
:100E400090661046806E4A7912021043644A403A16
:100E500090661046806E8A7912041043604A403AC8
:100E600090661046806E00E0B4E0CA791206104326
:100E70005B4A403A9066AFE0087871281FD1487805
:100E800002281CD10879564A403AD0661046C06EF6
:100E90004A7912021043524A403AD0661046C06E58
:100EA0008A79120410434E4A403AD0661046C06E0A
:100EB000CA79120610434A4A403AD0668CE0087854
:100EC000152805D14878012802D1464AD07083E020
:100ED0000878152806D14878022803D10120414A14
:100EE000907079E0087878280CD14878012809D1E9
:100EF0008878012806D1C878002803D10120394A12
:100F0000507069E0087878280CD14878022809D117
:100F10008878012806D1C878002803D10120314AF9
:100F2000107059E00878732827D14878012824D117
:100F30008878FF2821D1C878FF281ED10A7928484F
:100F400040308267806F4A7912021043244A40324F
:100F500090671046806F8A7912041043204A40320D
:100F600090671046806FCA79120610431C4A4032BF
:100F7000906702201B4A90712EE00878732827D1D1
:100F80004878022824D18878FF2821D1C878FF2802
:100F90001ED10A7912484030C267C06F4A791202E6
:100FA00010430F4A4032D0671046C06F8A7912044E
:100FB00010430B4A4032D0671046C06FCA79120600
:100FC0001043074A4032D0670220064A507103E0BE
:100FD000002070470020FCE70120FAE764010020B0
:100FE0009800002074020020FEB5002001900290BD
:100FF00019246401B425AF263601FF271937B348F9
:101000000078002805D101F0FCFD0120AF490870EF
:1010100059E1AE48007801280CD121200001AAB284
:10102000012321460090184600F0F2FC0220A74957
:10103000087048E1A648407800281BD0A3480078F3
:10104000022817D1A34841786846017101214171F6
:10105000A1480178684681719F480088011268465E
:10106000C1710122082101A800F026FC0320974944
:10107000087028E19948806E0921C943884223DB22
:101080009648806E0A281FDC9048007803281BD100
:101090008F488079002802D1012000F081FE8C4821
:1010A00080790228B4D18D488030806F8C490860E7
:1010B000B020AAB2002321460090012000F0A8FC35
:1010C000042082490870FEE081484078002817D04B
:1010D0007E480078042813D17D488079002802D109
:1010E000012000F05DFE7A488079022890D17B488B
:1010F0008030806F7B490860052074490870E2E009
:1011000072480078052868D17648006874490968F3
:10111000401A05D57248006872490968401A04E00F
:10112000704800686E490968401A6D49086008688F
:10113000C117C90E0918491149006A4A11601046C1
:1011400000684B21C9004018674988423EDB1046C1
:1011500000684B21C900401A6349884236DC0020F0
:10116000019002905B48417868460171012141710C
:1011700059480178684681715748008801126846CD
:10118000C17110460178684601721046008800045B
:10119000010E68464172104600680002010E684662
:1011A000817210460068010E6846C1720122082152
:1011B00001A800F081FB4B4801684848B830C16382
:1011C00006204249087001F01CFD7CE001F019FD89
:1011D00000203E490870401EFEBD3C4800780628AD
:1011E00007D03A480078072803D038480078082804
:1011F0005AD13748C078002811D1344800780628E1
:101200000DD136488030806B7D2212018118012279
:10121000204600F0C3FB07202C49087053E02C48FF
:10122000C078002828D029480078072824D1022235
:101230003146384601F0EEFB01280ED10820234943
:101240000870264880300122816B204600F0A6FB02
:1012500000210120FFF708FC35E002223146384624
:1012600001F0D8FB401C00282DD101F0CAFC002061
:1012700016490870401EAFE714480078082822D1AC
:101280001348C07800281ED001F0BBFC802117480D
:1012900000F0B9F8002803D10C49087001209BE741
:1012A00009200A4908700EE00848007809280AD188
:1012B00000F0ECFF002806D001F0A3FC0020034959
:1012C0000870012088E7002086E7000084010020E4
:1012D00074020020300000203E0000205800002052
:1012E0007C01002080010020D8EF000000040048AD
:1012F0007CB505460C46002000900190104881788E
:101300006846017045708470032C0AD10C48817ABC
:1013100068460170002181700122082100F0CCFA9A
:101320000CE0002C01D0012C05D1012208216846D7
:1013300000F0C2FA02E00020C0437CBD0020FCE7C0
:1013400030000020F8B50246CD782F073F0FCD784A
:1013500010263540002D01D08D782F4314460020F3
:1013600011E085062B0E0D88012686403540002DA4
:1013700007D025680F269E40B5433E469E40354324
:101380002560451CE8B20828EBDB141D0D882D12E2
:101390000095002011E085062B0E01258540009E5A
:1013A0003540002D07D025680F269E40B5433E46A8
:1013B0009E4035432560451CE8B20828EBDBCD781C
:1013C000282D04D155690E883543556106E0CD7846
:1013D000482D03D115690E8835431561F8BD70B5E8
:1013E0004D07EB0E082902DA0546203501E00546D7
:1013F00024352C460F269E402568B54316469E4050
:101400003543256070BD024690680840002801D031
:10141000012070470020FCE70246D0680840002801
:1014200001D0012070470020FCE741617047016155
:1014300070470021C9430180022181700421C170DD
:10144000704700000146002901D1044804E04A1E0B
:101450005201024B5833D0187047000040640040DE
:1014600008B501210320400400F09AFB6846FFF70D
:10147000E0FFF821684601802821C17069460748CD
:10148000FFF760FF0121C903684601802821C17070
:1014900069460920C006FFF755FF08BD0004004853
:1014A000FEB50446192040010290B4200190AF27F8
:1014B0003F01FF2019300090002C01DD102C02DDCF
:1014C0000020C043FEBD80215348FFF79CFF002849
:1014D0003ED002223946009800F02EFA00BF4F4954
:1014E0000889FEF761FE054600224D4BFEF76AFEB5
:1014F000F5D302220021009800F01EFA00210220FC
:10150000FFF7F6FE03210220FFF7F2FE012C0BD1BC
:10151000601E8200434880587D22120181180122FA
:10152000029800F03BFA0AE0601E82003D488058B5
:101530007D221201811A0122029800F02FFA022264
:101540003949FF20563000F029FA6420FFF7FEFBEE
:10155000601E8200334881580122029800F01EFA72
:1015600003E03048B83800F0E3FB2C48C07800288E
:1015700004D12A4840892D498842F2DB2748408916
:101580002A49884207DD02220021009800F0D4F9A0
:101590000020C04396E779420222009800F0CCF97F
:1015A00000BF1E4800897D21C9008842F9DB022264
:1015B0000021009800F0C0F900210220FFF798FEFA
:1015C00003210220FFF794FE012C0BD1601E820044
:1015D000144880587D22120181180122029800F0DF
:1015E000DDF90AE0601E82000E4880587D2212015B
:1015F000811A0122029800F0D1F96420FFF7A6FBBE
:1016000002220949FF20563000F0C8F96420FFF794
:101610009DFB012056E700000004004874020020F2
:1016200000E08540100100206C09000070170000E8
:1016300008B50121880400F0B3FA0121480400F044
:10164000AFFA6846FFF7F5FE0121490268460180BE
:10165000012181701021C17069460D48FFF772FEAB
:10166000082168460180012181701021C1706946FE
:101670000920C006FFF766FE012149020448FFF772
:10168000D6FE08210920C006FFF7D1FE08BD0000E4
:101690000004004801460A6EC86D904201D1012045
:1016A00070470020FCE710B50446E16D481C50214E
:1016B000FEF740FD206E814201D1012010BD0020C7
:1016C000FCE710B50446226EE16D891A08465030D9
:1016D0005021FEF72FFD084610BD00001CB500206C
:1016E000009001905C4841786846017000F0B8F8BD
:1016F0000221684641705948817868468170574890
:10170000408801126846C17001210171012208213F
:1017100000F0D2F85148017A684681704F4800893C
:1017200001126846C170002101710122082100F0F8
:10173000C3F84A48817A6846817048484089011256
:101740006846C170FF2101710122082100F0B4F840
:101750004248817D684681704048C08A01126846CF
:10176000C17002210171012181710122082100F063
:10177000A3F83A48017E684681703848008B011210
:101780006846C17002210171002181710122082186
:1017900000F092F8062100A80230FEF7FAFC0121C1
:1017A000684641702D488178684681702B48408892
:1017B00001126846C170012101710122082100F067
:1017C0007BF82648017A6846817024480089011216
:1017D0006846C170002101710122082100F06CF8F7
:1017E0001E48817A684681701C484089011268460B
:1017F000C170FF2101710122082100F05DF8174836
:10180000817D684681701548C08A01126846C170A2
:1018100002210171012181710122082100F04CF89F
:101820000E48017E684681700C48008B01126846A4
:10183000C17002210171002181710122082100F093
:101840003BF803210120FFF753FD03210220FFF79E
:101850004FFD00201CBD0000300000203E00002095
:1018600010B5A0B000244022114910A8FEF778FC62
:1018700040220F4940316846FEF772FC00BF06E087
:10188000A00069460958A2000A488150641C102C27
:10189000F6DB002407E0A00010A90958A2000548C3
:1018A00040388150641C102CF5DB20B010BD0000C6
:1018B000142D000810010020F0B585B005460E4635
:1018C0001746002D01D0002E03D10020C04305B0E3
:1018D000F0BD68780321FFF7C7F800BF2021154845
:1018E000FEF728FF0028F9D100BF10211148FEF7AC
:1018F00021FF0028F9D100BF08210E48FEF71AFF8A
:101900000028F9D000976846467200200190002117
:1019100068460172002405E0295D02A802300155E5
:10192000601CC4B2B442F7D3684600F0F5FC002056
:10193000CDE70000006400407CB506460C46154625
:1019400000200090019069464D70022D02D111498E
:10195000088104E0012D02D100200E4948810E4883
:10196000417B6846017086703004010E6846C17084
:1019700004712004010E684641712002010E684680
:101980008171210EC17101220821FFF795FF00200E
:101990007CBD000074020020300000207CB50646AB
:1019A0000C46154600200090019069464D70022DAE
:1019B00006D114490881144804670020887008E0A3
:1019C000012D06D100200F4948810F4844670020AF
:1019D000C8700E4801796846017086703004010EA7
:1019E0006846C17004712004010E684641712002EE
:1019F000010E68468171210EC17101220821FFF795
:101A00005BFF7CBD740200205800002030000020E5
:101A1000FFB583B004460E4617460C9D022C03D139
:101A20000121FFF721F805E0012C03D1012108462F
:101A3000FFF71AF8002001900290684644712B4885
:101A40004178684601712A48817868468171284842
:101A5000408801126846C1710699817201220821ED
:101A600001A8FFF729FF002168468172204801790B
:101A7000684681711E48808801126846C1710572EE
:101A80002804010E684641722802010E68468172E0
:101A9000290EC1720122082101A8FFF70DFF13488A
:101AA00001786846017186713004010E6846C17183
:101AB00007723912417200218172C172012208211C
:101AC00001A8FFF7F9FE0948C17A684601710121B2
:101AD00081710021C171017241720122082101A8A6
:101AE000FFF7EAFE002007B0F0BD00003000002044
:101AF0003E000020F8B504460D46164668460470C0
:101B0000457086700121C17001F08EF8F8BD0000AB
:101B10008178002925D017490322120289180278FA
:101B200092109200895802789207D30EFF229A40B1
:101B3000914342789207120E03789B07DB0E9A407E
:101B400011430C4A03231B02D21803789B109B00FD
:101B5000D1500178CA06D20E01219140054A116088
:101B600007E00178CA06D20E01219140014A803275
:101B70001160704700E100E010B500210648C18403
:101B8000818464210548FEF704FB64210248403843
:101B9000FEF7FFFA10BD0000D8010020000200206F
:101BA000002905D0054A52690243044B5A6104E0FA
:101BB000024A52698243014B5A6170470010024049
:101BC000002905D0054AD2690243044BDA6104E0DA
:101BD000024AD2698243014BDA6170470010024029
:101BE000002905D0054A92690243044B9A6104E03A
:101BF000024A92698243014B9A6170470010024089
:101C000038B504460DA00068009000F051F820603F
:101C100000F01AF8606000F027F8A06000F036F8D5
:101C2000E060074A5268074B1A4012096B46995CFC
:101C3000E068FEF77FFA206138BD00000204060864
:101C4000001002407040000010B500F031F8044967
:101C50004968F02211400909024A515CC84010BD90
:101C6000001002401400002010B5FFF7EDFF0549F9
:101C70004968072212021140090A034A515CC84010
:101C800010BD0000001002401400002010B5FFF746
:101C9000DBFF054949680722D2021140C90A034AFD
:101CA000515CC84010BD000000100240140000202C
:101CB000F8B51B4840680C210840042802D00828C9
:101CC00028D101E0174C27E015484068012109049C
:101CD0000840002809D01248406849000840002800
:101CE00001D0114802E00F4800E0104807460C48B8
:101CF0000068800E451C0A48006807210905084055
:101D0000000D461C3946694308463146FEF712FA73
:101D1000044601E0034C00BF00BF2046F8BD0000B0
:101D20000010024000127A0000093D00001BB700BD
:101D30007CB504460025082600200090019000BFD5
:101D400020211648FEF7F6FC0028F9D100BF01213A
:101D50001248FEF7EFFC0028F9D1FF2009300159A5
:101D600020468847082816D300250BE0E01C216E8A
:101D7000405C69464855216E481C5021FEF7DAF94F
:101D800021666D1CB542F1DB6846FEF7EBFF0028CB
:101D900001D001207CBD0020FCE700000064004071
:101DA0001CB504460020009001900B48017B68465A
:101DB0000170447001220821FFF77EFD012C03D140
:101DC00001200649887104E0022C02D10120034958
:101DD000487100201CBD000030000020740200206B
:101DE000F8B504460D4616461F462078002808D14F
:101DF0000698414202220798FFF79EFD01202070BD
:101E00005FE0207801282FD12E480089FF219131F1
:101E1000884229DB022200210798FFF78DFD2878F0
:101E20000F280BD128788200274880587D22120184
:101E3000811A01223846FFF7B1FD0AE028788200B6
:101E4000214880587D221201811801223846FFF76F
:101E5000A5FD00210220FFF74BFA03210220FFF726
:101E600047FA022020702CE0207802280CD1154877
:101E7000C078002808D002221449FF205630FFF70E
:101E80008DFD032020701CE0207803280ED10D4822
:101E9000807800280AD0287882000B4881580122D7
:101EA0003846FFF77BFD042020700AE020780428E4
:101EB00007D10448C078002803D0002020700120FA
:101EC0003070F8BD74020020100100206C09000081
:101ED000F8B504460D4616461F462078002807D15F
:101EE000022206990798FFF727FD0120207070E075
:101EF0002078012852D137480089FF21913188424A
:101F00004CDB00210220FFF7F3F903210220FFF749
:101F1000EFF928780F2805D080212F48FFF773FAB2
:101F200000282DD12878002811D180212A48FFF7D8
:101F30006AFA00280BD128788200284880587D2230
:101F40001201811801223846FFF728FD0AE028789F
:101F50008200224880587D221201811A01223846CF
:101F6000FFF71CFDC820FEF7F1FE02221C491D48A8
:101F7000FFF714FD6420FEF7E9FE032030700AE04D
:101F800028788200154880587D221201811801228C
:101F90003846FFF703FD022020701AE0207802285F
:101FA0000CD10C48C078002808D002220C49FF2030
:101FB0005630FFF7F3FC032020700AE02078032856
:101FC00007D104488078002803D000202070022028
:101FD0003070F8BD74020020000400481001002099
:101FE0006C09000055030000F8B504460D4616467E
:101FF0001F46207800280ED12878401C8200174800
:10200000815801223846FFF7C9FC2878401C287007
:102010000120207021E0207801281ED11048C078CE
:10202000002805D10E4800897D210901884214DB72
:102030000B4800897D21090188420BDB0848807824
:10204000002807D100210220FFF752F903210220C6
:10205000FFF74EF9002020703070F8BD100100200D
:10206000740200207FB505460C4601210803FFF7E6
:10207000B7FD684600F0FAF80421684601700021B7
:10208000418008210171022141710021817101818A
:10209000448101736946284600F0A2F800212846D1
:1020A00000F066F80121284600F062F80121284678
:1020B00000F08AF87FBD08B501214804FFF770FDE4
:1020C000002207210920C006FFF789F90022042118
:1020D0000920C006FFF783F9002206210920C00667
:1020E000FFF77DF9002205210920C006FFF777F9E7
:1020F00000F088FC6846FFF79CF9102168460180D3
:10210000012181701821C17069460920C006FFF7BE
:1021100019F9202168460180012181701821C170C0
:1021200069460920C006FFF70DF980216846018045
:10213000012181701821C17069460920C006FFF78E
:1021400001F9402168460180012181704821C17058
:1021500069460920C006FFF7F5F808BD70B50446CA
:102160000D46FFF7A8FF29462046FFF77BFF70BD0D
:10217000002906D0012909D002290CD0032914D145
:102180000EE0826910231A4382610FE082690823FE
:102190001A4382610AE0826910239A43826105E052
:1021A000826908239A43826100E000BF00BF704744
:1021B000002904D0826A52085200826203E0826AD7
:1021C00001231A4382627047002904D082690123E7
:1021D0001A43826103E082695208520082617047AB
:1021E0004A880123DB029A4203D182691A43826141
:1021F00004E082690123DB029A4382618269012340
:102200009B029A430B891A438261826904239A4391
:102210000B781A438261C26904239A430B7B1A43E9
:10222000C261C26902239A434B791A43C261C269EF
:10223000520852008B791A43C261C26908231A43BB
:10224000C261026A120C12044B891A4302620A79B3
:10225000202A04DBC26A52095201C26205E0C26A46
:10226000520952010B791A43C26270470021017072
:1022700041800821017100214171012181710021FA
:102280000181022141810021017370477CB5E12663
:10229000F6007D24A40125111B480078002806D0F3
:1022A00001280DD0022814D0032829D119E0334683
:1022B000154A1649164801950094FFF791FD1FE055
:1022C0003346114A1149124801950094FFF700FE68
:1022D00016E033460C4A0D490D480094FFF784FE82
:1022E0000EE080210B48FFF78EF8002807D1064941
:1022F0000870064908700649087001207CBD00BFBF
:1023000000BF0020FAE70000790100207A010020D8
:102310007B010020000400487FB50446002560686A
:10232000002811D02068C5000121684601710570A0
:102330002804010E684641702802010E684681702B
:10234000280E6946C8700BE02088450500216846C4
:1023500001712802010E68468170280E6946C87016
:10236000617A68468171217A4171002606E0204633
:102370000A30815D01A803308155761C082EF6D302
:102380006846FEF70FFB7FBD10B500F001F810BDE9
:102390007FB500200390029059480068012109048C
:1023A00008435749086000BF5548006801214904A7
:1023B000084002900398401C03900298002804D122
:1023C0000521090203988842EED14D480068012199
:1023D00049040840002809D0012002907D252D01E4
:1023E00000BF28466D1E0028FBD101E000200290AE
:1023F000029801287ED14348434908604348006859
:10240000102108434149086008460068C008C00020
:1024100008603D490968481E3D49FDF78BFE0446AA
:102420003A480068204339490860354840683449D3
:10243000486008464068486033480068354988422B
:1024400007D92F4840680121890208432C49486078
:1024500006E02B484068012189020843284948606A
:1024600027484068032109048843254948600846F5
:1024700000680003000B0860084640680121090459
:1024800008431F4948606B4601AA1F48016822485B
:10249000FDF76AFF1A4800680003000B184908603E
:1024A00069460879800609780905084314490968CE
:1024B00008431349086008460068012109060843DB
:1024C0000F49086000BF0E48006801214906084016
:1024D0000028F8D00A484068800880000849486011
:1024E00008464068022108430549486000BF044887
:1024F000406800E003E00C2108400828F7D17FBDC8
:102500000010024000D8B805000000200020024062
:1025100000366E010051250200127A0010B500F05D
:102520005FF910BD10B51648006801210843144931
:102530000860084640681349084011494860084649
:102540000068114908400E490860084600680121EA
:10255000890488430A49086008464068C321090481
:10256000884307494860084600680849084004490C
:1025700008609F2000048860FFF706FF10BD000080
:10258000001002400CC0FFF8FFFFF6FEFFFF8F00B7
:1025900010B50121880700F0CBF8002821D00121D7
:1025A000880700F0B5F802210E48FEF735FF002835
:1025B00004D002210B48FEF738FF03E0022109484E
:1025C000FEF735FF01210748FEF726FF002804D05B
:1025D00001210448FEF729FF03E001210148FEF72D
:1025E00026FF10BD0004004810B501211A4800F074
:1025F0009FF8002823D00121174800F089F8012115
:1026000049021648FEF708FF002805D001214902BB
:102610001248FEF70AFF04E0012149020F48FEF7C5
:1026200006FF0F48406E401C0D4948660D48408922
:10263000401C0C49488108460089401C0881102133
:102640000948FEF777F8002804D105488078401C37
:102650000349887010BD00000004004000040048D9
:102660005800002074020020006400403EB504467B
:102670000D4601210220FFF7A3FA684600F0A6F8F4
:10268000019468460580002101818172817069464C
:102690000A4800F065F80121084800F029F80121F6
:1026A000064800F031F801221146044800F04DF8C8
:1026B0000121024800F030F83EBD00000004004057
:1026C00010B5084908480068FDF734FD401E84B283
:1026D00021460648FFF7CAFF012200211020FFF71C
:1026E00009FA10BD40420F0000000020E70300007F
:1026F000002904D0026880231A43026003E00268C4
:1027000080239A430260704702698A4302617047DE
:1027100002698A4302617047002904D002680123DC
:102720001A43026003E002685208520002607047D8
:10273000024610690840002805D0D06808400028EB
:1027400001D0012070470020FCE7002A03D0C368B5
:102750000B43C36002E0C3688B43C3607047000053
:10276000026803231B029A430B891A430260134A2F
:10277000904206D001229207904202D0104A904225
:1027800005D1026870239A438B781A4302600B4A82
:10279000904205D00B4A904202D00B4A904205D19C
:1027A000026B120A12028B7A1A4302634A68C262EF
:1027B0000A8882620122426170470000002C0140B9
:1027C0000004004000440140004801400021C9438A
:1027D0004160002101800181817081727047000099
:1027E00004480068002804D002480068401E0149DF
:1027F000086070472400002010B50221184800F03E
:10280000A0F800282AD00221154800F089F81548C0
:10281000C08C642802D100211248C18418E01148FC
:10282000C08C642802D100210E48C1840C4800F0FD
:10283000D7F8C1B20B48C08C0A4A403A1154094833
:10284000C08C401C81B20748C1840748FEF7EEF9EE
:102850000221034800F06CF80028E0D110BD000010
:1028600000380140D80100200002002010B586B0D9
:1028700004461B21684601700321417001218170CB
:10288000FFF746F901218803FFF7AAF9012148045F
:10289000FFF786F901220921C806FEF7A0FD0122F3
:1028A0000A210920C006FEF79AFD01A800F09CF855
:1028B000019430216846018100214181818101829A
:1028C0001821C18101A9154800F04EF8012202210A
:1028D000124800F03FF80121104800F023F805A845
:1028E000FEF7A7FD01214902684681820121817519
:1028F0001821C17505A90920C006FEF723FD012195
:102900008902684681820421C17505A90920C00693
:10291000FEF718FDFFF730F906B010BD0038014092
:10292000416170478269520852000A4382617047D0
:10293000024690680840002801D00120704700201E
:10294000FCE70246D0680840002801D0012070470B
:102950000020FCE7002A03D003690B43036102E077
:1029600003698B430361704770B504460D4600262A
:10297000E0693021884329790843E061E069442116
:102980008843A9790843E061E06980088000297ADA
:102990000843E061A0691821884369890843A06160
:1029A000A06904218843297B0843A0610B48844225
:1029B00003D1FFF76BF9064602E0FFF755F906462B
:1029C00030462968FDF7B6FB0009206230462968C9
:1029D000FDF7B0FB0007000F606270BD00380140DA
:1029E00001464868C0B270474B21C90101603021DF
:1029F000017100218171017218214181002101734F
:102A00007047000010B500210148FFF7D1FB10BD51
:102A1000003001407CB504460D461646002000906B
:102A2000019040480078002812D1324629462046BD
:102A3000FEF782FF10213C48FEF7E5FC002803D09A
:102A40000120384908706AE003203649087066E0C2
:102A500034480078012803D032480078022826D173
:102A600010213148FEF7CFFC002820D1324600214A
:102A70002046FEF761FF2D4841786846017002212B
:102A800041702B48017868468170294800880112FE
:102A90006846C17001220821FEF70EFF0222254977
:102AA0005520FEF77BFF04201E49087037E01D48C3
:102AB0000078042808D120488078002804D000201D
:102AC0001849087001207CBD16480078032809D1F8
:102AD00010211548FEF797FC002820D0022011494C
:102AE00008701CE00F4800214156002917DD1248EC
:102AF00000897D214901884211DB324600212046B0
:102B0000FEF71AFF00210220FEF7F2FB032102204C
:102B1000FEF7EEFB002003490870401ED3E70020BB
:102B2000D1E70000780100200004004830000020B8
:102B30003E0000206C090000740200202021020CDD
:102B400001D010211046020A01D0104608390209AE
:102B500001D01046091F820801D01046891E420884
:102B600001D0881E7047081A7047000010B5002871
:102B700019DB1A4A03231B02D21883089B00D25880
:102B80008307DC0EFF23A3409A438B071B0E8407A9
:102B9000E40EA3401A43114B032424021B1984089A
:102BA000A4001A5118E00E4A03071B0F083B9B08AC
:102BB0009B00D2588307DC0EFF23A3409A438B0768
:102BC0001B0E8407E40EA3401A43054B0407240F91
:102BD000083CA408A4001A5110BD000000E100E068
:102BE0001CED00E002E008C8121F08C1002AFAD15B
:102BF00070477047002001E001C1121F002AFBD17D
:102C0000704710B501210846FDF72EFF0121022073
:102C1000FDF72AFF00210120FDF726FF00210220F9
:102C2000FDF722FF10BD0000C178002925D017490B
:102C300003221202891802789210920089580278B1
:102C40009207D30EFF229A40914382789207120E88
:102C500003789B07DB0E9A4011430C4A03231B02A7
:102C6000D21803789B109B00D1500178CA06D20E6F
:102C700001219140054A116007E00178CA06D20E91
:102C800001219140014A80321160704700E100E06B
:102C9000FEF732F8FEF7CCFCFEF7E2FBE120400243
:102CA000FFF7E4FDFFF70CFD20211648FFF756FA69
:102CB0001548FDF7BBFCFEF711FD21E01348006845
:102CC000002806D1FEF790F9002802D001200F4914
:102CD00008600E480068012805D11020FEF7E0FBCF
:102CE00002200A49086009480068022805D101202D
:102CF000FDF7FCFE0320054908600548FFF718F8BA
:102D0000DCE700000030014040420F009401002049
:102D1000580000206F110000421100003A1100001D
:102D200092110000BC1100007C1100008311000012
:102D3000CB110000C1110000B9110000B411000056
:102D40009A1100009C110000911100007711000001
:102D5000A81100000A000000780F0000CC1F00003E
:102D6000E72F0000D73F0000C04F0000F05F0000D9
:102D7000BF6F0000B97F0000CA8F0000FD9F0000F8
:102D800025B000001FC000005DD00000A9DF0000DA
:102D9000EAEF0000B42D00080000002098010000B8
:102DA000120300080C2E000898010020E80400001F
:102DB000F42B00081184D8B8056809010203040641
:102DC0000708090CA91089240027FF070A8A7172D5
:102DD0001276750878730B018002800380048009E5
:102DE000800B8008800C8040804180010205800EAD
:102DF000801113A7161B0895041AC304000E27019F
:0C2E00001011121314151621222329248E
:04000005080000C12E
:00000001FF
